:020000040000fa
:080000000002040000000000f2
:020000040000fa
:04000800b40500003b
:020000040000fa
:04000c0002050000e9
:020000040000fa
:0400100024050000c3
:020000040000fa
:04001400f8050000eb
:020000040000fa
:04001800d605000009
:020000040000fa
:04001c00a806000032
:020000040000fa
:040020004605000091
:020000040000fa
:04002400a80600002a
:020000040000fa
:04002800a806000026
:020000040000fa
:04002c008606000044
:020000040000fa
:04003000a80600001e
:020000040000fa
:04003400a80600001a
:020000040000fa
:04003800a806000016
:020000040000fa
:04003c00a806000012
:020000040000fa
:04004000a80600000e
:020000040000fa
:040044001c06000096
:020000040000fa
:04004800a806000006
:020000040000fa
:04004c00a806000002
:020000040000fa
:04005000a8060000fe
:020000040000fa
:04005400a8060000fa
:020000040000fa
:04005800a8060000f6
:020000040000fa
:04005c00a8060000f2
:020000040000fa
:04006000a8060000ee
:020000040000fa
:04006400a8060000ea
:020000040000fa
:04006800a8060000e6
:020000040000fa
:04006c00a8060000e2
:020000040000fa
:04007000a8060000de
:020000040000fa
:04007400a8060000da
:020000040000fa
:04007800a8060000d6
:020000040000fa
:04007c00a8060000d2
:020000040000fa
:04008000a8060000ce
:020000040000fa
:04008400a8060000ca
:020000040000fa
:04008800a8060000c6
:020000040000fa
:04008c00a8060000c2
:020000040000fa
:04009000a8060000be
:020000040000fa
:04009400a8060000ba
:020000040000fa
:04009800a8060000b6
:020000040000fa
:04009c00a8060000b2
:020000040000fa
:0400a000a8060000ae
:020000040000fa
:0400a400a8060000aa
:020000040000fa
:0400a800a8060000a6
:020000040000fa
:0400ac00a8060000a2
:020000040000fa
:0400b000a80600009e
:020000040000fa
:0400b400a80600009a
:020000040000fa
:0400b800a806000096
:020000040000fa
:0400bc00a806000092
:020000040000fa
:0400c000a80600008e
:020000040000fa
:0400c400a80600008a
:020000040000fa
:0400c800a806000086
:020000040000fa
:0400cc00a806000082
:020000040000fa
:0400d000a80600007e
:020000040000fa
:0400d400a80600007a
:020000040000fa
:0400d800a806000076
:020000040000fa
:0400dc00da04000042
:020000040000fa
:0400e000a80600006e
:020000040000fa
:0400e400a80600006a
:020000040000fa
:0400e800a806000066
:020000040000fa
:0400ec00a806000062
:020000040000fa
:0400f000a80600005e
:020000040000fa
:0400f400a80600005a
:020000040000fa
:0400f800a806000056
:020000040000fa
:0400fc00a806000052
:020000040000fa
:04010000a80600004d
:020000040000fa
:04010400a806000049
:020000040000fa
:04010800a806000045
:020000040000fa
:04010c00a806000041
:020000040000fa
:04011000a80600003d
:020000040000fa
:04011400a806000039
:020000040000fa
:04011800a806000035
:020000040000fa
:04011c00a806000031
:020000040000fa
:04012000a80600002d
:020000040000fa
:04012400a806000029
:020000040000fa
:04012800a806000025
:020000040000fa
:04012c00a806000021
:020000040000fa
:04013000a80600001d
:020000040000fa
:04013400a806000019
:020000040000fa
:04013800a806000015
:020000040000fa
:04013c00a806000011
:020000040000fa
:04014000a80600000d
:020000040000fa
:04014400a806000009
:020000040000fa
:04014800a806000005
:020000040000fa
:04014c00a806000001
:020000040000fa
:04015000a8060000fd
:020000040000fa
:04015400a8060000f9
:020000040000fa
:04015800a8060000f5
:020000040000fa
:04015c00a8060000f1
:020000040000fa
:04016000a8060000ed
:020000040000fa
:04016400a8060000e9
:020000040000fa
:04016800a8060000e5
:020000040000fa
:04016c00a8060000e1
:020000040000fa
:040170004406000041
:020000040000fa
:04017400a8060000d9
:020000040000fa
:04017800a8060000d5
:020000040000fa
:04017c00a8060000d1
:020000040000fa
:04018000a8060000cd
:020000040000fa
:04018400a8060000c9
:020000040000fa
:04018800a8060000c5
:020000040000fa
:04018c00a8060000c1
:020000040000fa
:040190001204000055
:020000040000fa
:040194009a040000c9
:020000040000fa
:04019800a8060000b5
:020000040000fa
:04019c00a8060000b1
:020000040000fa
:0401a000a8060000ad
:020000040000fa
:0401a400a8060000a9
:020000040000fa
:0401a800a8060000a5
:020000040000fa
:0401ac00a8060000a1
:020000040000fa
:0401b000a80600009d
:020000040000fa
:0401b400a806000099
:020000040000fa
:0401b800a806000095
:020000040000fa
:0401bc00a806000091
:020000040000fa
:0401c000a80600008d
:020000040000fa
:0401c400a806000089
:020000040000fa
:0401c800a806000085
:020000040000fa
:0401cc00a806000081
:020000040000fa
:0401d000a80600007d
:020000040000fa
:0401d400a806000079
:020000040000fa
:0401d800a806000075
:020000040000fa
:0401dc00a806000071
:020000040000fa
:0401e000a80600006d
:020000040000fa
:0401e400a806000069
:020000040000fa
:0401e800a806000065
:020000040000fa
:0401ec00a806000061
:020000040000fa
:0401f000a80600005d
:020000040000fa
:0401f400a806000059
:020000040000fa
:0401f800a806000055
:020000040000fa
:0401fc00a806000051
:020000040000fa
:04020000a80600004c
:020000040000fa
:04020400a806000048
:020000040000fa
:04020800a806000044
:020000040000fa
:04020c00a806000040
:020000040000fa
:04021000a80600003c
:020000040000fa
:04021400a806000038
:020000040000fa
:04021800a806000034
:020000040000fa
:04021c00a806000030
:020000040000fa
:04022000a80600002c
:020000040000fa
:04022400a806000028
:020000040000fa
:04022800a806000024
:020000040000fa
:04022c00a806000020
:020000040000fa
:04023000a80600001c
:020000040000fa
:04023400a806000018
:020000040000fa
:04023800a806000014
:020000040000fa
:04023c00a806000010
:020000040000fa
:04024000a80600000c
:020000040000fa
:04024400a806000008
:020000040000fa
:04024800a806000004
:020000040000fa
:04024c00a806000000
:020000040000fa
:04025000a8060000fc
:020000040000fa
:04025400a8060000f8
:020000040000fa
:04025800a8060000f4
:020000040000fa
:04025c00a8060000f0
:020000040000fa
:04026000a8060000ec
:020000040000fa
:04026400a8060000e8
:020000040000fa
:04026800a8060000e4
:020000040000fa
:04026c00a8060000e0
:020000040000fa
:04027000a8060000dc
:020000040000fa
:04027400a8060000d8
:020000040000fa
:04027800a8060000d4
:020000040000fa
:04027c00a8060000d0
:020000040000fa
:04028000a8060000cc
:020000040000fa
:04028400a8060000c8
:020000040000fa
:04028800a8060000c4
:020000040000fa
:04028c00a8060000c0
:020000040000fa
:04029000a8060000bc
:020000040000fa
:04029400a8060000b8
:020000040000fa
:04029800a8060000b4
:020000040000fa
:04029c00a8060000b0
:020000040000fa
:0402a000a8060000ac
:020000040000fa
:0402a400a8060000a8
:020000040000fa
:0402a800a8060000a4
:020000040000fa
:0402ac00a8060000a0
:020000040000fa
:0402b000a80600009c
:020000040000fa
:0402b400a806000098
:020000040000fa
:0402b800a806000094
:020000040000fa
:0402bc00a806000090
:020000040000fa
:0402c000a80600008c
:020000040000fa
:0402c400a806000088
:020000040000fa
:0402c800a806000084
:020000040000fa
:0402cc00a806000080
:020000040000fa
:0402d000a80600007c
:020000040000fa
:0402d400a806000078
:020000040000fa
:0402d800a806000074
:020000040000fa
:0402dc00a806000070
:020000040000fa
:0402e000a80600006c
:020000040000fa
:0402e400a806000068
:020000040000fa
:0402e800a806000064
:020000040000fa
:0402ec00a806000060
:020000040000fa
:0402f000a80600005c
:020000040000fa
:0402f400a806000058
:020000040000fa
:0402f800a806000054
:020000040000fa
:0402fc00a806000050
:020000040000fa
:04030000a80600004b
:020000040000fa
:04030400a806000047
:020000040000fa
:04030800a806000043
:020000040000fa
:04030c00a80600003f
:020000040000fa
:04031000a80600003b
:020000040000fa
:04031400a806000037
:020000040000fa
:04031800a806000033
:020000040000fa
:04031c00a80600002f
:020000040000fa
:04032000a80600002b
:020000040000fa
:04032400a806000027
:020000040000fa
:04032800a806000023
:020000040000fa
:04032c00a80600001f
:020000040000fa
:04033000a80600001b
:020000040000fa
:04033400a806000017
:020000040000fa
:10040000ef2721000eff27000e01880000000000ea
:10041000000020000000e000020032000001200087
:1004200020028800140007004b0207000000e000d3
:1004300003003a00c09823000100200002003700aa
:100440000000200001002000810f70000100320038
:100450000f000700000020000000e0000200320052
:1004600000000200000000002a4502000000000019
:100470000040da000000fe00800e20000000e000d6
:1004800002003200002020009001880000000600d9
:10049000a1028800800478000000eb001f003700f4
:1004a000e284440054a0b4009905ba00e2844400f8
:1004b00054a0b4009906ba00e284440054a0b400e9
:1004c0000006eb00476fde00fd07b200ae018800ba
:1004d000636ce10003003a000ad801000000eb0061
:1004e0000e003700606ce10008003a00004deb00a0
:1004f0000a05e800020039003420ec000af0a000f0
:100500008b05e900f9ff3e00040037006168e10057
:10051000010032000086eb000b00070019c7ba008b
:100520001905ba000e04e00003003a000a00e000da
:10053000dbff3a0000000600fe07b200ae028800b2
:100540008a047800f5ff37000cd0a300e20f4d00bd
:100550001c003b0089027800354dba000a05e8000e
:10056000020039003420ec000af0a0008b05e900fd
:100570000f003200254dba000a05e80002003900dc
:100580003420ec000af0a0008b05e90008003200de
:100590000c00e0000600320015cdba000a05e800a4
:1005a000020039003420ec000af0a0008b05e900bd
:1005b0008984e80054a0b4000b00e000e2ff3a0098
:1005c000000006009902ba00055d78008b05e9007d
:1005d000f7ff3200c82ade00055d78008b05e900d0
:1005e000f3ff32000c00e000f1ff320019ddba0029
:1005f000eeff3700422e040000000000621b0400e2
:10060000000000009c1b040000000000f01b040020
:1006100000000000881b040000000000dc1b040038
:1006200000000000a81b0400000000004c1704009c
:100630000000000064170400000000007c170400a4
:10064000000000009217040000000000bc19040024
:1006500000000000e0190400000000001a1b040064
:1006600000000000be17040000000000d0180400c5
:100670000000000060160400000000006a1604007c
:100680000000000074160400000000007e16040044
:10069000000000008816040000000000921604000c
:1006a00000000000ae16040000000000d816040090
:1006b000000000000e1704000000000018170400de
:1006c0000000000022170400000000002c170400a6
:1006d000000000004e1b0400000000006a1b040024
:1006e00000000000623704000000000054320400e3
:1006f0000000000064310400000000009631040096
:1007000000000000c231040000000000d0310400ed
:1007100000000000de310400000000000c31040085
:100720000000000038310400000000000c3204001a
:10073000000000002c32040000000000141504002a
:10074000000000003c110400000000003a1f0400fb
:10075000000000005c1f040000000000741f040083
:1007600000000000961f040000000000b01f0400fd
:1007700000000000be1f040000000000e21f040093
:10078000000000000620040000000000102004000b
:10079000000000001a2004000000000044200400b3
:1007a000000000005c20040000000000d4200400d1
:1007b00000000000ee200400000000000e210400f4
:1007c00000000000b42104000000000074200400b8
:1007d00000000000243b040000000000a03a0400d8
:1007e00000000000b83a040000000000c83a04000d
:1007f00000000000d63a040000000000e23a0400c5
:1008000000000000803a040000000000903a04005c
:1008100000000000f03a040000000000103b04005b
:10082000000000003600f800809fbe00829fbe00de
:10083000849fbe00869fbe003200f8003400f8009e
:1008400010002000a00188000020200000d0fe0041
:100850000000fa00cf1b0700d082840000000100d6
:10086000000000000080fa003400f9003200f900b6
:100870004f03be004f02be004f01be004f00be003e
:100880003600f900004006003600f800809fbe00e8
:10089000829fbe00849fbe00869fbe003200f8008b
:1008a0003400f80010002000a00188000020200083
:1008b00000d0fe000200fa00008280000000e0008c
:1008c00002003200008280000000010050408000e1
:1008d0004b00de0061406000e14f50000a003a002a
:1008e000c1c02000110f7800108280000000e000dd
:1008f00004003200128280009e0078000000eb00ad
:10090000020001000b68a9000b48a90000000000cc
:100910000080fa003400f9003200f9004f03be00f5
:100920004f02be004f01be004f00be003600f9006e
:10093000004006003600f800809fbe00829fbe0087
:10094000849fbe00869fbe003200f8003400f8008d
:1009500010002000a00188000020200000d0fe0030
:100960000200fa00c1c02000110f78001082800040
:100970000000e00004003200128280009e00780037
:100980000000eb00020001000b68a900000000005d
:100990000080fa003400f9003200f9004f03be0075
:1009a0004f02be004f01be004f00be003600f900ee
:1009b000004006003600f800809fbe00829fbe0007
:1009c000849fbe00869fbe000000fa00c0818000a8
:1009d0000000e00002003200c08180000000010041
:1009e00005a8a900000000000080fa004f03be0027
:1009f0004f02be004f01be004f00be003600f9009e
:100a0000004006003600f800809fbe00829fbe00b6
:100a1000849fbe00869fbe000000fa00c068a90047
:100a2000200020009f1f0700000000000080fa0047
:100a30004f03be004f02be004f01be004f00be007c
:100a40003600f900004006003600f800809fbe0026
:100a5000829fbe00849fbe00869fbe000000fa00f9
:100a6000c608a900700020008e1f070000000000cb
:100a70000080fa004f03be004f02be004f01be00cf
:100a80004f00be003600f900004006003600f800b6
:100a9000809fbe00829fbe00849fbe00869fbe00d6
:100aa0000000fa00204680004400de006140600043
:100ab000e14f500003003a00c488a900a0002000c4
:100ac000781f0700204680004600de00614060007d
:100ad000e14f500003003a00c4c8a900e000200024
:100ae000701f0700204680004500de006140600066
:100af000e14f500003003a00c4a8a9009000200074
:100b0000681f0700204680004800de00614060004a
:100b1000e14f500003003a00c508a900c0002000c2
:100b2000601f0700204680004900de006140600031
:100b3000e14f500003003a00c528a900d000200072
:100b4000581f070020468000004078006140600088
:100b5000e14f500003003a00c408a900b000200093
:100b6000501f0700ffff37003600f800809fbe00cf
:100b7000829fbe00849fbe00869fbe000000fa00d8
:100b8000c028a9000000eb00461f0700000000007d
:100b90000080fa004f03be004f02be004f01be00ae
:100ba0004f00be003600f900004006003600f80095
:100bb000809fbe00829fbe00849fbe00869fbe00b5
:100bc0000000fa00c088a90030002000351f07008f
:100bd000000000000080fa004f03be004f02be007c
:100be0004f01be004f00be003600f9000040060075
:100bf0003600f800809fbe00829fbe00849fbe002a
:100c0000869fbe000000fa002e1f0700c048a90002
:100c100010002000231f0700000000000080fa00e1
:100c20004f03be004f02be004f01be004f00be008a
:100c30003600f900004006003600f800809fbe0034
:100c4000829fbe00849fbe00869fbe000000fa0007
:100c5000708280000000e00002003200708280009c
:100c60000000010000e8a900000000000080fa0078
:100c70004f03be004f02be004f01be004f00be003a
:100c80003600f900004006003600f800809fbe00e4
:100c9000829fbe00849fbe00869fbe00881f780092
:100ca0000200fa00a31f0700000f7800901f070042
:100cb0001e047800a11f070080007800080144008e
:100cc0004006210000004100010878001e04780061
:100cd0009c1f07008000780008014400a006210046
:100ce0000000410001087800000000000080fa00c8
:100cf0004f0478004f03be004f02be004f01be00fc
:100d00004f00be003600f900004006003600f80033
:100d1000809fbe00829fbe00849fbe00869fbe0053
:100d20000000fa00a0828000000001000028a90055
:100d3000000000000080fa004f03be004f02be001a
:100d40004f01be004f00be003600f9000040060013
:100d50000040da000000fe00000005000001be00b7
:100d60001b0007000470a70003f0a10003f8a30014
:100d700013003a006509b100100032000900350087
:100d80006928e1000200350001002800000005008c
:100d900000004000818048008502e900fcff3a0025
:100da00000000600f88f4200050035008100d100e8
:100db0000080d3008502e800fcff3a000000060036
:100dc0008000eb00000005006011b8008c023700c5
:100dd000c70ade00f107b200f50fb20008003200ca
:100de000e1cf4200020032000170a00024000500a3
:100df000810f700001003200040805004400050066
:100e0000810f700002003a00140005008502e9001d
:100e10000000400081c04800fcff3b000170a000c2
:100e2000240005006022b800060220000000d00067
:100e30008180d2000482d2008582d2000000a0000e
:100e40000202520083825a00030031000202420073
:100e500083824a000000a1000603e900f3ff3a0084
:100e600000000600889fbe008a9fbe008c9fbe00c7
:100e70001b0020000202be00058668000600280054
:100e8000060666004709de00f20fb200820032005b
:100e90000243e80080003200c729de00f30fb200f1
:100ea0007d0032000343e8007b003200f107b2000e
:100eb0000170a000f507b2000570a000c708dd00b2
:100ec0004903de00868070004700dd00c72add0090
:100ed0004923de00868272004722dd0003055100af
:100ee00004035000858358000300310000004000d7
:100ef000818048000a05e9008c1f78008a9fbe00a7
:100f000004005000858058000402420085824a0097
:100f100000004000818048000005eb000004be0096
:100f20006033b8000406be000d48e10056003100f1
:100f3000050009004dccd8000c01b8000d02b80026
:100f40008481410060824a008283530003045c0074
:100f500084845c0060055d000a00e00025003a0022
:100f6000800578000d40e1004900310088007800dc
:100f700007007800050009004d88d8000c01b80072
:100f80000d02b8008481410060824a0060031100b4
:100f900083835b0004045c00e0845c000900e000e3
:100fa00021003a004f01be000300e0002b00320098
:100fb000e3016000070673008c81710001003200bc
:100fc000640070004200de004e5edd000c00700028
:100fd000c258de0001e0a00083010700cf017800c5
:100fe000818071004f06be004f05be004f04be0059
:100ff000000006008c8343000d044c00e0844c008c
:1010000060054d000000e9000a00e000d4ff320056
:101010008c8343000d044c00e0844c0060054d00bf
:101020000000e900ceff37000c0343008d834b0026
:1010300060044c00e0844c000000e9000900e0007e
:10104000d8ff32000c0343008d834b0060044c003a
:10105000e0844c000000e900d2ff37004200de00cf
:101060004e5edd000c007000c258de0001e0a00002
:10107000cf0178000300e000daff320060001000ca
:10108000e0801800d7ff3700f0ff2f00aaff3700dd
:10109000f0ff2f00b9ff37000404be002f01070046
:1010a000870678000004fd008104fd002b01070085
:1010b000078366000678a300030032000960a700da
:1010c0000800be002c0037000d78a300020032009b
:1010d0000800be00280037000778a30026003a0069
:1010e00001f0a10009f0a1000668a300030032008e
:1010f000f1ff2700f0ff2f00baff37000d68a300b3
:10110000030032000800be008c807000b5ff37007d
:101110000768a30007003a000648a3000300320056
:10112000f1ff2700f0ff2f00aeff37000d48a300ae
:10113000030032006000b8008c807000a9ff370007
:101140000748a3000400320001f827000000200037
:101150008c807000a3ff3700760107000004fd00bb
:101160008104fd0002057800720107000802be003c
:101170008a01780059ff37000160a00012022000a8
:10118000b282880097ff37000100e00012003200b1
:101190000500e00010003200889fbe008a9fbe005c
:1011a0008c9fbe000006eb0001f8a3000300320094
:1011b00060001000e08018000cf0a00005f8a3000b
:1011c0000300320060021200e0821a000cf0a2005c
:1011d0008005eb0041ff37006000b8000200050009
:1011e000038368000700280007036300470ade0046
:1011f0000480a100c71ade000580a100f70f2000bf
:101200000720e100420032000728e10040003200e0
:10121000889fbe008a9fbe008c1f7800f107b20035
:10122000f307b2000400e000640032000170a00087
:101230000500e000680032000370a0008505420050
:10124000eb07b1000204b8000302b8008484440034
:1012500060854a00020ab800848444000a854a0076
:10126000030ab80004054500040033000804d00058
:101270008984d2000a85d2008b05e9006158e1001b
:101280003d00350002102000090161000308200024
:1012900089816100f7072000878364000886730056
:1012a000c84cde00c853dd00878474004855de005a
:1012b0000300e000060032008203760004003200e2
:1012c0008904e80060054d000a88a3000c003a007c
:1012d000f70f20000758e10044003d000a70a1000c
:1012e000c75ddd000a8575008a007300090078007b
:1012f0004f0678004f05be004f04be0000000600f8
:101300000a05d1008984d3008b05e800f0ff37007f
:10131000881f780006047800900007000702780014
:101320000001fd008101fd008c00070087027800ac
:10133000850372000778a300050032000001fd005c
:101340008101fd009f0007004f04780000000600a7
:10135000850372000748a30003003200f0ff2f004e
:10136000f1ff2700f8ff37000000200001f82700f8
:1013700088807000f4ff3700880178004848dd005d
:10138000808171004848de00c850dd000100700017
:10139000c850de00060478000b0178001600070034
:1013a00088807000d2ff37000500e00005003200a1
:1013b000170020003a0007009dff370081037000ee
:1013c000f9ff3a00860078004f0678004f05be000e
:1013d0004f04be000000050083037100f9ff3200d6
:1013e000270020002e00070094ff370001f8270097
:1013f00086807000f4ff37000100e0002600320014
:10140000610111007810e10023003c006022b80067
:101410007010e100040035008002780001007800bf
:101420008000eb00700151000200e0000900340070
:1014300070031100062add00822ade008603dd002b
:10144000878272000200de00860bdd00070070005c
:101450008208de0084817100f4ff270004826200ac
:1014600084817100040028008482620061026000af
:1014700005f0a6000000060004827100070032009b
:101480000000e800e0804800000006000002be0006
:101490006000b800efff37006000b80000000600f1
:1014a000889fbe000004eb006138e10016003a009e
:1014b0000100e00008003a00c800de004800dd003e
:1014c000880020000100e00003003a00c800de00b0
:1014d0004800dd00680444008184cf00e9845400a2
:1014e000060034008908dd00f08314008703de0065
:1014f000878070000900dd000904440061021400c7
:101500004f04be00000006000300e00008003a009f
:10151000c811de004811dd00880020000300e00053
:1015200003003a00c811de004811dd0068044400e1
:101530008384cf00e9845400060034008919dd005b
:10154000f08314008713de00878171000911dd002c
:1015500009044400e1021400e9ff370027002000dd
:1015600001f0a70017002000470bde00f60fb200c5
:10157000040032000643e8000a0032004702b300cc
:101580000000060001037800f607b20006037000b1
:1015900002003a000703b300000006008702b30010
:1015a0000000060001037800f607b2000603700091
:1015b000020032000770a000000006000760a000d3
:1015c000000006000478a300040032000578a300a0
:1015d000030032000168a30001003a000200be00cf
:1015e0000160a000000006008101700027003200a9
:1015f0008002eb0001f8a30003003200600010003d
:10160000e080180015002000f407200002024200cc
:1016100020003400f7032000870360000604200048
:101620000003630002082000000161004700de00a3
:10163000c909dd0000807100c708de000600e00077
:101640000800320087037100060032001000b0006d
:101650000180b0000188a30002003200c108de0052
:101660000402e800f107b200f30f20000320e100bc
:1016700003003d004722dd00810072002900370091
:1016800001f827000000eb00260037006000b800da
:1016900000000600680212007f20e1000200340012
:1016a0006000b8001f0037006011b8007020e10032
:1016b0000400350080017800010078008000eb0014
:1016c000700252000400e00009003400f003120030
:1016d0000719dd008419de000703dd008681710033
:1016e0000400de00070bdd00060070008408de0049
:1016f000f7ff27008383630087037100060028003b
:1017000003036300070032000700e00003003a0013
:101710006101600002817300020032001000b0001d
:101720000180b0000500a6000000060001f0a00046
:10173000000006004f0ade004709de00f107b20094
:10174000f20fb2000b003200f207b1000170a000ee
:10175000c708dd00c901de00838070004700dd009e
:101760000400a6000000060060001000e0801800e1
:1017700000000600810f700001003a000000060022
:101780008182cf000500e00010003e008082cf0083
:10179000ee8242007028e1000400390007003e009c
:1017a000800078000000eb000e003700708312000c
:1017b0008600de000500dd000a003700708352005d
:1017c0008600dd000000eb0006003700e2825200d8
:1017d0008508dd00708312000603de00868070003d
:1017e0000500dd007507b0000501ea000400a60051
:1017f0000000060060001000e080180000000600f5
:10180000889fbe008a9fbe000082700004027100a3
:1018100004827100260032000004be000200be00f7
:101820006011b8006b092000950220000182cf00f2
:101830000a0039000541b1000082cf0007003900dd
:101840000541b1000982cf00040039000541b10013
:101850000882cf00010039000541b1000542520065
:10186000120032000a003b008281710061016400b5
:101870008100d1000080d3008984d3000884d30084
:101880008b05e8000442e800f7ff3a000700370044
:101890000804440089844c0000004800818048000e
:1018a0008b05e9000442e900f9ff3a000300070054
:1018b0004f05be004f04be0000000600810020005e
:1018c000618055000b003d000b00200061fe2f00e1
:1018d0000100e1001d00340082817100610164009b
:1018e0008904d1000884d3000000e800faff3a0020
:1018f00071002000610064000300700002006000bd
:101900000900320061044400e0844c000988a5000d
:10191000050032008b05e8006808e10002003a008b
:101920008904d1000884d300f20f20000258e1009e
:1019300005003d00c75ddd00f907b2008980750034
:1019400008007800000006000bf827008b007800e4
:10195000000005001000fa00889fbe008a9fbe00ac
:101960008c1f780080047800010478006000b800c3
:10197000d0b79f00e1b79f00090278008802780085
:101980005fb39700efb397004438de00fc7f200080
:101990000006660020432000800f56002f003c0008
:1019a0006011b8000900780088007800f9b79f003e
:1019b00088bf9f0096bf9f00a7bf9f0068000700d9
:1019c0000000e0007fb297008fba97001fbb97001e
:1019d000afbb9700210032000200200003b02400ba
:1019e0000900780088007800e00f5200e08f5a006c
:1019f000e00f5b00e08f5b001f003d005a00070016
:101a00000200200003b024006000070009017800f4
:101a100088017800540007000005be007fb29700df
:101a20008fba97001fbb9700afbb9700e03f200025
:101a3000800f560021003c00bab79f00cbb79f0033
:101a40008004eb00e00f5200e08f5a00e00f5b00d3
:101a5000e08f5b002c00350008f8230009007800b7
:101a6000880078004f0678004f05be004f04be0086
:101a70000080fa0000000600f4b79f0085bf9f00b9
:101a800096bf9f00a7bf9f004000070002002000f4
:101a900003b02400340007000901780088017800b1
:101aa000310007000005be00afbb97001fbb9700c9
:101ab0008fba97007fb29700dcff37000a01be00a3
:101ac0000900780088007800300007008004780062
:101ad000010478006011b8000a00be002000070071
:101ae0000000e000ddff3d000200200003f82300bd
:101af000090078008800780024000700800478003e
:101b000001047800d5ff370008002800d3ff370014
:101b10008001eb000200e0000f0032008100e900cc
:101b200002014000b0417800514278000304e00017
:101b3000060032000404e00004003200820f50006e
:101b40000200320084cf5100f6ff32008381fb0097
:101b50000482fb008481510003007800000006002d
:101b600014002000ee00370007f82700078361000b
:101b70000638e10004003a00f7072000878361007f
:101b80008703710001003a0003f0a200889fbe00a5
:101b90008a9fbe008c9fbe00470ade000480a10021
:101ba000c71ade000580a100070028000785600035
:101bb00087856100f70f20000720e1009e003200ba
:101bc0000728e1009c003200010678000400e000d4
:101bd000b4003200f7072000878060000170a00089
:101be0000500e000c0003200f70720008781610097
:101bf0000370a000050652000f003a000b50e100f0
:101c00000b0032000308e10002003a000200e1008c
:101c10007e0032000204500083845800040031002a
:101c20000001fd008101fd008402fd008a05fd0028
:101c30006044b800210037000520e10005003d00a8
:101c40000001fd008101fd008402fd008a05fd0008
:101c5000050652007a60e100050035000170a10020
:101c60004722dd00848070008a80700063003700a6
:101c70006044b800ef02660007ff2f000706660009
:101c80000500e00006003400f08312008714dd0038
:101c90000511de00071bdd00060171008519de005d
:101ca0007060e100050035000904780082047800c6
:101cb000030178008001eb00700656000b50e10034
:101cc00003003a000200400083804800040037000f
:101cd00060041400e0841c00020058008380580057
:101ce0000188a300060032008100d1000080d300eb
:101cf0008984d3000884d3000402e8002700370059
:101d00000178a30025003a000100e0000300320042
:101d10008186cf00698656000a0037008c002000bb
:101d20000000e00004003a00090078008804780010
:101d30000004eb00700252008086cf000d064600c2
:101d40000c06e9007060e1000600350080007800b4
:101d500009007800880478000004eb007006560043
:101d6000700252000c00e0000c0034008c08dd0012
:101d7000f00316000703de00868070000c00dd0013
:101d8000074bde00060070008c4cdd000743de00d0
:101d9000868474000c44dd000c0252006120e100d6
:101da0002000350061016000070028008781640081
:101db000f7ff270087836400070374000300e00037
:101dc0000600320082037300040032000000e800c5
:101dd000e08048000188a3000e003a00f70f2000c1
:101de0000720e1004a003d000170a1004722dd000c
:101df000810072008a8070000000be004f06be00a5
:101e00004f05be004f04be00000006006000b80091
:101e1000faff37008100d1000080d3000402e800ff
:101e2000eeff3700040178008901740072fd07009d
:101e30008a807000f1ff3700c8fd070007027800b4
:101e40000001fd008101fd00c4fd0700870278004c
:101e5000850372000778a300040032000001fd0032
:101e60008101fd00d7fd0700e4ff37008503620014
:101e70000768a300080032000b50e10003003200a5
:101e8000f0ff2f00f1ff2700dcff37000001fd000d
:101e90008101fd00d9ff37000468a300d7ff32009d
:101ea000faff3700f8ff2700888360000b003a0034
:101eb0000000e00009003a0083036400828373009d
:101ec000020032000200be00ccff37000b50e100e0
:101ed000ceff3a000200be00c8ff37001400200009
:101ee000810064003eff3700f8ff2700888361000f
:101ef00004003a000200e00002003a008c00780082
:101f0000beff3700150020008301640039ff370051
:101f100001f827000000200081007500b7ff37009e
:101f2000889fbe008a9fbe00841f780017000700ac
:101f30004f00780011003300f0ff2f00838f6c00fa
:101f400006003b00040565000a00a70008003700f2
:101f500009f0a6001000200008003700820f54008e
:101f6000838f5c00030039001000200001003e0058
:101f70000000200009f0a7000000ea004f05be00a5
:101f80004f04be000000e000000006000004be0098
:101f90008ffb07000003be000405be000200be0068
:0c1fa0008bfb0700844f7500000006005a
:020000040000fa
:101fac004c45000044310000204f00004e00000062
:101fbc004c45000044320000204f00004e00000051
:101fcc004c45000044330000204f00004e00000040
:101fdc004c45000044340000204f00004e0000002f
:101fec004c45000044350000204f00004e0000001e
:101ffc004c45000044310000204f000046460000d4
:10200c00004c000045440000322000004f46000008
:10201c00460000004c45000044330000204f0000f7
:10202c0046460000004c00004544000034200000ef
:10203c004f460000460000004c45000044350000af
:10204c00204f00004646000000000000881b0000e6
:10205c00dc1b0000a81b0000000000004c17000057
:10206c00641700007c17000092170000bc190000d8
:10207c00e01900001a1b0000be170000d018000069
:10208c00601600006a160000741600007e16000030
:10209c008816000092160000ae160000d81600003c
:1020ac000e17000018170000221700002c17000054
:1020bc004e1b00006a1b00002c9000003a1f000011
:1020cc005c1f0000741f0000961f0000b01f000072
:1020dc00be1f0000e21f00000620000010200000c0
:1020ec0000000000000000001a2000004420000046
:1020fc005c200000d4200000ee2000000e21000027
:10210c00b42100007420000000000000000000005a
:10211c0000000000000000000000000000000000b3
:10212c006431000096310000c2310000d031000053
:10213c00de3100000c310000383100000c320000a0
:10214c002c32000000000000a03a0000b83a000059
:10215c00c83a0000d63a0000e23a0000803a00008b
:10216c00903a0000f03a0000103b00000000000024
:020000040000fa
:10217c000400fa000000eb0010079800400021005a
:10218c00de170700100798001e0090000000e0000a
:10219c000300320000c8b3003f00070030003700d6
:1021ac00800521001b1a0700100798000000eb00a7
:1021bc00000f78000d0037009e00780040002100d1
:1021cc00c51907009e0090000100700010079800d0
:1021dc009e00780040002100dc1907009e00900052
:1021ec0001007000100798001e0fe8001e00780018
:1021fc00e20f5000f0ff36000000eb00000f7800fb
:10220c000f0037009e007800600020008089b90024
:10221c0000172100800041001e007800004078006b
:10222c000101780080407800c0002100531907009c
:10223c009e00900001007000100798001e0fe8002f
:10224c001e007800e20f5000eeff360080012100e6
:10225c00f71707009e00900001007000100798000f
:10226c001e0090000080fa00000006000000fa003a
:10227c0010c0b30021f0b700000000000080fa008d
:10228c00000006000000fa00b60a0700000000007b
:10229c000080fa00000006000200fa00004f7800ef
:1022ac002470ef001e4078000004e00003003d00a5
:1022bc0010c0b30024f0b700090037009e80fb006b
:1022cc0000042000008060000000e00004003200e8
:1022dc001e4078006f40600000c0e80024f0b7009a
:1022ec00a00a0700000000000080fa0000000600b1
:1022fc002600fa00889fbe006000b800008fbe0068
:10230c006000b8002007980031079800307c8000ee
:10231c0050800a00000000000080fb00400798007d
:10232c00417c800051079800207c8000a8800a0026
:10233c00000000000080fb00600f98006000b800f7
:10234c00700f9800011798006000b80060079800a3
:10235c00710798006000b800000f9800110f9800ea
:10236c001000200001002000200f9800310f980071
:10237c000040eb00005f98000040eb0020679800e5
:10238c00128e8000221798000000eb00500f98006e
:10239c0000102e00515f2000700f9800011798005c
:1023ac002e109000e20f50000b003a00707c800061
:1023bc0050800a00000000000080fb0040079800dd
:1023cc00837c800053079800907c800098800a00e2
:1023dc0000000000005f98002e109000e10f5000ec
:1023ec0004003a0000202c00b1be2000008fbe007b
:1023fc006f0037002e1090000000e00004003a003f
:10240c0000102e00515f2000008fbe0068003700c6
:10241c002e109000e50f500004003a0000102e0022
:10242c00515f2000008fbe00610037002e1090001d
:10243c00e30f5000060032002e109000e40f500005
:10244c00030032002e109000e20f500058003a00aa
:10245c004e0090000000e00002003a001000200046
:10246c00400798005e0090000000e00002003a0077
:10247c0010002000500798006e089000e30f5000e9
:10248c0015003a005e0090008000eb00800178009f
:10249c00f20f200082816100e080600000202100aa
:1024ac008089b900a00720008098b9000001410084
:1024bc00002021000018b8000101410082007800c2
:1024cc004e0190008001eb0053fa070020079800a2
:1024dc0031079800140037005e0090008000eb007c
:1024ec0080017800f20f200082816100e0806000a2
:1024fc00002021008089b900a00720008098b90035
:10250c0000014100002021000018b8000101410029
:10251c00820078004e0190008001eb003efa07002b
:10252c0020079800310798002e109000e30f500000
:10253c0008003a002e009000be0090004e0add000c
:10254c004200de0000007200c208de00008fbe00f8
:10255c00170037002e109000e40f500007003a00cf
:10256c002e009000be0090003200200003002000de
:10257c0029fa0700008fbe000d0037002e109000c6
:10258c00e20f50000a003a00780047001080fb0070
:10259c0041002000008050008000eb000001be00d4
:1025ac002e009000be0090001bfa0700008fbe00aa
:1025bc001e01be00228e8800338e8800005026003b
:1025cc00d1dc21001e01be00800f5100818f59000b
:1025dc000300360020002000500f98009e003700aa
:1025ec0000282b0061ee20001e01be00800f510060
:1025fc00818f5900060036001e00be008100d100fc
:10260c000080d300000f9800110f980003003700d2
:10261c001e02be00040f9800150f98001000200039
:10262c0001002000200f9800310f98000e08900038
:10263c009e0890008100d1000080d30060079800b4
:10264c007107980012003700740147001000200039
:10265c000100200032024000a28248000400be00ab
:10266c00200f9800310f98002e089000be089000a3
:10267c0000004000818048000001be000e08900060
:10268c009e089000e4f90700600798007107980015
:10269c006e019000fe01900000082f00a12f200079
:1026ac00800f5100818f5900e7ff3e007e0990009a
:1026bc008e1190006e009000fe009000800f510073
:1026cc00818f59000300310020002000500f98002a
:1026dc00610037006e009000fe009000b7f9070013
:1026ec000200200003042400bafa0700000178005d
:1026fc000100780082047800000478007e089000c5
:10270c008e109000adf907000001be0009007800a2
:10271c00880078000000be00cff9070000017800a7
:10272c000100780082017800000178000300780035
:10273c00820078000000be0083fc070084f90700cb
:10274c0080407800201c210011489800201c21009a
:10275c00104890000080fb00630040008000eb00fc
:10276c0096f907000004be007e0890008e109000c1
:10277c0092f907000001be000800be0095fa0700a0
:10278c0000017800010078008204780000047800d1
:10279c006e009000fe00900088f907000001be005a
:1027ac0009007800880078000000be00aaf9070034
:1027bc0000017800010078008201780000017800a7
:1027cc0003007800820078000000be005efc070069
:1027dc005ff9070080407800201c210021489800f8
:1027ec00201c2100204890000081fb00b0aa2a0088
:1027fc000010b8008100d100300020008088b900a2
:10280c000000510080417800201c210010489000ed
:10281c000081fb00b0aa2a000010b8008100d10092
:10282c00300020008088b900000051000040780082
:10283c0000c07100206798002e6090000004e0003a
:10284c0005003a00201c2100204890008040e80040
:10285c00201c2100214898005e0890004f04be0007
:10286c000080fa00000006000000fa004c1307007c
:10287c0040512100671307004213070000000000bd
:10288c000080fa00000006000200fa000000eb00d5
:10289c00000f780096fe0700000f78001e007800ed
:1028ac000000e0000200320010c8b3007afe0700fe
:1028bc00edff07002efe0700000f78001e007800c9
:1028cc000000e0000200320010c8b30072fe0700e6
:1028dc0040002100100078003040900011c0b3007f
:1028ec0045180700000f78001e0078000000e0007b
:1028fc000200320010c8b30067fe0700070907008a
:10290c00000000000080fa00000006000200fa003f
:10291c000000eb00000f780020d0bf00e14f50000a
:10292c0013003a0023d0bf000004e00010003a006e
:10293c0021d0bf000004e0000d003a00c1132100bb
:10294c004000210054150700000f78001e0078008d
:10295c000000e00004003a002070ef0010c0b3004b
:10296c0023f0b7000200370010c8b3004afe07007e
:10297c0021d0bf00e14f500025003a002370ef003a
:10298c002170ef00d5140700000f78001e007800ae
:10299c000000e00011003a00c0002100ac06070066
:1029ac00000f78001e0078000000e00002003200ea
:1029bc0010c0b30038fe070080012100bb090700de
:1029cc00000f78001e0078000000e00005003200c7
:1029dc0020c0b30030fe0700020037000040eb00bf
:1029ec002dfe0700c0002100100078001040780078
:1029fc000004e00003003d0010c0b30020f0b7005d
:102a0c000200370010c0b30022f0b7001dfe070013
:102a1c00000000000080fa00000006000000fa0030
:102a2c00808180000000e800808188008081800027
:102a3c00f30f5000050036003030ef0010c0b3002b
:102a4c0020f0b70040012000131807000000000020
:102a5c000080fa00000006000200fa00000f780067
:102a6c009e007800600020008088b9008080e8001b
:102a7c000017210000804000100078000080fa0050
:102a8c00000006000400fa00000f780011079800ff
:102a9c009e007800600020008089b900201721007a
:102aac0000004100210020008e80400011087800b9
:102abc00000000000080fa00000006000200fa008e
:102acc00000f78009e007800600020008088b9001c
:102adc00e400400020182100008040001000780025
:102aec000080fa00000006000400fa00000f7800d5
:102afc00110798009e007800600020008089b900c2
:102b0c006018210000004100210020008e80400050
:102b1c0011087800000000000080fa000000060098
:102b2c000200fa00000f78009e0078006000200080
:102b3c008088b900e40040000017210000804000ac
:102b4c00100078000080fa00000006000400fa0073
:102b5c00000f7800110798009e007800600020009c
:102b6c008089b9004017210000004100210020009d
:102b7c008e80400011087800000000000080fa00f0
:102b8c00000006000200fa00000f7800c0002100cf
:102b9c00a00090001e017800600020008090b90019
:102bac0000804000104078000080fa000000060011
:102bbc000200fa00000f7800a11d21001e01780010
:102bcc00300020008090b900008040001040780058
:102bdc000080fa00000006000400fa00000f7800e4
:102bec0021479800c0002100a00090001e01780031
:102bfc00600020008090b90000804000ae40900042
:102c0c0001487800000000000080fa000000060077
:102c1c000200fa00000f78009e00780040002100ae
:102c2c004a1707009e007800600020008089b900d8
:102c3c0000172100800041001e0078000040780041
:102c4c000101780080407800c0002100cb160700fd
:102c5c00000000000080fa00000006000200fa00ec
:102c6c00000f780080012100a00090001e01780068
:102c7c00a00020008090b900008040001040780037
:102c8c000080fa00000006000200fa00000f780035
:102c9c0080012100a00090001e017800a0002000ff
:102cac008090b90000804000300090000080fa0055
:102cbc00000006000000fa0001eba8000000000074
:102ccc000080fa00000006000000fa0001eba900e9
:102cdc00000000000080fa00000006000000fa006e
:102cec0008cba800000000000080fa0000000600dd
:102cfc000000fa0008cba900000000000080fa00d8
:102d0c00000006000200fa00000f7800000000002e
:102d1c000080fa00000006000400fa00100798007a
:102d2c000000eb00000f78001e0090000000e00097
:102d3c0003003a00c1c02000110f780001003700d9
:102d4c00000000001e0078000080fa000000060061
:102d5c000400fa00100798000040eb00004f7800c8
:102d6c001e0090000000e0000a003a00805980002c
:102d7c0000407800614060000080fb0000f0a7007c
:102d8c000000ea000000ea004f00de00004f78006f
:102d9c0001003700000000001e4078000080fa009f
:102dac00000006000200fa00000f78001e007800f8
:102dbc0000407800634060000080fb00630060000e
:102dcc004800dd00b25e8000f1cf2f008100610071
:102ddc0001007000b05e88001e0078000040780092
:102dec0063406000634060004500dd0022b02000bd
:102dfc0012417800f1c9b3008140610000c070003d
:102e0c0002ebb700000000000080fa000000060092
:102e1c000000fa002b48a800000000000080fa0017
:102e2c00000006000000fa002b48a900000000007a
:102e3c000080fa00000006000000fa000b48a90010
:102e4c00000000000080fa00000006000200fa00fa
:102e5c00000f78001e00780000407800674060008a
:102e6c000080fb00670060004800dd0062438000ca
:102e7c00f18f2f0081006100010070006043880019
:102e8c00000000000080fa00000006000200fa00ba
:102e9c00000f78001e0078000000e00003003a00ec
:102eac002b68a800200ba8000100370000000000d0
:102ebc00000000000080fa00000006000200fa008a
:102ecc00000f78001e0078000000e00003003a00bc
:102edc002b68a900200ba90001003700000000009e
:102eec00000000000080fa00000006000200fa005a
:102efc00000f78001e0078000000e00002003a008d
:102f0c000b68a90001003700000000000000000061
:102f1c000080fa00000006000400fa00000f7800a0
:102f2c00110798001e0078000000e0000c003a0029
:102f3c001e00900000407800674060000080fb009d
:102f4c00670060004c00dd0062438000f1ff280048
:102f5c0081006100010070006043880001003700af
:102f6c0000000000000000000080fa0000000600d5
:102f7c000000fa00002bef0000062000105888001b
:102f8c00042bef000003200030588800082bef00c2
:102f9c000a2bef0010002000605888000e2bef0069
:102fac00102bef00122bef00142bef00162bef0061
:102fbc00202bef00222bef00302bef00322bef00f9
:102fcc00382bef00402bef00482bef00502bef007d
:102fdc003a2bef00422bef004a2bef00522bef0065
:102fec003c2bef00442bef004c2bef00542bef004d
:102ffc003e2bef00462bef004e2bef00562bef0035
:10300c00682bef006c2bef00702bef00742bef0094
:10301c0000402000505b880000402000705b88005e
:10302c0000402000905b880000402000b05b8800ce
:10303c00a02bef00a42bef00a82bef00ac2bef0084
:10304c00d02bef00d22bef00800f2000a05e880069
:10305c00d82bef00dc2bef00e02bef000030200032
:10306c00b05e880000302000d05e88000030200068
:10307c00f05e880000302000105f8800f02bef001d
:10308c00f22bef00f82bef00fa2bef00022cef00e5
:10309c000c2cef000e2cef00102cef00122cef007c
:1030ac00142cef00162cef00182cef001a2cef004c
:1030bc001c2cef001e2cef00202cef00222cef001c
:1030cc00242cef00262cef00282cef002a2cef00ec
:1030dc002c2cef002e2cef00302cef00322cef00bc
:1030ec00342cef00362cef00382cef003a2cef008c
:1030fc003c2cef003e2cef00402cef00422cef005c
:10310c00442cef00462cef00482cef004a2cef002b
:10311c0020b621005e010700c0b92100790107002b
:10312c0000bf2100a101070010608000b8400a0018
:10313c00000f00001060880001eba8000000eb00fd
:10314c008a00070010002000005c8800822bef0032
:10315c00842bef00862bef00882bef008a2bef00df
:10316c008c2bef008e2bef00902bef00922bef00af
:10317c00942bef00962bef00982bef009a2bef007f
:10318c009c2bef009e2bef00000000000080fa004b
:10319c00000006000000fa0001eba900002bef0074
:1031ac000006200010588800042bef00062bef00bf
:1031bc00082bef000a2bef000c2bef000e2bef006f
:1031cc00102bef00122bef00142bef00162bef003f
:1031dc00202bef00222bef00302bef00322bef00d7
:1031ec00382bef00402bef00482bef00502bef005b
:1031fc003a2bef00422bef004a2bef00522bef0043
:10320c003c2bef00442bef004c2bef00542bef002a
:10321c003e2bef00462bef004e2bef00562bef0012
:10322c00682bef006c2bef00702bef00742bef0072
:10323c006a2bef006e2bef00722bef00762bef005a
:10324c00802bef00822bef00842bef00862bef00fe
:10325c00882bef008a2bef008c2bef008e2bef00ce
:10326c00902bef00922bef00942bef00962bef009e
:10327c00982bef009a2bef009c2bef009e2bef006e
:10328c00a02bef00a42bef00a82bef00ac2bef0032
:10329c00d02bef00d22bef00d42bef00d82bef006c
:1032ac00dc2bef00e02bef0000302000b05e88003c
:1032bc0000302000d05e880000302000f05e8800d6
:1032cc0000302000105f8800f02bef00f22bef0095
:1032dc00f82bef00fa2bef00002cef00022cef0084
:1032ec000c2cef000e2cef00102cef00122cef002a
:1032fc00142cef00162cef00182cef001a2cef00fa
:10330c001c2cef001e2cef00202cef00222cef00c9
:10331c00242cef00262cef00282cef002a2cef0099
:10332c002c2cef002e2cef00302cef00322cef0069
:10333c00342cef00362cef00382cef003a2cef0039
:10334c003c2cef003e2cef00402cef00422cef0009
:10335c00442cef00462cef00482cef004a2cef00d9
:10336c00000000000080fa00000006000200fa00d5
:10337c00000f78001e0078000000e00009003a0001
:10338c00000ca80000000000006080004800de0077
:10339c00614060000004e000fbff32000a0ba80053
:1033ac000100370000000000000000000080fa005f
:1033bc00000006000000fa0000eca800000000006d
:1033cc00006080004f00de00004078000004e00048
:1033dc00fbff32000aeba800000000000080fa009e
:1033ec00000006000600fa0010079800210798005c
:1033fc000000eb00000f78001e009000e30f50005f
:10340c003b0032001e009000e30f500007003e000e
:10341c001e009000e10f50001d0032001e009000b5
:10342c00e10f500026003e000d0037001e009000fa
:10343c00e50f5000460032001e009000e50f5000d2
:10344c00370039001e009000e60f50004c0032008f
:10345c001e009000e70f5000550032006f0037003f
:10346c002e009000e10f500003003a0020012000d4
:10347c00000f78005a0037002e009000e20f500029
:10348c0057003a0030012000000f7800540037003c
:10349c002e009000e10f500003003a0000012000c4
:1034ac00000f7800500037002e009000e20f500003
:1034bc004d003a0010012000000f78004a00370040
:1034cc002e009000e10f500003003a00e0002000b5
:1034dc00000f7800460037002e009000e20f5000dd
:1034ec0043003a00f0002000000f78004000370045
:1034fc002e009000e10f500003003a00c0002000a5
:10350c00000f78003c0037002e009000e20f5000b6
:10351c0039003a00d0002000000f78003600370048
:10352c002e009000e10f500003003a00a000200094
:10353c00000f7800320037002e009000e20f500090
:10354c002f003a00b0002000000f78002c0037004c
:10355c002e009000e10f500003003a008000200084
:10356c00000f7800280037002e009000e20f50006a
:10357c0025003a0090002000000f78002200370050
:10358c002e009000e10f500003003a006000200074
:10359c00000f78001e0037002e009000e20f500044
:1035ac001b003a0070002000000f78001800370054
:1035bc002e009000e10f500003003a004000200064
:1035cc00000f7800140037002e009000e20f50001e
:1035dc0011003a0050002000000f78000e00370058
:1035ec00000000000d003700000000000b00370049
:1035fc000000000009003700000000000700370041
:10360c000000000005003700000000000300370038
:10361c000000000001003700000000001e007800d0
:10362c000080fa00000006000800fa00100798005d
:10363c002107980032079800be0090002e009000e1
:10364c0068ff0700000f78001e0090000000e000eb
:10365c000b003a001e007800004078007f406000ac
:10366c000080fb007f006000025c800001fe2f00e8
:10367c008100610001007000005c880001003700cf
:10368c0000000000000000000080fa0000000600ae
:10369c000200fa00000f78001e0078000000e00025
:1036ac00020032009e0078000182880000000000b9
:1036bc000080fa00000006000000fa000000000084
:1036cc000080fa00000006000000fa005040800064
:1036dc004a00de0061406000e14f500006003a00f5
:1036ec00008280000000e0000200320000828000b6
:1036fc00000001000b48a900000000000080fa0047
:10370c00000006000200fa00000f78001e0078008e
:10371c000000e000020032009e0078001182880058
:10372c00000000000080fa00000006000400fa000f
:10373c00000f780011079800000000000080fa00cc
:10374c00000006000400fa00100798001e0090000c
:10375c000000e0000f003a00805980000040780023
:10376c00614060000004e0000c003200c1c0200089
:10377c00110f7800108280000000e000070032007a
:10378c00128280009e0078001e0090000200010052
:10379c0002003700000000000100370000000000ac
:1037ac00000000000080fa00000006000200fa0091
:1037bc00000f78001e0078000000e00002003200cc
:1037cc009e00780021828800000000000080fa0032
:1037dc00000006000200fa00000f78000000000054
:0837ec000080fa000000060055
:020000040000fa
:1037f400ee874700889fbe008a9fbe008c9fbe0054
:103804008e1f7800000478003801900012009000a8
:10381400a2009000f0b79f0081bf9f00920578003e
:10382400320590000a00e00032003200e10f55003a
:1038340033003200e20f550009003a0073c2b300ae
:10384400922321000349780033c0b300a22321004e
:103854000349780002ff2f00f3cf20003000370027
:10386400e30f550029003200e40f55002a0032000e
:10387400e50f55000f003a0073c4b3006222210023
:103884000349780013c0b300f222210003497800f1
:1038940043c2b300022321000349780063c4b30088
:1038a4002223210003497800f2ff2f00f37c2c002f
:1038b4001b0037006601550029002000e10f51006c
:1038c40047013e0013c0b3000222210003497800df
:1038d400122221000949780073c2b3008222210018
:1038e4000349780073c4b300e2222100034978003d
:1038f40009003700c2ff2f007300200008003700c2
:10390400c2ff2f00f30f20000500370002ff2f0035
:10391400f37f2c0002003700f2ff2f000300200089
:103924001800780010077800a6908000b7908000f7
:10393400d4908000e59080008004eb00b2b79f0033
:10394400c3b79f007fb697008fbe97000b00370068
:10395400ec49b90098009000828040002101900059
:10396400b10190000203730083837300310172007c
:10397400a18172000202be008904e8008e8f540007
:10398400f3ff39003fb19700cfb19700800478006e
:10399400fcb79f008dbf9f0009007800a6908800a7
:1039a400b7908800d4908800e59088002900200012
:1039b400e00f5300e08f5b00090132000281ea004e
:1039c4008381ea0083866300cdb79f008200630091
:1039d400b1b79f003fb39700cfb39700e00f5300f8
:1039e400e08f5b00fe003a002043900017c8b3004c
:1039f400874f5300020032000668a300ff00320024
:103a040029002000e00f5200e08f5a00f400320039
:103a14008383620002036200e00f5300e08f5b00c7
:103a2400ef003a00f500370002502600d3dc2100f5
:103a34007fb697008fbe9700820f5600838f5e007b
:103a4400e7003e00e38f550003003a0000002c001d
:103a54000a2bb700fe003700e48f550007003a0038
:103a640064055500e10f5500dc003e00f2ff230021
:103a7400515880000101610009003700e28f5500b0
:103a840009003a00640555008b047800e10f5500e5
:103a9400d3003600f2ff2300535880000301610075
:103aa40002f0a0000b003700e18f55000b003a0034
:103ab400f2ff2300e50f550003003a00a6b02000f2
:103ac400160b6100e20037005758800007016100bf
:103ad40002e0a00052588800dd0037000b00e0002f
:103ae40006003a00e50f5500bd003200f2ff230046
:103af400acb020001c0e6100d5003700e58f5500e6
:103b0400b6003a00e50f5500b5003a00f2ff230075
:103b14005d5880000d016100edff37007fb0970014
:103b24008fb897008106d1000086d300f00f2c00d7
:103b34000a0bb6000080a00050588800050037002a
:103b4400f20f2c00a1b02000910861007fb697000d
:103b54008fbe97008d00d1000c80d3001a00200086
:103b64000b0020000700370061054500e0854d008b
:103b74000a0145008b814d000c00be0012070200b3
:103b84000000000002082f00a32f2000820f500025
:103b9400838f5800f4ff3e00602a0a00040b0000e3
:103ba4008005eb000b0578008b0478005b00370080
:103bb400ec56b900180090000c0040004001900041
:103bc40068015100713f2000810f510051003e00f7
:103bd4000900e00050003a00b0009000200090007e
:103be40030440200000000008006780000b8200085
:103bf4000d004000e1c1b30001487800ef8f56008a
:103c040006003e00100020000d00dd000080ea00e8
:103c1400d00bb600805e8800060037007080560026
:103c2400110020000008dd000080ea00d20bb6007d
:103c3400905e88000d007800f4440200000000004b
:103c4400000778000d0078006a45020000000000bb
:103c54008e80e9000080fb00120020000010dd00cf
:103c640091087000e40047000080ea0091086000b9
:103c74001e0f60001880e8001040780011c8b300df
:103c8400814f5000030032000068a30007003a008f
:103c940021003700180090000c0640001c00be00f4
:103ca4007c420200000000000800370001c4b30099
:103cb400814f500006003a00180090000c064000a6
:103cc4001c00be00304402000000000080057800a3
:103cd4000b007800f44402000000000000067800a5
:103ce4000b0078006a450200000000008c80e900a7
:103cf4000080fb00120020000010dd000080ea00bc
:103d040091086000e4004600910860001c0e600009
:103d140001003700290020000a05e8001800780097
:103d2400900f5500a2ff390038009000004d90001c
:103d3400ff4f550014003e000a80fb0001b820002c
:103d440080804000e2c1b30082487800ef4f550004
:103d540006003e00110020000008dd000080ea009b
:103d6400d00bb600805e8800080037007000500059
:103d7400110020000008dd000080ea00d20bb6002c
:103d8400905e880001003700290020000a85fb00ae
:103d94000a007800f44402000000000000047800e7
:103da4000a0078006a450200000000008880e900eb
:103db4000080fb00120020000010dd00910870005c
:103dc400e4004400910870000080ea00180c6000d0
:103dd4001e450200000000000100370029002000f9
:103de400090078004f0778004f06be004f05be005b
:103df4004f04be00ef00b100000006007e45020043
:103e040000000000f30f2f00126080008281610027
:103e140002a020000301710012608800056ba80055
:103e2400092ba90000062000022bb70082202100e4
:103e34000049eb00290020007fb197008fb997005b
:103e4400e00f5100e08f5900e5ff3200f6fe370025
:103e540002282b0063ee20007fb397008fbb9700ee
:103e6400820f5300838f5b002cff3e0034ff37002a
:020000040000fa
:103e74000000fa003825ef0000802000d0298800d7
:103e840000082000e0298800e0022000f0298800d2
:103e9400c0a22000002a88004225ef0039e5a800ce
:103ea40038a5a8003885a800000000000080fa00aa
:103eb400000006000000fa003825ef003a25ef0064
:103ec40000082000e0298800e0022000f029880092
:103ed4004025ef004225ef00000000000080fa00ba
:103ee400000006000000fa0000000000f029800035
:103ef4000000d10061406000e14f5000fbff320040
:103f0400e02980000000d10061406000e14f5000d2
:103f140001003a003c25a900202a800000407800d6
:103f24000080fa00000006000200fa00004f78004a
:103f340000000000f02980004400de0061406000c1
:103f4400e14f5000fbff32001e80fb00402a880036
:103f5400000000000080fa00000006000000fa00e3
:103f6400f02980000000d1006140600061406800d9
:103f74000080fa00000006000000fa00f02980002a
:103f84004400de00614060000004e00007003a00e5
:103f9400c02980004500de00614060000004e000ac
:103fa4000200320010002000010037000000eb0086
:103fb40000407800614060000080fa0000000600c4
:103fc4000000fa00e02980004700de006140600044
:103fd4000004e00007003200f02980004500de0004
:103fe400614060000004e000020032001000200084
:103ff400010037000000eb000040780061406000e1
:104004000080fa00000006000000fa0038a5a800ad
:10401400000000000080fa00000006000000fa0022
:1040240038a5a900000000000080fa000000060086
:104034000200fa00004f78005cc5a9001e40780019
:10404400614060004200dd00c155200091407800cd
:104054000124a10000c070005ce5b7001e80fb00d5
:10406400610060004600dd00c12980000160a100fc
:1040740001007000c0298800000000000080fa00e0
:10408400000006000000fa00c02980004600de009f
:10409400614060000080fb0000f0a7000000ea001f
:1040a4000000ea004f00de00004078000080fa00c3
:1040b400000006000000fa00e02a80004200de0052
:1040c400614060000080fb0000f0a7000000ea00ef
:1040d4000000ea004f00de00004078000080fa0093
:1040e400000006000000fa005230ef00e0298000d2
:1040f4004300de0061406000e14f500003003a00dd
:10410400908280000000a00090828800e029800056
:104114004600de0061406000e14f500003003a00b9
:10412400908280000010a00090828800e029800026
:104134000000d10061406000e14f500004003a00eb
:10414400908280000020a000908288003c25a90075
:10415400e02980000040780061406000e14f500099
:1041640004003a00908280000030a0009082880011
:104174003c05a900e02980004500de0061406000a4
:10418400e14f500004003a00908280000040a000fb
:10419400908288003ca5a900908280000080fa00eb
:1041a400000006000400fa00008fbe001e00780024
:1041b400002a88001e00be004008de000100200026
:1041c400000078006f006000102a880000000000e2
:1041d4000080fa00000006000400fa00102a8000a3
:1041e4008000eb00008fbe001e00be00c001dd0099
:1041f40002002000002a80008000eb000000710013
:1042040081807100008fbe001e0078009e00900027
:104214000080fa00000006000800fa002007980059
:10422400310798002e019000be019000e0052000a7
:1042340001002000800f5100818f59000e003600cc
:104244002e009000be009000e00f5000e08f580058
:10425400090032003b65a80038e5a9002e01900052
:10426400be01900000102e00515f2000ecf2070008
:10427400008fbe00300037002e019000be01900078
:104284007001200001002000800f5100818f59002f
:10429400150036003b65a90038e5a8002e01900002
:1042a400be0190004218dd00ce10de0081007000d7
:1042b4004210dd000001be0000102e00515f2000fe
:1042c400d7f20700000278000100780004017800aa
:1042d40080017800f0ff2f00f1ff2f00001f410044
:1042e40001974900140037003b65a90038e5a9008f
:1042f4002e019000be0190004418dd00cc10de00b9
:10430400810070004410dd000001be0000102e008a
:10431400515f2000c2f2070000027800010078001b
:104324000401780080017800f0ff2f00f1ff2f00d6
:10433400001f4100019749001e007800002a8800f0
:104344001e00be004008de000100200000007800ce
:104354006f006000102a8800000000000080fa004e
:10436400000006000800fa009bff070020079800e1
:1043740031079800d02980004b00de0061406000c6
:10438400e14f50000c003a002e009000be00900057
:10439400e00f5000e08f5800070032002e0190001b
:1043a400be01900000102e00515f20009cf2070017
:1043b400008fbe0024003700c02980004700de00c3
:1043c40061406000e14f500010003a006401470072
:1043d400100020000100200032024000a2824800a8
:1043e4000401be004218dd00ce10de008100700022
:1043f4004210dd000001be0000102e00515f2000bd
:1044040087f20700008fbe000f00370064014700e9
:10441400100020000100200032024000a282480067
:104424000401be004418dd00cc10de0081007000e1
:104434004410dd000001be0000102e00515f20007a
:1044440077f20700008fbe001e0078009e009000e7
:084454000080fa0000000600e0
:020000040000fa
:10445c00889fbe008a9fbe008c9fbe008e1f780076
:10446c0080047800b00020000900e0003301320025
:10447c008006eb000d0778008045eb000b467800ba
:10448c0008013700e675b9006480440090004500cf
:10449c0011019000124178007e416100020032004f
:1044ac0013c0b3008348780010044500984078008e
:1044bc00e4cf50006800320006003e00e2cf50000e
:1044cc001600320030003e00e1cf5000f3003a00fd
:1044dc000900370052c8b30082cf50007d00320073
:1044ec0063c8b30083cf5000a1003200e7cf500067
:1044fc00ea003a00c7003700014678000204e000e9
:10450c00e6003a0021c0b300014c780010054500cc
:10451c0080c0b30010459800e000370018409000b0
:10452c000004e000150032008880e80064044400b8
:10453c00e44f5000030036001180e800100c7800a6
:10454c0009003700180078009180e800910078008d
:10455c00810f50000400320002003600000ce9000c
:10456c0001003700000ce800290090000a0540000b
:10457c005a40e900004d78002000370030c0b300ed
:10458c00004c7800c5003700a8009000180190007e
:10459c0012019000828f5000c000320066824400ed
:1045ac00828f50001700360089017800d302780002
:1045bc0082805000148146001281fb00554290000d
:1045cc000482fb000492de000482fb00848f500006
:1045dc00b2003900c54090000104e000af00320089
:1045ec0071c0b300014c78001005450093017800b0
:1045fc006480410010407800104598001cc0b30046
:10460c00a600370014804600810051009081fb0009
:10461c00838f5000a1003900204090000004e0007e
:10462c00060032008e00780009007800be3f0200c0
:10463c00000000000004e00098003a0040c0b30005
:10464c00004c7800290090000a05400019009000e9
:10465c0020409000e8ff370028019000980090005f
:10466c0091019000830f510087003e00b90090002b
:10467c008d804000028151001182fb00840f51009b
:10468c0081003600214090000004e000060032005a
:10469c008e00780009007800be3f02000000000088
:1046ac000004e0007d003a0008007800d04078005b
:1046bc000104e000020032000148e900cfff37009e
:1046cc0050c8b300004c7800290090000a05400047
:1046dc00400037008900780099017800648141001e
:1046ec0051027800e801420013497800100145009e
:1046fc00a20290009201900013039000868f52004a
:10470c000700360063c8b300034978001005450064
:10471c001180e80010407800104598003a003700ee
:10472c00b90190008d814100334278008483fb00f5
:10473c009381fb008301e80083b9de0085025300fe
:10474c00034252000482fb001bc0b300848f520052
:10475c0052003e0063c8b3000349780010054500c1
:10476c001180e800104078001045980027003700b1
:10477c00280290009800900091029000850f520042
:10478c000600360008007800d04078000104e000f4
:10479c00180032000148e90018003700b9009000f9
:1047ac008d804000b14178000383fb009180fb00b9
:1047bc008100e80081b0de000482520081c151000a
:1047cc008381fb00830f520006003600024c7800f8
:1047dc0010054500190090003040900010459800dd
:1047ec000600370008007800d04078000104e00093
:1047fc0004003a0030c0b300004c78001bc0b3007a
:10480c00260037000148e9001bc0b3000b467800b6
:10481c002200370028019000980090009100900031
:10482c00810f5100180036008100510039019000b1
:10483c000d0141001281fb0099019000d3419000c1
:10484c008381fb008391de008381fb00838f50000a
:10485c000d00390088007800514178000204e00016
:10486c0007003a0011c0b300014c78001005450058
:10487c001a00900031c0b3000148780007003700df
:10488c008248e9005dff370031c0b300014c78006d
:10489c00100545000a05e800004deb000e07e80086
:1048ac00e386460019009000900f5700f5fe390082
:1048bc00190078001004e00005003d0009007800a4
:1048cc00d642020000000000190078001074a1000c
:1048dc000c04e0000f003200090078005001780051
:1048ec00e90041001104e0000a0032009900780050
:1048fc001174a000100078006900400013c0b300d0
:10490c0090cf110003003a0009007800fa3d020034
:10491c0000000000190078000b04e00002003a00cf
:10492c001004a1000100370010c8750009007800c0
:10493c006c320200000000000000eb004f07780012
:10494c004f06be004f05be004f04be00000006001f
:020000040000fa
:10495c00889fbe008a9fbe00800478003000200033
:10496c000121210042c0b300914f1100e800320038
:10497c003445020000000000668344009600780075
:10498c00114890000080fb00a04888000a48a9004c
:10499c002a48a800f0ff21000209b60000e0a000a0
:1049ac0010488800f00f2e000229b60080ff2f005f
:1049bc000229b600f0f02f000229b600c0ff2f002c
:1049cc000029b6000189a9000129a80010002000c7
:1049dc00e04888000429ef0000502000304888008f
:1049ec000148900022c0b300039320008249780054
:1049fc00b3c0b30015932000834a780083c0b30082
:104a0c002a932000034d7800a3c9b30034932000ef
:104a1c00034a78007f4060000054a00034e9b700de
:104a2c0090c0b30035e9b70067c0b30068932000ad
:104a3c00074c7800f3c0b3007b932000834d7800c3
:104a4c00e3c0b30085932000834a78009a9320003a
:104a5c00024d78003ae9b700b0c9b3003be9b700a2
:104a6c0030ceb3003ce9b70020ccb3003de9b70031
:104a7c0000c7b3003ee9b70000cab3003fe9b70076
:104a8c0095eaa800940aa900982aef009aaaef00c8
:104a9c00a60aa900a62aa900a72aa800f4f32f00a9
:104aac0032558000020062000060a0003055880082
:104abc00f3fc2f0065aa2000958a610032ff2f00bd
:104acc0038558000080061000020a0003055880097
:104adc004a0020007a558800a60aa800f00f28008a
:104aec004b5580008b02600008b0200085027400da
:104afc00455588000108a9002108a900b00aa900a1
:104b0c00b02aa900b12aa8008b5580008b02620044
:104b1c000560a0008555880005ab2000958a6100d2
:104b2c008b5580008b0261000520a0008555880004
:104b3c00ca558800b00aa8009a5580008a02600005
:104b4c0085027400955588000248a9002248a900e6
:104b5c00ba0aa900ba2aa900bb2aa800abab20004c
:104b6c009b0d6200d4558000848161000340a0003d
:104b7c00d3558800d5558000050161000220a000a6
:104b8c00d2558800ba0aa800928f80000201410019
:104b9c00c3c0200003014100f2558800e1009000e1
:104bac0001568800bc0ab60001d02000808070003d
:104bbc00e155880002a8a90022a8a9000000eb007a
:104bcc0058052000b8468800a80a2000b84688007e
:104bdc00006888006ad02000074d780070c0b300d0
:104bec0007edb7000080200051052000b146880079
:104bfc00a10a2000b14688000068880016037800de
:104c0c0066004300100478000800e0000e0032003b
:104c1c00e40f54000c0032000800e900e10f5000d2
:104c2c000b003600e50f540009003200e30f54006e
:104c3c000900320066005400e10f500008003600f5
:104c4c000000eb000700370020da200005003700d9
:104c5c0000db20000300370040dc2000010037009f
:104c6c0080da20008000eb0052052000b24688005c
:104c7c00a20a2000b246880001688800e1c2b30095
:104c8c000148780000cbb30005edb7000080200090
:104c9c0053052000b3468800a30a2000b3468800c1
:104cac00006888001980e8001040780011c8b30033
:104cbc00814f5000020032000068a300080032004f
:104ccc0039009000204890000080fb005043020007
:104cdc000000000011c0b3009021210001487800b1
:104cec00e6844400190278006a0042001080fb0040
:104cfc0078430200000000009904780068804400aa
:104d0c001080fb00880078002240020000000000a8
:0c4d1c004f05be004f04be000000060062
:020000040000fa
:104d28000000fa00000000000080fa000000060001
:104d38000200fa00004f7800000000007083840031
:104d480000000100614068000004e000fbff3a0039
:104d5800518384001e40780001000100000000001b
:104d68000080fa00000006001000fa0050d0bf00d2
:104d78006f406000204798002e4090000004e0003b
:104d88000b003a000000eb00000f78000500370028
:104d9800002621001e00400010407800e4ff0700b4
:104da8001e0fe8001e007800f20f5000f8ff3600d2
:104db80050c5b300deff070050d0bf00dcff07007e
:104dc8000000eb0070079800520037007e0090004a
:104dd80022f70700200798002e0090000040780076
:104de800d3ff07002e0090004800de000040780046
:104df800cfff07007e00900031f7070020079800da
:104e08002e00900000407800c9ff07002e00900097
:104e18004800de0000407800c5ff07007e009000d3
:104e28000ef70700300798007e00900024f707006f
:104e3800be0090000080500030079800be0090002f
:104e4800210798002e00900000407800b8ff070066
:104e58002e0090004800de0000407800b4ff0700f4
:104e68000000eb00200798002e009000004078001a
:104e7800afff07002e0090004800de0000407800d9
:104e8800abff070040002100900090007e019000d9
:104e9800c00020008090b9000080400040019000d0
:104ea800220798002e00900000407800a0ff07001d
:104eb8002e0090004800de00004078009cff0700ac
:104ec8007e00900030f70700004f98000e489000d1
:104ed8000004e00003003d0010c0b30094ff070089
:104ee800020037000040eb0091ff07007e019000b0
:104ef800a11d2100300020008090b90000804000f2
:104f0800104078008aff07007e0090000000e8004b
:104f1800700798007e009000e20f5000abff36004b
:104f28000000eb0070079800420037008001210064
:104f3800a00090007e019000a00020008090b900a1
:104f48000080400090417800034f980068004700b7
:104f58001080fb00610060000000e00003003200e8
:104f680010c0b30072ff0700020037000040eb00da
:104f78006fff070080012100a00090007e019000d3
:104f8800a00020008090b90000804000c000900080
:104f9800210798002e0090000040780064ff070069
:104fa8002e0090004800de000040780060ff0700f7
:104fb80080012100b00090007e019000a000200038
:104fc8008090b900008040004001900022079800be
:104fd8002e0090000040780055ff07002e0090003a
:104fe8004800de000040780051ff070080012100e2
:104ff800a00090007e019000a00020008090b900e1
:1050080000804000b0019000230798002e00900017
:105018000040780046ff07002e0090004800de00a0
:105028000040780042ff07007e0090000000e80082
:105038007007980080012100100090002040900027
:105048000080fb00fe009000810f5000b7ff3e007b
:1050580024d0bf0036ff07009f09070050079800bb
:10506800610798002e48900031ff07003e489000e5
:105078002fff07004e4890002dff07005e48900064
:105088002bff070050d0bf008040e8008141780026
:10509800020521000349780025ff0700a0cab300d4
:1050a80023ff0700000000000080fa00000006004f
:020000040000fa
:1050b800ec874700889fbe008a9fbe008c9fbe0079
:1050c8008e1f78008004780039009000d0b79f00c8
:1050d800a9009000c1b79f001900900090057800c2
:1050e800bc0020000100e000ad003200dfb69700f0
:1050f8000d00e000aa0032000b00e000a80032001a
:105108000006eb000040eb00e0ef9f00f0ef9f008f
:105118009b0037007fe89700a2c0b3000440bc00a2
:10512800dfb09700028440001800900048429000c9
:105138000482fb0080034200800078008041eb007d
:1051480008003700e60bb9000683450055c8b300d0
:1051580096cf120002003a008700780013c0b3000f
:105168008100e800878f5000f6ff39000007e9004a
:1051780004024700e622b90004874500e602b900a8
:10518800848045008180e800000378008042eb00bd
:105198000002eb002600370001057800ba86e80017
:1051a8009d0678001a8556008006eb00edb79f0033
:1051b8004240a90001003400eab79f00800f530065
:1051c80008003a000005eb001dc0b30098cf160098
:1051d8000c003a001e0590001a059000ae069000db
:1051e8000300370051bd97001a059000e1be9700f3
:1051f8008d0655000005eb004240a900010034006f
:105208000d057800efb697000d054500c80690001b
:105218008d0f550004003900840f55000100360039
:105228000a02780015c0b3000603e800e6804000d3
:10523800870f5300d8ff39000504e00001003a0049
:105248008041eb004fb09700020540009a80fb00b8
:10525800648044000108a3000b0032009000410064
:10526800e88040001100780000034000000043007f
:10527800040240004222de00840878000504e000b1
:1052880004003a0004003700100041004400980070
:105298000100370013c0b30018427800e14f5200f4
:1052a8002c003e0058479000f0ccb300804f5700c8
:1052b80028003e000304e00005003a0029009000a1
:1052c80002014000680141000009eb00220037009c
:1052d8008b0078000800780084bf9f000c3502001e
:1052e80000000000800678001a80fb000fba9700c3
:1052f8000008a300070032008d0178002a01900001
:105308008e40780004407800e04102000000000070
:10531800010037000d0078002d0598000001780085
:105328008a00780008007800d840020000000000d9
:10533800660145008040eb00920f10000200320029
:105348000009780021c0b30010c8b30000c0700085
:10535800020037002c0020000040eb00004d7800d0
:1053680011c8b30001406000efe897008140700069
:10537800e1ef9f00ffee97008d46e800fdef9f00ec
:105388001900900020409000ffe8970080cf50005f
:1053980060ff390019007800efee97000d4878009b
:1053a8000c0078004f0778004f06be004f05be007e
:0c53b8004f04be00cf00b1000000060052
:020000040000fa
:1053c4000f02b000889fbe008a9fbe008c9fbe0063
:1053d4008e1f7800e01e2100100078006400400059
:1053e40011002000828f80000209dd000281ea00a2
:1053f40010086100708f8000828f80008208dd00b9
:105404008180ea0010886000209080001080e8000d
:105414001040780011c8b300814f500002003200e0
