:020000040000fa
:080000000002040000000000f2
:020000040000fa
:04000800b00500003f
:020000040000fa
:04000c0006050000e5
:020000040000fa
:0400100026050000c1
:020000040000fa
:04001400f0050000f3
:020000040000fa
:04001800d00500000f
:020000040000fa
:04001c008a06000050
:020000040000fa
:040020004605000091
:020000040000fa
:040024008a06000048
:020000040000fa
:040028008a06000044
:020000040000fa
:04002c008a06000040
:020000040000fa
:040030008a0600003c
:020000040000fa
:040034008a06000038
:020000040000fa
:040038008a06000034
:020000040000fa
:04003c008a06000030
:020000040000fa
:040040008a0600002c
:020000040000fa
:0400440012060000a0
:020000040000fa
:040048008a06000024
:020000040000fa
:04004c008a06000020
:020000040000fa
:040050008a0600001c
:020000040000fa
:040054008a06000018
:020000040000fa
:040058008a06000014
:020000040000fa
:04005c008a06000010
:020000040000fa
:040060008a0600000c
:020000040000fa
:040064008a06000008
:020000040000fa
:040068008a06000004
:020000040000fa
:04006c008a06000000
:020000040000fa
:040070008a060000fc
:020000040000fa
:040074008a060000f8
:020000040000fa
:040078008a060000f4
:020000040000fa
:04007c008a060000f0
:020000040000fa
:040080008a060000ec
:020000040000fa
:040084008a060000e8
:020000040000fa
:040088008a060000e4
:020000040000fa
:04008c008a060000e0
:020000040000fa
:040090008a060000dc
:020000040000fa
:040094008a060000d8
:020000040000fa
:040098008a060000d4
:020000040000fa
:04009c008a060000d0
:020000040000fa
:0400a0008a060000cc
:020000040000fa
:0400a4008a060000c8
:020000040000fa
:0400a8008a060000c4
:020000040000fa
:0400ac008a060000c0
:020000040000fa
:0400b0008a060000bc
:020000040000fa
:0400b4008a060000b8
:020000040000fa
:0400b8008a060000b4
:020000040000fa
:0400bc008a060000b0
:020000040000fa
:0400c0008a060000ac
:020000040000fa
:0400c4008a060000a8
:020000040000fa
:0400c8008a060000a4
:020000040000fa
:0400cc0038060000f2
:020000040000fa
:0400d0008a0600009c
:020000040000fa
:0400d4008a06000098
:020000040000fa
:0400d8008a06000094
:020000040000fa
:0400dc00e00400003c
:020000040000fa
:0400e0008a0600008c
:020000040000fa
:0400e4008a06000088
:020000040000fa
:0400e8008a06000084
:020000040000fa
:0400ec008a06000080
:020000040000fa
:0400f0008a0600007c
:020000040000fa
:0400f4008a06000078
:020000040000fa
:0400f8008a06000074
:020000040000fa
:0400fc008a06000070
:020000040000fa
:040100008a0600006b
:020000040000fa
:040104008a06000067
:020000040000fa
:040108008a06000063
:020000040000fa
:04010c008a0600005f
:020000040000fa
:040110008a0600005b
:020000040000fa
:040114008a06000057
:020000040000fa
:040118008a06000053
:020000040000fa
:04011c008a0600004f
:020000040000fa
:040120008a0600004b
:020000040000fa
:040124008a06000047
:020000040000fa
:040128008a06000043
:020000040000fa
:04012c008a0600003f
:020000040000fa
:040130008a0600003b
:020000040000fa
:040134008a06000037
:020000040000fa
:040138008a06000033
:020000040000fa
:04013c008a0600002f
:020000040000fa
:040140008a0600002b
:020000040000fa
:040144008a06000027
:020000040000fa
:040148008a06000023
:020000040000fa
:04014c008a0600001f
:020000040000fa
:040150008a0600001b
:020000040000fa
:040154008a06000017
:020000040000fa
:040158008a06000013
:020000040000fa
:04015c008a0600000f
:020000040000fa
:040160008a0600000b
:020000040000fa
:040164008a06000007
:020000040000fa
:040168008a06000003
:020000040000fa
:04016c008a060000ff
:020000040000fa
:040170008a060000fb
:020000040000fa
:040174008a060000f7
:020000040000fa
:040178008a060000f3
:020000040000fa
:04017c008a060000ef
:020000040000fa
:040180008a060000eb
:020000040000fa
:040184008a060000e7
:020000040000fa
:040188008a060000e3
:020000040000fa
:04018c008a060000df
:020000040000fa
:040190001e04000049
:020000040000fa
:04019400a2040000c1
:020000040000fa
:040198008a060000d3
:020000040000fa
:04019c008a060000cf
:020000040000fa
:0401a0008a060000cb
:020000040000fa
:0401a4008a060000c7
:020000040000fa
:0401a8008a060000c3
:020000040000fa
:0401ac008a060000bf
:020000040000fa
:0401b0008a060000bb
:020000040000fa
:0401b4008a060000b7
:020000040000fa
:0401b8008a060000b3
:020000040000fa
:0401bc008a060000af
:020000040000fa
:0401c0008a060000ab
:020000040000fa
:0401c4008a060000a7
:020000040000fa
:0401c8008a060000a3
:020000040000fa
:0401cc008a0600009f
:020000040000fa
:0401d0008a0600009b
:020000040000fa
:0401d4008a06000097
:020000040000fa
:0401d8008a06000093
:020000040000fa
:0401dc008a0600008f
:020000040000fa
:0401e0008a0600008b
:020000040000fa
:0401e4008a06000087
:020000040000fa
:0401e8008a06000083
:020000040000fa
:0401ec008a0600007f
:020000040000fa
:0401f0008a0600007b
:020000040000fa
:0401f4008a06000077
:020000040000fa
:0401f8008a06000073
:020000040000fa
:0401fc008a0600006f
:020000040000fa
:040200008a0600006a
:020000040000fa
:040204008a06000066
:020000040000fa
:040208008a06000062
:020000040000fa
:04020c008a0600005e
:020000040000fa
:040210008a0600005a
:020000040000fa
:040214008a06000056
:020000040000fa
:040218008a06000052
:020000040000fa
:04021c008a0600004e
:020000040000fa
:040220008a0600004a
:020000040000fa
:040224008a06000046
:020000040000fa
:040228008a06000042
:020000040000fa
:04022c008a0600003e
:020000040000fa
:040230008a0600003a
:020000040000fa
:040234008a06000036
:020000040000fa
:040238008a06000032
:020000040000fa
:04023c008a0600002e
:020000040000fa
:040240008a0600002a
:020000040000fa
:040244008a06000026
:020000040000fa
:040248008a06000022
:020000040000fa
:04024c008a0600001e
:020000040000fa
:040250008a0600001a
:020000040000fa
:040254008a06000016
:020000040000fa
:040258008a06000012
:020000040000fa
:04025c008a0600000e
:020000040000fa
:040260008a0600000a
:020000040000fa
:040264008a06000006
:020000040000fa
:040268008a06000002
:020000040000fa
:04026c008a060000fe
:020000040000fa
:040270008a060000fa
:020000040000fa
:040274008a060000f6
:020000040000fa
:040278008a060000f2
:020000040000fa
:04027c008a060000ee
:020000040000fa
:040280008a060000ea
:020000040000fa
:040284008a060000e6
:020000040000fa
:040288008a060000e2
:020000040000fa
:04028c008a060000de
:020000040000fa
:040290008a060000da
:020000040000fa
:040294008a060000d6
:020000040000fa
:040298008a060000d2
:020000040000fa
:04029c008a060000ce
:020000040000fa
:0402a0008a060000ca
:020000040000fa
:0402a4008a060000c6
:020000040000fa
:0402a8008a060000c2
:020000040000fa
:0402ac008a060000be
:020000040000fa
:0402b0008a060000ba
:020000040000fa
:0402b4008a060000b6
:020000040000fa
:0402b8008a060000b2
:020000040000fa
:0402bc008a060000ae
:020000040000fa
:0402c0008a060000aa
:020000040000fa
:0402c4008a060000a6
:020000040000fa
:0402c8008a060000a2
:020000040000fa
:0402cc008a0600009e
:020000040000fa
:0402d0008a0600009a
:020000040000fa
:0402d4008a06000096
:020000040000fa
:0402d8008a06000092
:020000040000fa
:0402dc008a0600008e
:020000040000fa
:0402e0008a0600008a
:020000040000fa
:0402e4008a06000086
:020000040000fa
:0402e8008a06000082
:020000040000fa
:0402ec008a0600007e
:020000040000fa
:0402f0008a0600007a
:020000040000fa
:0402f4008a06000076
:020000040000fa
:0402f8008a06000072
:020000040000fa
:0402fc008a0600006e
:020000040000fa
:040300008a06000069
:020000040000fa
:040304008a06000065
:020000040000fa
:040308008a06000061
:020000040000fa
:04030c008a0600005d
:020000040000fa
:040310008a06000059
:020000040000fa
:040314008a06000055
:020000040000fa
:040318008a06000051
:020000040000fa
:04031c008a0600004d
:020000040000fa
:040320008a06000049
:020000040000fa
:040324008a06000045
:020000040000fa
:040328008a06000041
:020000040000fa
:04032c008a0600003d
:020000040000fa
:040330008a06000039
:020000040000fa
:040334008a06000035
:020000040000fa
:100400002f1b21000eff27000e01880000000000b6
:10041000000020000000e000020032000001200087
:1004200020028800140007003c0207000000e000e2
:1004300003003a00c0ee2200010020000200370055
:100440000000200001002000810f70000100320038
:100450000f000700000020000000e0000200320052
:100460000000020000000000303f02000000000019
:100470000040da000000fe00c01120000000e00093
:1004800002003200002020009001880000000600d9
:10049000a1028800800478000000eb001f003700f4
:1004a000e284440054a0b4009905ba00e2844400f8
:1004b00054a0b4009906ba00e284440054a0b400e9
:1004c0000006eb00476fde00fd07b200ae018800ba
:1004d000636ce10003003a000ad801000000eb0061
:1004e0000e003700606ce10008003a00004deb00a0
:1004f0000a05e800020039003420ec000af0a000f0
:100500008b05e900f9ff3e00040037006168e10057
:10051000010032000086eb000b00070019c7ba008b
:100520001905ba000e04e00003003a000a00e000da
:10053000dbff3a0000000600fe07b200ae028800b2
:100540008a047800f5ff37000cd0a300e20f4d00bd
:100550001c003b0089027800354dba000a05e8000e
:10056000020039003420ec000af0a0008b05e900fd
:100570000f003200254dba000a05e80002003900dc
:100580003420ec000af0a0008b05e90008003200de
:100590000c00e0000600320015cdba000a05e800a4
:1005a000020039003420ec000af0a0008b05e900bd
:1005b0008984e80054a0b4000b00e000e2ff3a0098
:1005c000000006009902ba00055d78008b05e9007d
:1005d000f7ff3200c82ade00055d78008b05e900d0
:1005e000f3ff32000c00e000f1ff320019ddba0029
:1005f000eeff370032240400000000006012040007
:10060000000000009412040000000000e412040046
:10061000000000008212040000000000d21204005a
:10062000000000009e120400000000005a0e0400aa
:1006300000000000720e0400000000008a0e04009a
:1006400000000000a00e040000000000c81004001c
:1006500000000000ec100400000000001a1204006a
:1006600000000000cc0e040000000000de0f0400bb
:10067000000000007e0d040000000000860d040054
:10068000000000008e0d040000000000960d040024
:10069000000000009e0d040000000000a60d0400f4
:1006a00000000000c20d040000000000ec0d04007a
:1006b00000000000200e040000000000280e0400ce
:1006c00000000000300e040000000000380e04009e
:1006d000000000004e12040000000000661204003a
:1006e00000000000e62e040000000000fa270400cd
:1006f0000000000018270400000000004827040044
:10070000000000007627040000000000822704009b
:100710000000000000280400000000008e270400f4
:1007200000000000cc26040000000000f2260400b7
:1007300000000000b827040000000000d6270400d5
:10074000000000003c290400000000005a280400ba
:10075000000000008a28040000000000b8280400ff
:1007600000000000c428040000000000422904002a
:1007700000000000d0280400000000000e28040043
:10078000000000003428040000000000fa280400e3
:100790000000000018290400000000005e1c040096
:1007a00000000000921b040000000000ec12040096
:1007b000000000000c1304000000000022130400dd
:1007c0000000000040130400000000005613040065
:1007d000000000006a130400000000008a130400f7
:1007e00000000000ac13040000000000b41304007b
:1007f00000000000bc13040000000000e21304002d
:1008000000000000fa13040000000000ba14040005
:1008100000000000d014040000000000ec140400ec
:10082000000000007e150400000000001214040007
:1008300000000000c2300400000000003600f80094
:10084000809fbe00829fbe00849fbe00869fbe0028
:100850003200f8003400f80010002000a0018800e9
:100860000020200000d0fe000000fa006b180700f6
:1008700030678400000001000080fa003400f900b5
:100880003200f9004f03be004f02be004f01be0010
:100890004f00be003600f900004006003600f800a8
:1008a000809fbe00829fbe00849fbe00869fbe00c8
:1008b0003200f8003400f80010002000a001880089
:1008c0000020200000d0fe000200fa00d08180004d
:1008d0000000e00002003200d08180000000010032
:1008e0005140800000802000008060000000e00097
:1008f0000a00320061608000010f7800e081800012
:100900000000e00004003200e28180009e007800d8
:100910000000eb00020001000b68a9000b48a900d1
:100920000080fa003400f9003200f9004f03be00e5
:100930004f02be004f01be004f00be003600f9005e
:10094000004006003600f800809fbe00829fbe0077
:10095000849fbe00869fbe003200f8003400f8007d
:1009600010002000a00188000020200000d0fe0020
:100970000200fa0061608000010f7800e0818000d1
:100980000000e00004003200e28180009e00780058
:100990000000eb00020001000b68a9000080fa00d3
:1009a0003400f9003200f9004f03be004f02be00d0
:1009b0004f01be004f00be003600f90000400600a7
:1009c0003600f800809fbe00829fbe00849fbe005c
:1009d000869fbe000000fa00908180000000e000c9
:1009e00002003200908180000000010005a8a900eb
:1009f0000080fa004f03be004f02be004f01be0050
:100a00004f00be003600f900004006003600f80036
:100a1000809fbe00829fbe00849fbe00869fbe0056
:100a20000000fa00c068a90020002000bf1c0700d9
:100a30000080fa004f03be004f02be004f01be000f
:100a40004f00be003600f900004006003600f800f6
:100a5000809fbe00829fbe00849fbe00869fbe0016
:100a60000000fa00c608a90070002000af1c0700b3
:100a70000080fa004f03be004f02be004f01be00cf
:100a80004f00be003600f900004006003600f800b6
:100a9000809fbe00829fbe00849fbe00869fbe00d6
:100aa0000000fa0020468000700060000000e000b6
:100ab00003003200c488a900a00020009b1c07008e
:100ac0002146800000042000008060000000e0005b
:100ad00003003200c4c8a900e0002000931c0700f6
:100ae0002146800000022000008060000000e0003d
:100af00003003200c4a8a900900020008b1c07004e
:100b00002146800000102000008060000000e0000e
:100b100003003200c508a900c0002000831c0700a4
:100b20002146800000202000008060000000e000de
:100b300003003200c528a900d00020007b1c07005c
:100b400020468000610060000000e00003003200e9
:100b5000c408a900b0002000741c0700ffff370084
:100b60003600f800809fbe00829fbe00849fbe00ba
:100b7000869fbe000000fa00c028a9000000eb001c
:100b80006a1c07000080fa004f03be004f02be003f
:100b90004f01be004f00be003600f90000400600c5
:100ba0003600f800809fbe00829fbe00849fbe007a
:100bb000869fbe000000fa00c088a9003000200017
:100bc0005a1c07000080fa004f03be004f02be000f
:100bd0004f01be004f00be003600f9000040060085
:100be0003600f800809fbe00829fbe00849fbe003a
:100bf000869fbe000000fa00531c0700c048a900f1
:100c000010002000491c07000080fa004f03be00be
:100c10004f02be004f01be004f00be003600f9007b
:100c2000004006003600f800809fbe00829fbe0094
:100c3000849fbe00869fbe000000fa0040828000b4
:100c40000000e0000200320040828000000001004d
:100c500000e8a9000080fa004f03be004f02be006a
:100c60004f01be004f00be003600f90000400600f4
:100c70003600f800809fbe00829fbe00849fbe00a9
:100c8000869fbe000000fa00508280000000e00055
:100c90000200320050828000000001000528a900f7
:100ca0000080fa004f03be004f02be004f01be009d
:100cb0004f00be003600f900004006003600f80084
:100cc000809fbe00829fbe00849fbe00869fbe00a4
:100cd0003200f8003400f80010002000a001880065
:100ce0000020200000d0fe000000fa00880b070062
:100cf0000080fa003400f9003200f9004f03be0012
:100d00004f02be004f01be004f00be003600f9008a
:100d1000004006000040da000000fe000000050070
:100d20006011b8007d0237006022b8000602200082
:100d30000000d0008180d2000482d2008582d200df
:100d40000000a0000202520083825a00030031001a
:100d50000202420083824a000000a1000603e9006b
:100d6000f3ff3a0000000600020ab900001bb900b8
:100d70000200b8008100420081004300000006002c
:100d8000889fbe008a9fbe008c9fbe001b00200073
:100d90000202be00058668000600280006066600fe
:100da0004709de00f20fb200820032000243e80081
:100db00080003200c729de00f30fb2007d00320050
:100dc0000343e8007b003200f107b2000170a0008d
:100dd000f507b2000570a000c708dd004903de007a
:100de000868070004700dd00c72add004923de0051
:100df000868272004722dd00030551000403500083
:100e000085835800030031000000400081804800c5
:100e10000a05e9008c1f78008a9fbe00040050007c
:100e2000858058000402420085824a00000040008c
:100e3000818048000005eb000004be006033b8006c
:100e40000406be000d48e10056003100050009000f
:100e50004dccd8000c01b8000d02b80084814100cf
:100e600060824a008283530003045c0084845c0037
:100e700060055d000a00e00025003a00800578006a
:100e80000d40e1004900310088007800070078003b
:100e9000050009004d88d8000c01b8000d02b8000b
:100ea0008481410060824a006003110083835b00fb
:100eb00004045c00e0845c000900e00021003a00ca
:100ec0004f01be000300e0002b003200e301600090
:100ed000070673008c81710001003200640070000d
:100ee0004200de004e5edd000c007000c258de00e5
:100ef00001e0a00083010700cf017800818071002c
:100f00004f06be004f05be004f04be0000000600a5
:100f10008c8343000d044c00e0844c0060054d00c0
:100f20000000e9000a00e000d4ff32008c83430097
:100f30000d044c00e0844c0060054d000000e90009
:100f4000ceff37000c0343008d834b0060044c0040
:100f5000e0844c000000e9000900e000d8ff320006
:100f60000c0343008d834b0060044c00e0844c0074
:100f70000000e900d2ff37004200de004e5edd00d7
:100f80000c007000c258de0001e0a000cf01780024
:100f90000300e000daff320060001000e08018007b
:100fa000d7ff3700f0ff2f00aaff3700f0ff2f0018
:100fb000b9ff37000404be002f0107008706780040
:100fc0000004fd008104fd002b010700078366007b
:100fd0000678a300030032000960a7000800be00e5
:100fe0002c0037000d78a300020032000800be007c
:100ff000280037000778a30026003a0001f0a1007e
:1010000009f0a1000668a30003003200f1ff2700e9
:10101000f0ff2f00baff37000d68a3000300320075
:101020000800be008c807000b5ff37000768a30081
:1010300007003a000648a30003003200f1ff270032
:10104000f0ff2f00aeff37000d48a3000300320071
:101050006000b8008c807000a9ff37000748a3002b
:101060000400320001f82700000020008c8070008e
:10107000a3ff3700760107000004fd008104fd0096
:1010800002057800720107000802be008a0178009c
:1010900059ff37000160a000120220008282880000
:1010a00097ff37000100e000120032000500e00069
:1010b00010003200889fbe008a9fbe008c9fbe0039
:1010c0000006eb0001f8a3000300320060001000ee
:1010d000e08018000cf0a00005f8a3000300320027
:1010e00060021200e0821a000cf0a2008005eb0002
:1010f00041ff37006000b80002000500038368006c
:101100000700280007036300470ade000480a100ef
:10111000c71ade000580a100f70f20000720e100bc
:10112000420032000728e10040003200889fbe00e4
:101130008a9fbe008c1f7800f107b200f307b2004f
:101140000400e000640032000170a0000500e0002f
:10115000680032000370a00085054200eb07b10073
:101160000204b8000302b8008484440060854a0089
:10117000020ab800848444000a854a00030ab800c1
:1011800004054500040033000804d0008984d2001f
:101190000a85d2008b05e9006158e1003d00350069
:1011a000021020000901610003082000898161000c
:1011b000f70720008783640008867300c84cde00b0
:1011c000c853dd00878474004855de000300e0004a
:1011d0000600320082037600040032008904e80031
:1011e00060054d000a88a3000c003a00f70f2000ac
:1011f0000758e10044003d000a70a100c75ddd0012
:101200000a8575008a007300090078004f0678008f
:101210004f05be004f04be00000006000a05d100c5
:101220008984d3008b05e800f0ff3700881f780021
:101230000604780090000700070278000001fd0016
:101240008101fd008c000700870278008503720091
:101250000778a300050032000001fd008101fd00b8
:101260009f0007004f04780000000600850372000d
:101270000748a30003003200f0ff2f00f1ff270012
:10128000f8ff37000000200001f827008880700078
:10129000f4ff3700880178004848dd008081710044
:1012a0004848de00c850dd0001007000c850de0074
:1012b000060478000b017800160007008880700093
:1012c000d2ff37000500e0000500320017002000c3
:1012d0003a0007009dff370081037000f9ff3a00d4
:1012e000860078004f0678004f05be004f04be0010
:1012f0000000050083037100f9ff32002700200081
:101300002e00070094ff370001f827008680700048
:10131000f4ff37000100e0002600320061011100f7
:101320007810e10023003c006022b8007010e1005a
:101330000400350080027800010078008000eb0096
:10134000700151000200e000090034007003110038
:10135000062add00822ade008603dd008782720015
:101360000200de00860bdd00070070008208de0050
:1013700084817100f4ff270004826200848171007f
:1013800004002800848262006102600005f0a6006b
:101390000000060004827100070032000000e8002f
:1013a000e0804800000006000002be006000b800b7
:1013b000efff37006000b80000000600889fbe0005
:1013c0000004eb006138e10016003a000100e00083
:1013d00008003a00c800de004800dd008800200058
:1013e0000100e00003003a00c800de004800dd0014
:1013f000680444008184cf00e9845400060034006e
:101400008908dd00f08314008703de008780700008
:101410000900dd0009044400610214004f04be000d
:10142000000006000300e00008003a00c811de00da
:101430004811dd00880020000300e00003003a00ae
:10144000c811de004811dd00680444008384cf0029
:10145000e9845400060034008919dd00f08314008b
:101460008713de00878171000911dd000904440043
:10147000e1021400e9ff37002700200001f0a70077
:1014800017002000470bde00f60fb2000400320008
:101490000643e8000a0032004702b30000000600dd
:1014a00001037800f607b2000603700002003a005c
:1014b0000703b300000006008702b3000000060027
:1014c00001037800f607b200060370000200320044
:1014d0000770a000000006000760a00000000600e2
:1014e0000478a300040032000578a3000300320052
:1014f0000168a30001003a000200be000160a000e4
:101500000000060081017000270032008002eb001d
:1015100001f8a3000300320060001000e080180012
:1015200015002000f40720000202420020003400d1
:10153000f703200087036000060420000003630017
:1015400002082000000161004700de00c909dd003b
:1015500000807100c708de000600e00008003200cd
:1015600087037100060032001000b0000180b00057
:101570000188a30002003200c108de000402e80076
:10158000f107b200f30f20000320e10003003d004b
:101590004722dd00810072002900370001f8270092
:1015a0000000eb00260037006000b80000000600d5
:1015b000680212007f20e100020034006000b800e1
:1015c0001f0037006011b8007020e10004003500f2
:1015d00080017800010078008000eb00700252006a
:1015e0000400e00009003400f00312000719dd00d8
:1015f0008419de000703dd00868171000400de002f
:10160000070bdd00060070008408de00f7ff2700ee
:1016100083836300870371000600280003036300cf
:10162000070032000700e00003003a00610160009b
:1016300002817300020032001000b0000180b0008f
:101640000500a6000000060001f0a0000000060052
:101650004f0ade004709de00f107b200f20fb200c8
:101660000b003200f207b1000170a000c708dd00d6
:10167000c901de00838070004700dd000400a60081
:101680000000060060001000e08018000000060066
:10169000810f700001003a00000006008182cf0037
:1016a0000500e00010003e008082cf00ee82420084
:1016b0007028e1000400390007003e008000780037
:1016c0000000eb000e003700708312008600de0081
:1016d0000500dd000a003700708352008600dd003f
:1016e0000000eb0006003700e28252008508dd00b2
:1016f000708312000603de00868070000500dd00a6
:101700007507b0000501ea000400a600000006000d
:1017100060001000e080180000000600889fbe00f6
:101720008a9fbe0000827000040271000482710072
:10173000260032000004be000200be006011b800a6
:101740006b092000950220000182cf000a003900b9
:101750000541b1000082cf00070039000541b1000a
:101760000982cf00040039000541b1000882cf0092
:10177000010039000541b10005425200120032005b
:101780000a003b0082817100610164008100d10088
:101790000080d3008984d3000884d3008b05e8003f
:1017a0000442e800f7ff3a0007003700080444004d
:1017b00089844c0000004800818048008b05e900c6
:1017c0000442e900f9ff3a00030007004f05be009c
:1017d0004f04be000000060081002000618055001b
:1017e0000b003d000b00200061fe2f000100e10016
:1017f0001d00340082817100610164008904d10000
:101800000884d3000000e800faff3a0071002000cd
:1018100061006400030070000200600009003200f3
:1018200061044400e0844c000988a50005003200f2
:101830008b05e8006808e10002003a008904d10045
:101840000884d300f20f20000258e10005003d009b
:10185000c75ddd00f907b2008980750008007800d7
:10186000000006000bf827008b0078000000050040
:101870008001eb000200e00010003200000278005e
:1018800001037800b44178000304e000080032004e
:10189000b14278000504e0000500320082034000f8
:1018a000848f53000200320085cf5100f4ff3200d4
:1018b0008381fb001680fb008081510003007800cb
:0418c000000006001e
:020000040000fa
:1018c4004c45000044310000204f00004e00000051
:1018d4004c45000044320000204f00004e00000040
:1018e4004c45000044330000204f00004e0000002f
:1018f4004c45000044340000204f00004e0000001e
:101904004c45000044350000204f00004e0000000c
:101914004c45000044310000204f000046460000c2
:10192400004c000045440000322000004f460000f7
:10193400460000004c45000044330000204f0000e6
:1019440046460000004c00004544000034200000de
:101954004f460000460000004c450000443500009e
:10196400204f0000464600000000000082120000e4
:10197400d21200009e120000000000005a0e000067
:10198400720e00008a0e0000a00e0000c8100000b5
:10199400ec1000001a120000cc0e0000de0f000054
:1019a4007e0d0000860d00008e0d0000960d0000d7
:1019b4009e0d0000a60d0000c20d0000ec0d0000fd
:1019c400200e0000280e0000300e0000380e00002b
:1019d4004e12000066120000b88c000000000000e7
:1019e40003000000320000006400000096000000c4
:1019f400c8000000fa0000002c0100005e01000095
:101a040090010000c2010000f40100002602000061
:101a1400580200008a020000bc0200000304000017
:101a2400ff2200002120000027280000432400009a
:101a340040460000476a00000c010000026b0000f1
:101a440023000000ec1200000c130000221300001d
:101a540040130000561300006a1300008a130000ac
:101a6400ac130000b4130000bc130000e213000028
:101a7400fa130000ba140000d0140000ec140000a3
:101a84007e15000012140000000000000000000099
:101a94000000000000000000000000000000000042
:101aa400182700004827000076270000822700003e
:101ab400002800008e270000cc260000f22600003b
:101ac400b8270000d6270000000000005a280000b4
:101ad4008a280000b8280000c42800004229000019
:101ae400d02800000e28000034280000fa28000046
:081af4001829000000000000a9
:020000040000fa
:101afc000000fa0001eba8000080fa0000000600cc
:101b0c000000fa0001eba9000080fa0000000600ba
:101b1c000000fa0008cba8000080fa0000000600c4
:101b2c000000fa0008cba9000080fa0000000600b3
:101b3c000200fa00000f78000080fa000000060096
:101b4c000400fa00100798000000eb00000f78006a
:101b5c001e0090000000e00003003a00616080006d
:101b6c00010f780001003700000000001e00780013
:101b7c000080fa00000006000400fa00100798002c
:101b8c000040eb00004f78001e0090000000e000c9
:101b9c000a003a008059800000800a000000000012
:101bac000080fb0000f0a7000000ea000000ea0043
:101bbc004f00de00004f78000100370000000000ed
:101bcc001e4078000080fa00000006000200fa00b7
:101bdc00000f78001e007800004078006340600021
:101bec000080fb00630060004800dd00b25e8000f6
:101bfc00f1cf2f008100610001007000b05e880001
:101c0c001e00780000407800634060000080fb00fc
:101c1c00630060004500dd0012588000f1f92f00d0
:101c2c008100610001007000105888000080fa00eb
:101c3c00000006000000fa002b48a8000080fa0003
:101c4c00000006000000fa002b48a9000080fa00f2
:101c5c00000006000000fa000b48a9000080fa0002
:101c6c00000006000200fa00000f78001e00780049
:101c7c00004078006740600067406000674060008b
:101c8c000080fb00670060004800dd0062438000bc
:101c9c00f18f2f008100610001007000604388000b
:101cac000080fa00000006000200fa00000f780025
:101cbc001e0078000000e00004003a002b68a80029
:101ccc00200ba800000000000100370000000000fd
:101cdc000080fa00000006000200fa00000f7800f5
:101cec001e0078000000e00004003a002b68a900f8
:101cfc00200ba900000000000100370000000000cc
:101d0c000080fa00000006000200fa00000f7800c4
:101d1c001e0078000000e00003003a000b68a900e8
:101d2c000000000001003700000000000080fa00f5
:101d3c00000006000400fa00000f7800110798005c
:101d4c001e0078000000e0000d003a001e0090001c
:101d5c0000407800674060000080fb006700600076
:101d6c004c00dd0062438000f1ff2800810061001f
:101d7c000100700060438800000000000100370083
:101d8c00000000000080fa00000006000000fa00cd
:101d9c00002bef000006200010588800042bef00e9
:101dac00201f200030588800082bef000000240072
:101dbc005058880010002000605888000e2bef004f
:101dcc00102bef00122bef00142bef00162bef0053
:101ddc00202bef00222bef00302bef00322bef00eb
:101dec00382bef00402bef00482bef00502bef006f
:101dfc003a2bef00422bef004a2bef00522bef0057
:101e0c003c2bef00442bef004c2bef00542bef003e
:101e1c003e2bef00462bef004e2bef00562bef0026
:101e2c00682bef006c2bef00702bef00742bef0086
:101e3c0000402000505b880000402000705b880050
:101e4c0000402000905b880000402000b05b8800c0
:101e5c00a02bef00a42bef00a82bef00ac2bef0076
:101e6c00d02bef00d22bef00201f2000a05e8800ab
:101e7c00d82bef00dc2bef00e02bef000030200024
:101e8c00b05e880000302000d05e8800003020005a
:101e9c00f05e880000302000105f8800f02bef000f
:101eac00f22bef00f82bef00fa2bef00022cef00d7
:101ebc000c2cef000e2cef00102cef00122cef006e
:101ecc00142cef00162cef00182cef001a2cef003e
:101edc001c2cef001e2cef00202cef00222cef000e
:101eec00242cef00262cef00282cef002a2cef00de
:101efc002c2cef002e2cef00302cef00322cef00ae
:101f0c00342cef00362cef00382cef003a2cef007d
:101f1c003c2cef003e2cef00402cef00422cef004d
:101f2c00442cef00462cef00482cef004a2cef001d
:101f3c000026210056010700402921006e010700f0
:101f4c00402e2100940107001160800000f0200059
:101f5c00010070001060880001eba8000000eb008d
:101f6c008800070010002000005c8800822bef0026
:101f7c00842bef00862bef00882bef008a2bef00d1
:101f8c008c2bef008e2bef00902bef00922bef00a1
:101f9c00942bef00962bef00982bef009a2bef0071
:101fac009c2bef009e2bef000080fa000000060037
:101fbc000000fa0001eba900002bef000006200046
:101fcc0010588800042bef00062bef00082bef00b5
:101fdc000a2bef000c2bef000e2bef00102bef0059
:101fec00122bef00142bef00162bef00202bef0021
:101ffc00222bef00302bef00322bef00382bef00b1
:10200c00402bef00482bef00502bef003a2bef004a
:10201c00422bef004a2bef00522bef003c2bef0032
:10202c00442bef004c2bef00542bef003e2bef001a
:10203c00462bef004e2bef00562bef00682bef00da
:10204c006c2bef00702bef00742bef006a2bef0062
:10205c006e2bef00722bef00762bef00802bef0036
:10206c00822bef00842bef00862bef00882bef00e8
:10207c008a2bef008c2bef008e2bef00902bef00b8
:10208c00922bef00942bef00962bef00982bef0088
:10209c009a2bef009c2bef009e2bef00a02bef0058
:1020ac00a42bef00a82bef00ac2bef00d02bef00f4
:1020bc00d22bef00d42bef00d82bef00dc2bef0052
:1020cc00e02bef0000302000b05e880000302000d4
:1020dc00d05e880000302000f05e880000302000c8
:1020ec00105f8800f02bef00f22bef00f82bef00c5
:1020fc00fa2bef00002cef00022cef000c2cef0061
:10210c000e2cef00102cef00122cef00142cef0013
:10211c00162cef00182cef001a2cef001c2cef00e3
:10212c001e2cef00202cef00222cef00242cef00b3
:10213c00262cef00282cef002a2cef002c2cef0083
:10214c002e2cef00302cef00322cef00342cef0053
:10215c00362cef00382cef003a2cef003c2cef0023
:10216c003e2cef00402cef00422cef00442cef00f3
:10217c00462cef00482cef004a2cef000080fa00b0
:10218c00000006000200fa00000f78001e00780024
:10219c000000e0000a003a00000ca800000000005b
:1021ac000160800000102000008060000000e00052
:1021bc00fbff32000a0ba8000000000001003700f2
:1021cc00000000000080fa00000006000000fa0089
:1021dc0000eca80000000000016080000000280056
:1021ec00008060000000e000fbff32000aeba8005a
:1021fc000080fa00000006000600fa0010079800a4
:10220c00210798000000eb00000f78001e009000e2
:10221c00e40f500036003200e40f500007003e007f
:10222c00e20f50001a003200e20f500024003e0072
:10223c00e10f50000a00320078003700e60f500022
:10224c0043003200e60f500035003900e70f500014
:10225c004b003200e80f5000550032006f00370081
:10226c002e009000e10f500003003a0040002000c7
:10227c00000f7800690037002e009000e20f50002c
:10228c0057003a0050002000000f78006300370020
:10229c002e009000e10f500003003a006000200077
:1022ac00000f78005d0037002e009000e20f500008
:1022bc004d003a0070002000000f780057003700e6
:1022cc002e009000e10f500003003a008000200027
:1022dc00000f7800510037002e009000e20f5000e4
:1022ec0043003a0090002000000f78004b003700ac
:1022fc002e009000e10f500003003a00a0002000d7
:10230c00000f7800450037002e009000e20f5000bf
:10231c0039003a00b0002000000f78003f00370071
:10232c002e009000e10f500003003a00c000200086
:10233c00000f7800390037002e009000e20f50009b
:10234c002f003a00d0002000000f78003300370037
:10235c002e009000e10f500003003a00e000200036
:10236c00000f78002d0037002e009000e20f500077
:10237c0025003a00f0002000000f780027003700fd
:10238c002e009000e10f500003003a0000012000e5
:10239c00000f7800210037002e009000e20f500053
:1023ac001b003a0010012000000f78001b003700c2
:1023bc002e009000e10f500003003a002001200095
:1023cc00000f7800150037002e009000e20f50002f
:1023dc0011003a0030012000000f78000f00370088
:1023ec00000000000d003700000000000b0037005b
:1023fc000000000009003700000000000700370053
:10240c00000000000500370000000000030037004a
:10241c000000000001003700000000001e007800e2
:10242c000080fa00000006000800fa00100798006f
:10243c002107980032079800be0090002e009000f3
:10244c006dff0700000f78001e0090000000e000f8
:10245c000c003a001e007800004078007f406000bd
:10246c000080fb007f006000025c800001fe2f00fa
:10247c008100610001007000005c88000000000019
:10248c0001003700000000000080fa000000060088
:10249c000200fa00000f78001e0078000000e00037
:1024ac00020032009e007800d18188000080fa0082
:1024bc00000006000000fa000080fa000000060090
:1024cc000000fa00514080000040200000806000b5
:1024dc000000e00006003200d08180000000e00027
:1024ec0002003200d0818000000001000b48a900de
:1024fc000080fa00000006000200fa00000f7800cd
:10250c001e0078000000e000020032009e007800ff
:10251c00e18188000080fa00000006000400fa0047
:10252c00000f7800110798000080fa0000000600e8
:10253c000400fa00100798001e0090000000e00054
:10254c000e003a0080598000610060000000e0003d
:10255c000c00320061608000010f7800e081800087
:10256c000000e00009003200e28180009e0078004b
:10257c001e00900002000100050037000000000062
:10258c0003003700000000000100370000000000cd
:10259c000080fa00000006000200fa00000f78002c
:1025ac001e0078000000e000020032009e0078005f
:1025bc00f18188000080fa00000006000200fa0099
:1025cc00000f78000080fa00000006000000fa00fe
:1025dc003825ef0000802000d0298800000820005a
:1025ec00e0298800e0022000f0298800c0a2200029
:1025fc00002a88004225ef0039e5a80038a5a8007c
:10260c003885a8000080fa00000006000000fa00df
:10261c003825ef003a25ef0000082000e02988005b
:10262c00e0022000f02988004025ef004225ef0051
:10263c000080fa00000006000000fa000000000014
:10264c00f0298000620060000000e000fcff3a000e
:10265c00e0298000620060000000e0000100320010
:10266c003c25a900202a8000004078000080fa0058
:10267c00000006000200fa00004f78000000000085
:10268c00f0298000700060000000e000fcff3a00c0
:10269c001e80fb00402a88000080fa000000060023
:1026ac000000fa00f02980006200600000f0a70032
:1026bc000000ea000000e9004f00de000040780056
:1026cc000080fa00000006000000fa00f0298000eb
:1026dc00700060000000e00007003a00c129800093
:1026ec0000022000008060000000e00002003200c8
:1026fc0010002000010037000000eb0000407800c3
:10270c000080fa00000006000000fa00e1298000b9
:10271c0000082000008060000000e000070032008c
:10272c00f129800000022000008060000000e00021
:10273c000200320010002000010037000000eb0006
:10274c00004078000080fa00000006000000fa004b
:10275c0038a5a8000080fa00000006000000fa006e
:10276c0038a5a9000080fa00000006000200fa005b
:10277c00004f78005cc5a9001e80fb006100600062
:10278c004200dd00e12a80000120a1000100700060
:10279c00e02a88001e80fb00610060004600dd001e
:1027ac00c12980000160a10001007000c0298800cf
:1027bc000080fa00000006000000fa00c02980002a
:1027cc0066800a00000000000080fb0000f0a700fb
:1027dc000000ea000000ea004f00de000040780034
:1027ec000080fa00000006000000fa00e02a8000d9
:1027fc0022800a00000000000080fb0000f0a7000f
:10280c000000ea000000ea004f00de000040780003
:10281c000080fa00000006000000fa004e30ef00c5
:10282c00e0298000680060000000e0000a0032002f
:10283c0070828000004078000004a00061406000bd
:10284c000080fb0061006000718280000100a1002b
:10285c000100700070828800e129800000042000d3
:10286c00008060000000e0000b00320070828000ed
:10287c00004078000014a000614060000080fb0064
:10288c006100600000004000718280000110a10016
:10289c000100700070828800e029800062006000f6
:1028ac000000e0000c0032007082800000407800d4
:1028bc000024a000614060000080fb00610060000b
:1028cc004200dd00718280000120a1000100700037
:1028dc00708288003c25a900e0298000610060001e
:1028ec000000e0000c003200708280000040780094
:1028fc000034a000614060000080fb0061006000bb
:10290c004300dd00718280000130a10001007000e5
:10291c00708288003c05a900e1298000000220009b
:10292c00008060000000e0000c003200708280002b
:10293c00004078000044a000614060000080fb0073
:10294c00610060004400dd00718280000140a10044
:10295c0001007000708288003ca5a9007082800084
:10296c000080fa00000006000400fa00008fbe0090
:10297c001e007800002a88001e00be004008de0001
:10298c00000078006f006000102a88000080fa00b8
:10299c00000006000400fa00102a80008000eb0002
:1029ac00008fbe001e00be00c001dd000200200032
:1029bc00002a80008000eb00001f7100019771005d
:1029cc001e00be000080fa00000006000800fa009d
:1029dc0020079800310798002e019000be0190004e
:1029ec00e005200001002000800f5100818f59006c
:1029fc000e0036002e009000be009000e00f50003c
:102a0c00e08f5800090032003b65a80038e5a900aa
:102a1c002e019000be01900000102e00515f20008e
:102a2c00bef80700008fbe00280037002e01900072
:102a3c00be0190007001200001002000800f5100a9
:102a4c00818f5900110036003b65a90038e5a800bc
:102a5c002e019000be0190004218dd00ce10de0069
:102a6c00810070004210dd000001be0000102e003d
:102a7c00515f2000a9f807000081eb008081eb007a
:102a8c00021f400003974800100037003b65a90067
:102a9c0038e5a9002e019000be0190004418dd001d
:102aac00cc10de00810070004410dd000001be007f
:102abc0000102e00515f200098f807000081eb00f9
:102acc008081eb00021f4000039748001e00780035
:102adc00002a88001e00be004008de0000007800be
:102aec006f006000102a88000080fa0000000600c9
:102afc000800fa00a7ff070020079800310798008c
:102b0c00d129800000802000008060000000e000df
:102b1c000c0032002e009000be009000e00f500020
:102b2c00e08f5800070032002e019000be0190008b
:102b3c0000102e00515f200078f80700008fbe00b7
:102b4c0020003700c12980000008200000806000b0
:102b5c000000e0000e0032002e009000be0090003d
:102b6c0061014000e08148004218dd00ce10de001b
:102b7c00810070004210dd000001be0000102e002c
:102b8c00515f200065f80700008fbe000d00370074
:102b9c002e009000be00900061014000e0814800d2
:102bac004418dd00cc10de00810070004410dd0004
:102bbc000001be0000102e00515f200057f80700e6
:102bcc00008fbe001e00be000080fa000000060050
:020000040000fa
:102bdc00f0874700889fbe008a9fbe008c9fbe0076
:102bec008e1f780080057800bb01900013009000c8
:102bfc00a30090009306780043029000d30290004b
:102c0c00330690000c00e00007003a0003c2b3004a
:102c1c0032092100034978002ac0b300c8ff2f00f5
:102c2c007900200066003700e10f560007003a00db
:102c3c0003c2b30032092100034978002ac0b30053
:102c4c00c8ff2f00f90f20005d003700e20f56007f
:102c5c000d003a0003c2b300320921000349780089
:102c6c0073c2b300d21621000349780033c0b300fd
:102c7c00e2162100034978004ac0b30008ff2f0078
:102c8c00f9cf20004e003700e30f560007003a0042
:102c9c0003c2b30032092100034978004ac0b300d3
:102cac0008ff2f00f97f2c0045003700e40f560079
:102cbc0007003a0003c2b30032092100034978002f
:102ccc000045eb00f8ff2f00090020003c00370006
:102cdc00e50f560013003a0003c2b300320921007d
:102cec000349780073c4b300a2152100034978008e
:102cfc0013c0b300321621000349780043c2b3005d
:102d0c00421621000349780063c4b3006216210007
:102d1c00034978000045eb00f8ff2f00f97c2c00ec
:102d2c002700370066015600e10f510013003e00ea
:102d3c0003c2b300320921000349780013c0b30069
:102d4c00421521000349780023c0b300521521001d
:102d5c000349780073c2b300c215210003497800ff
:102d6c0073c4b30022162100034978000045eb0020
:102d7c00f8ff2f000900200011003700a2f72f00e8
:102d8c000c01410023002000e10f5100da003e004d
:102d9c0033c1b3003209210003497800f2d0280076
:102dac002315210026d22800d2697800860f510005
:102dbc00fdff3a003ac0b30088ff2f0079002000d5
:102dcc00a0b79f00b1b79f00c4b79f00d5b79f00b5
:102ddc00343e020000000000230020002fb09700ba
:102dec00bfb097004fb29700dfb29700e00f5000d2
:102dfc00e08f5800c0003200e38f560006003a0006
:102e0c000401be000a39020000000000ce3e0200a0
:102e1c0000000000bf003700e48f560009003a00a4
:102e2c0064065600e10f5600b3003e000401be00dc
:102e3c000a39020000000000023d02000000000000
:102e4c00b4003700e28f56000a003a0064065600c0
:102e5c008d017800e10f5600a70036000401be007a
:102e6c00bc38020000000000e83e02000000000038
:102e7c00a8003700e18f56000b003a00f2ff230048
:102e8c00e50f560003003a00a3b02000930961003f
:102e9c00a0003700545880000401610002e0a0003b
:102eac00525888009b0037000d00e0000c003a00df
:102ebc00e50f56009000320023588000f307b20053
:102ecc00038141008001eb00940602000000000029
:102edc00f2ff2300a5b02000950a61008d00370099
:102eec00e58f560084003a00e50f560082003a0048
:102efc00f2ff2300565880000601610002e0a0009a
:102f0c0052588800830037000241e8008100d1004c
:102f1c000080d30004082f00a52f2000840f500040
:102f2c00858f5800f8ff3e009b01780093017800d4
:102f3c0083bf9f006066b8008041eb000c00370037
:102f4c00ec22b9001b039000040743002e039000f1
:102f5c00be0390003e027300ae827300e4b79f0084
:102f6c00f5b79f0004067600858676008341e8005d
:102f7c000382fb008fbb9700870f5200f0ff3900d4
:102f8c000884ea008984ea008d8264000c026400e3
:102f9c0023002000e00f5200e08f5a0056003a0048
:102fac00f203b2004811dd00f30f2c0054588000de
:102fbc00848161008301710053588800022424002d
:102fcc00f300200094060200000000008000d100f5
:102fdc00c184880002003a0010002000c0848800e0
:102fec00c084800052002000050009000280d80037
:102ffc00a0848800523f0200000000009b0578006e
:10300c006480450010407800674060004800dd0097
:10301c00f18f2f0065438000858060008100700077
:10302c00614388002b48a800a3092100620a2100f3
:10303c00210b21000000eb0064e0200084294000fb
:10304c0024e020000429400004e0200084284000f3
:10305c007c004000840a2000840f5000f6ff3a00e8
:10306c00210037000a407800fe3e020000000000fc
:10307c008a80fb000c01be008100e90003003300d4
:10308c008301d1000281d300fbff37000208a300ab
:10309c001400320075820a00000000000201410099
:1030ac00810a210082804000910078006f0060004e
:1030bc00130020000018dd000082ea009108620075
:1030cc00c3092100828141009301780093096200b9
:1030dc0091087000410b21000281400092007800a1
:1030ec00910870000a45e80030092100904f550006
:1030fc00dcff39008001eb00030078004f077800fb
:10310c004f06be004f05be004f04be000f01b100bc
:0c311c00000006000041eb007eff3700c1
:020000040000fa
:10312800889fbe008a9fbe008c9fbe008e1f7800bd
:1031380080047800b00020000900e000330132006c
:103148008006eb000d0778008045eb000b46780001
:1031580008013700e675b900648044009000450016
:1031680011019000124178007e4161000200320096
:1031780013c0b300834878001004450098407800d5
:10318800e4cf50006800320006003e00e2cf500055
:103198001600320030003e00e1cf5000f3003a0044
:1031a8000900370052c8b30082cf50007d003200ba
:1031b80063c8b30083cf5000a1003200e7cf5000ae
:1031c800ea003a00c7003700014678000204e00030
:1031d800e6003a0021c0b300014c78001005450014
:1031e80080c0b30010459800e000370018409000f8
:1031f8000004e000150032008880e8006404440000
:10320800e44f5000030036001180e800100c7800ed
:1032180009003700180078009180e80091007800d4
:10322800810f50000400320002003600000ce90053
:1032380001003700000ce800290090000a05400052
:103248005a40e900004d78002000370030c0b30034
:10325800004c7800c5003700a800900018019000c5
:1032680012019000828f5000c00032006682440034
:10327800828f50001700360089017800d302780049
:1032880082805000148146001281fb005542900054
:103298000482fb000492de000482fb00848f50004d
:1032a800b2003900c54090000104e000af003200d0
:1032b80071c0b300014c78001005450093017800f7
:1032c8006480410010407800104598001cc0b3008d
:1032d800a600370014804600810051009081fb0051
:1032e800838f5000a1003900204090000004e000c6
:1032f800060032008e00780009007800de360200f1
:10330800000000000004e00098003a0040c0b3004c
:10331800004c7800290090000a0540001900900030
:1033280020409000e8ff37002801900098009000a6
:1033380091019000830f510087003e00b900900072
:103348008d804000028151001182fb00840f5100e2
:1033580081003600214090000004e00006003200a1
:103368008e00780009007800de36020000000000b8
:103378000004e0007d003a0008007800d0407800a2
:103388000104e000020032000148e900cfff3700e5
:1033980050c8b300004c7800290090000a0540008e
:1033a8004000370089007800990178006481410065
:1033b80051027800e80142001349780010014500e5
:1033c800a20290009201900013039000868f520091
:1033d8000700360063c8b3000349780010054500ac
:1033e8001180e80010407800104598003a00370036
:1033f800b90190008d814100334278008483fb003d
:103408009381fb008301e80083b9de008502530045
:10341800034252000482fb001bc0b300848f520099
:1034280052003e0063c8b300034978001005450008
:103438001180e800104078001045980027003700f8
:10344800280290009800900091029000850f520089
:103458000600360008007800d04078000104e0003b
:10346800180032000148e90018003700b900900040
:103478008d804000b14178000383fb009180fb0000
:103488008100e80081b0de000482520081c1510051
:103498008381fb00830f520006003600024c78003f
:1034a8001005450019009000304090001045980024
:1034b8000600370008007800d04078000104e000da
:1034c80004003a0030c0b300004c78001bc0b300c1
:1034d800260037000148e9001bc0b3000b467800fe
:1034e8002200370028019000980090009100900079
:1034f800810f5100180036008100510039019000f9
:103508000d0141001281fb0099019000d341900008
:103518008381fb008391de008381fb00838f500051
:103528000d00390088007800514178000204e0005d
:1035380007003a0011c0b300014c7800100545009f
:103548001a00900031c0b300014878000700370026
:103558008248e9005dff370031c0b300014c7800b4
:10356800100545000a05e800004deb000e07e800cd
:10357800e386460019009000900f5700f5fe3900c9
:10358800190078001004e00005003d0009007800eb
:10359800ae3c020000000000190078001074a10081
:1035a8000c04e0000f003200090078005001780098
:1035b800e90041001104e0000a0032009900780097
:1035c8001174a000100078006900400013c0b30017
:1035d80090cf110003003a000900780094350200ea
:1035e80000000000190078000b04e00002003a0017
:1035f8001004a1000100370010c875000900780008
:10360800d8220200000000000000eb004f077800fd
:103618004f06be004f05be004f04be000000060066
:020000040000fa
:103628000400fa000000eb001007980000002100d9
:10363800ad0d0700100798001e0090000000e00084
:103648000300320000c8b3003d0007003000370017
:10365800e0112100f9110700100798000000eb00a5
:10366800000f78000d0037009e0078000000210050
:103678009d1107009e00900001007000100798003f
:103688009e00780000002100f81107009e009000bd
:1036980001007000100798001e0fe8001e00780057
:1036a800e20f5000f0ff36000000eb00000f78003a
:1036b8000f0037001e007800e600b900800078008f
:1036c80040122100808040001e00780000407800f1
:1036d8000101780080407800800021002a1107004d
:1036e8009e00900001007000100798001e0fe8006f
:1036f8001e007800e20f5000eeff36004001210066
:103708009f0f07009e0090000100700010079800ae
:103718001e0090000080fa00000006000000fa0079
:1037280010c0b3001df0b7000080fa0000000600ca
:103738000000fa00100207000080fa0000000600ee
:103748000200fa00004f78001f70ef001e4078005a
:103758000004e00003003d0010c0b3001ff0b700f4
:10376800090037009e80fb000004200000806000f4
:103778000000e000040032009e4078006fc0600046
:1037880000c0e8001ff0b700fb0107000080fa0046
:10379800000006000000fa00706b840000000100c1
:1037a800d16b8400e0c5210001000100606b84003a
:1037b800000001000080fa00000006000000fa0086
:1037c800f4ff070096ff0700db0107000080fa00fe
:1037d800000006000200fa001cd0bf00e14f5000b4
:1037e8000b003a0021b92100000021001f0b07003f
:1037f800000f78001e0078000000e00002003a0088
:103808001c70ef000200370010c8b300ccff07009f
:103818001dd0bf00e14f500024003a001d70ef009a
:10382800c70d0700000f78001e0078000000e000b8
:1038380011003a008000210039fe0700000f7800cf
:103848001e0078000000e0000200320010c0b30043
:10385800bbff07004001210090020700000f78001d
:103868001e0078000000e0000500320020c0b30010
:10387800b3ff0700020037000040eb00b0ff07006d
:103888008000210010007800104078000004e0005b
:1038980003003d0010c0b3001cf0b7000200370061
:1038a80010c0b3001ef0b700a1ff07000080fa00a7
:1038b800000006000000fa00508180000000e800c7
:1038c8005081880050818000f30f500005003600b9
:1038d8002a30ef0010c0b3001cf0b70040012000f0
:1038e800671107000080fa00000006000200fa00d5
:1038f800000f78001e007800e600b9008080e8001c
:103908004012210000804000100078000080fa007a
:10391800000006000400fa00000f78001107980064
:103928001e007800e600b9008000780060122100cf
:10393800008040009e009000010878000080fa0096
:10394800000006000200fa00000f78001e00780050
:10395800e600b900e4004000601321000080400048
:10396800100078000080fa00000006000400fa0049
:10397800000f7800110798001e007800e600b900d3
:1039880080007800a0132100008040009e00900075
:10399800010878000080fa00000006000200fa0022
:1039a800000f78001e007800e600b900e40040002f
:1039b8004012210000804000100078000080fa00ca
:1039c800000006000400fa00000f780011079800b4
:1039d8001e007800e600b9008000780080122100ff
:1039e800008040009e009000010878000080fa00e6
:1039f800000006000200fa00000f78008000210095
:103a0800a00090001e007800e600b9000080400089
:103a1800104078000080fa00000006000200fa005a
:103a2800000f78001e007800e300b900a110210003
:103a380000804000104078000080fa000000060076
:103a48000400fa00000f7800214798008000210048
:103a5800a00090001e007800e600b9000080400039
:103a6800ae409000014878000080fa00000006008f
:103a78000200fa00000f78009e0078000000210084
:103a8800fa1007001e007800e600b90080007800f0
:103a980040122100808040001e007800004078001d
:103aa800010178008040780080002100361007006e
:103ab8000080fa00000006000200fa00000f7800fb
:103ac80040012100a00090001e007800ea00b90023
:103ad80000804000104078000080fa0000000600d6
:103ae8000200fa00000f780040012100a0009000b9
:103af8001e007800ea00b900008040003000900005
:083b08000080fa000000060035
:020000040000fa
:103b1000400521001081fb008001eb000280fb00ca
:103b200000004000c1c0200001004000ff0f510014
:103b3000e08f590000013e00020601001f0037001f
:103b4000250037002b0037003100370037003700e1
:103b50003d00370043003700490037004f00370071
:103b6000550037005b003700610037006700370001
:103b70006d00370073003700790037007f00370091
:103b8000850037008b003700910037009700370021
:103b90009d003700a3003700a9003700af003700b1
:103ba000b5003700bb003700c1003700c700370041
:103bb000cd003700d3003700d9003700300bab0001
:103bc0000300320010007800b18280000100010083
:103bd0000b68a900d8003700302bab00030032007f
:103be00010007800b1828000010001000b88a9005c
:103bf000d1003700304bab000300320010007800da
:103c0000b1828000010001000ba8a900ca003700a2
:103c1000306bab000300320010007800b1828000ee
:103c2000010001000bc8a900c3003700308bab00b6
:103c30000300320010007800b18280000100010012
:103c40000be8a900bc00370030abab00030032002a
:103c500010007800b1828000010001000c08a9006a
:103c6000b500370030cbab00030032001000780005
:103c7000b1828000010001000c28a900ae003700cd
:103c800030ebab000300320010007800b1828000fe
:103c9000010001000c48a900a7003700310bab0060
:103ca0000300320010007800b182800001000100a2
:103cb0000c68a900a0003700312bab0003003200d4
:103cc00010007800b1828000010001000c88a9007a
:103cd00099003700314bab00030032001000780030
:103ce000b1828000010001000ca8a90092003700f9
:103cf000316bab000300320010007800b18280000d
:103d0000010001000cc8a9008b003700318bab000b
:103d10000300320010007800b18280000100010031
:103d20000ce8a9008400370031abab00030032007f
:103d300010007800b1828000010001000d08a90088
:103d40007d00370031cbab0003003200100078005b
:103d5000b1828000010001000d28a9007600370023
:103d6000300be20003003d0010007800b1828000bb
:103d7000010001000d48a9006f003700320bab00b5
:103d80000300320010007800b182800001000100c1
:103d90000d68a90068003700322bab000300320029
:103da00010007800b1828000010001000d88a90098
:103db00061003700324bab00030032001000780086
:103dc000b1828000010001000da8a9005a0037004f
:103dd000326bab000300320010007800b18280002b
:103de000010001000dc8a90053003700328bab0061
:103df0000300320010007800b18280000100010051
:103e00000de8a9004c00370032abab0003003200d4
:103e100010007800b1828000010001000e08a900a6
:103e20004500370032cbab000300320010007800b1
:103e3000b1828000010001000e28a9003e00370079
:103e400032ebab000300320010007800b18280003a
:103e5000010001000e48a90037003700330bab000a
:103e60000300320010007800b182800001000100e0
:103e70001808a90030003700332bab0003003200d4
:103e800010007800b1828000010001001828a9000c
:103e900029003700334bab000300320010007800dc
:103ea000b18280000100010012e8a9002200370061
:103eb000336bab000300320010007800b182800049
:103ec000010001001228a9001b003700338bab0052
:103ed0000300320010007800b18280000100010070
:103ee0001248a9001400370033abab0003003200c6
:103ef00010007800b1828000010001001268a90062
:103f00000d00370033cbab00030032001000780007
:103f1000b1828000010001001288a900060037006c
:103f2000320be20003003d0010007800b1828000f7
:103f30000100010011a8a9000b48a900000006001b
:020000040000fa
:103f40000000fa000080fa00000006000200fa00fb
:103f5000004f78000000000070698400000001003c
:103f60000004a2000004e000fbff3a005169840055
:103f70001e407800010001000080fa0000000600e9
:103f80001000fa00881f78004cd0bf006f4060001e
:103f9000204798002e4090000004e0000b003a00fb
:103fa0000000eb00000f78000500370040192100e9
:103fb0001e00400010407800e4ff07001e0fe800dc
:103fc0001e007800f20f5000f8ff360050c5b30015
:103fd000deff07004cd0bf00dcff07000000eb0055
:103fe000700798004b0037007e00900041fe0700ec
:103ff000200798002e00900000407800d3ff0700b3
:104000002e0090004800de0000407800cfff07003f
:104010007e0090004dfe0700200798002e009000c3
:1040200000407800c9ff07002e0090004800de0025
:1040300000407800c5ff07007e0090002dfe0700bd
:10404000300798003e0490007e0090003ffe07007d
:104050000000540030079800be009000210798002f
:104060002e00900000407800b8ff07002e0090005e
:104070004800de0000407800b4ff07000000eb00bd
:10408000200798002e00900000407800afff070046
:104090002e0090004800de0000407800abff0700d3
:1040a00000002100900090007e009000ec00b9001c
:1040b0000080400080489000014f98000e4890001a
:1040c000a2ff07007e0090004cfe0700004f980002
:1040d0000e4890000004e00003003d0010c0b30053
:1040e0009aff0700020037000040eb0097ff07002f
:1040f0007e009000e300b900a11021000080400084
:104100001040780091ff07007e0090000000e8005a
:10411000700798007e009000e20f5000b2ff36005a
:104120000000eb00700798003f00370040012100bd
:10413000a00090007e009000ea00b90000804000de
:1041400090407800014f98000e4890000080fb00de
:1041500061006000004078000004e00003003200cd
:1041600010c0b30079ff0700020037000040eb00e9
:1041700076ff070040012100a00090007e00900023
:10418000ea00b90000804000c000900021079800bc
:104190002e009000004078006cff07002e00900079
:1041a0004800de000040780068ff07004001210061
:1041b000b00090007e009000ea00b900008040004e
:1041c000c0009000210798002e0090000040780069
:1041d0005eff07002e0090004800de0000407800df
:1041e0005aff070040012100a00090007e009000cf
:1041f000ea00b90000804000b0009000210798005c
:104200002e0090000040780050ff07002e00900024
:104210004800de00004078004cff07007e00900060
:104220000000e80070079800400121001000900095
:10423000204090008080fb007e009000808f500026
:10424000baff3e001fd0bf0040ff0700d2090700a1
:1042500050079800610798002e4890003bff070028
:104260003e48900039ff07004e48900037ff070096
:104270005e48900035ff07004cd0bf0080407800ba
:104280000040e8004cf0b700014078002fff070025
:10429000a0cab3002dff07004f0478000080fa0089
:0442a0000000060014
:020000040000fa
:1042a400ec874700889fbe008a9fbe008c9fbe009b
:1042b4008e1f78008004780039009000d0b79f00ea
:1042c400a9009000c1b79f001900900090057800e4
:1042d400bc0020000100e000ad003200dfb6970012
:1042e4000d00e000aa0032000b00e000a80032003c
:1042f4000006eb000040eb00e0ef9f00f0ef9f00b2
:104304009b0037007fe89700a2c0b3000440bc00c4
:10431400dfb09700028440001800900048429000eb
:104324000482fb0080034200800078008041eb009f
:1043340008003700e60bb9000683450055c8b300f2
:1043440096cf120002003a008700780013c0b30031
:104354008100e800878f5000f6ff39000007e9006c
:1043640004024700e622b90004874500e602b900ca
:10437400848045008180e800000378008042eb00df
:104384000002eb002600370001057800ba86e80039
:104394009d0678001a8556008006eb00edb79f0055
:1043a4004240a90001003400eab79f00800f530087
:1043b40008003a000005eb001dc0b30098cf1600ba
:1043c4000c003a001e0590001a059000ae069000fd
:1043d4000300370051bd97001a059000e1be970015
:1043e4008d0655000005eb004240a9000100340091
:1043f4000d057800efb697000d054500c80690003e
:104404008d0f550004003900840f5500010036005b
:104414000a02780015c0b3000603e800e6804000f5
:10442400870f5300d8ff39000504e00001003a006b
:104434008041eb004fb09700020540009a80fb00da
:10444400648044000108a3000b0032009000410086
:10445400e8804000110078000003400000004300a1
:10446400040240004222de00840878000504e000d3
:1044740004003a0004003700100041004400980092
:104484000100370013c0b30018427800e14f520016
:104494002c003e0058479000f0ccb300804f5700ea
:1044a40028003e000304e00005003a0029009000c3
:1044b40002014000680141000009eb0022003700be
:1044c4008b0078000800780084bf9f008e2a0200c9
:1044d40000000000800678001a80fb000fba9700e5
:1044e4000008a300070032008d0178002a01900023
:1044f4008e40780004407800463b02000000000033
:10450400010037000d0078002d05980000017800a7
:104514008a007800080078007e3a0200000000005b
:10452400660145008040eb00920f1000020032004b
:104534000009780021c0b30010c8b30000c07000a7
:10454400020037002c0020000040eb00004d7800f2
:1045540011c8b30001406000efe89700814070008b
:10456400e1ef9f00ffee97008d46e800fdef9f000e
:104574001900900020409000ffe8970080cf500081
:1045840060ff390019007800efee97000d487800bd
:104594000c0078004f0778004f06be004f05be00a0
:0c45a4004f04be00cf00b1000000060074
:020000040000fa
:1045b000881f7800828d80009080e800910178004b
:1045c000810c200083804000810f510002003600e2
:1045d000830051009e0037008000eb00830f5100e4
:1045e0009b0031008380ea0082804000820c200022
:1045f000828f500096003e008000eb009400370050
:10460000810cb1001001780082017800850c200037
:104610005382420084097800e4014100134278008b
:104620000404e0004e003a00650141009241780028
:104630000304e000010032000349e9009001780022
:1046400066814100924178000304e00001003200dd
:104650000349e90090019000634190000204e000ea
:104660001d00320010027800650142001204e000d3
:1046700019003a00930378000001eb0010003700a6
:10468000e612b900a0029000048242009442780031
:10469000e3cf520002003200e8cf520007003a0098
:1046a000e402420015037800140290001402900006
:1046b000840f530001003100860ae8000201e8007f
:1046c000870f5100eeff39009002780065814200ab
:1046d000e3419000034978009001900073419000fd
:1046e0000204e0001f003200100278006601420060
:1046f0001204e0001b003a00930378000001eb0075
:1047000010003700e612b900a002900004824200b7
:1047100094427800e3cf520002003200e8cf52000a
:1047200007003a00e40242001503780014029000ea
:1047300014029000840f530001003600860ae9003d
:104740000201e800870f5100eeff39009002780067
:1047500066814200f3419000034978000100370070
:104760008449e90010019000324190000204e00009
:10477000370032000001eb0032003700e613b900c9
:10478000e40240009501430054c8b300934f120067
:104790002b003a0003027800d44378000704e000bd
:1047a00002003200074ae9002500370014c0b300b8
:1047b00084497800150343009601900034c0b3008b
:1047c00084497800b0019000e312b900848141006f
:1047d000234290008001eb000404e00015003a0041
:1047e00017003700b0029000e31bb9008682420038
:1047f000a5429000854f52000d003a00e61bb9001b
:10480000e402400095034300170490001884fb0065
:104810000808a3000600320018c0b300884b7800d7
:10482000150343009602900036c0b300864a780014
:104830008301e80090029000958f5100e9ff390054
:104840000201e80090019000930f5100cbff390066
:10485000820c2000828f500069ff3e004f047800d8
:04486000000006004e
:020000040000fa
:104864000000fa00c06a8400000001004170ef00fb
:10487400020007000080fa00000006000200fa00af
:104884000040eb00004f7800060037001e80fb005c
:10489400811a2100008040008040eb00014878002c
:1048a4001e4fe8001e407800e74f5000f7ff360027
:1048b4000080fa00000006000000fa00216b84006a
:1048c400204322000100010020698400000001004f
:1048d4000080fa00000006000200fa00606984000b
:1048e400000001000004e000170032004069840069
:1048f40000000100004f78001e407800ed4f50008a
:104904000e00320041d0bf00e84f50000b003e00c3
:10491400b06a84000000010041d0bf000080fb00a9
:10492400811a2100008040001e48780041d0bf0059
:104934000040e80041f0b700030037004170ef0089
:1049440010c0b30040f0b70040d0bf000004e00046
:104954005f0032004070ef00801a210072002000d6
:1049640021c62800c1f307000000e00003003a005c
:10497400200020001082880053003700801a210094
:1049840072002000a1c62800b8f307000000e00070
:1049940003003a0040002000108288004a003700db
:1049a400801a21007200200021c72800aff30700fd
:1049b4000000e00003003a0060002000108288003c
:1049c40041003700801a210072002000a1c728008e
:1049d400a6f307000000e00003003a008000200076
:1049e4001082880038003700801a210072002000ed
:1049f40021c828009df307000000e00003003a00ee
:104a0400a0002000108288002f003700801a2100a7
:104a140082002000a1c8280094f307000000e000f1
:104a240003003a003000200010828800260037007e
:104a3400801a21008200200031c928008bf307006e
:104a44000000e00003003a005000200010828800bb
:104a54001d003700801a210082002000c1c92800ef
:104a640082f307000000e00003003a007000200019
:104a74001082880014003700801a21008200200070
:104a840051ca280079f307000000e00003003a004f
:104a940090002000108288000b003700801a21004b
:104aa40082002000e1ca280070f307000000e00043
:104ab40003003a00b0002000108288000200370092
:104ac40010002000108288006cff070001003700ee
:104ad4004230ef000080fa00000006000000fa00f7
:104ae40041d0bf000080fb000000ea004f00de0060
:104af400004078000080fa00000006000000fa0080
:104b0400108280000080fa00000006000000fa0015
:104b1400980007000080fa00000006000200fa0076
:104b2400000f78001e007800e20f500010003200e1
:104b3400e20f500005003e000000e00008003200d3
:104b4400e10f5000080032000f003700e30f50005f
:104b540009003200e40f5000090032000a00370057
:104b640076cea8000800370076eea80006003700cd
:104b7400770ea80004003700772ea8000200370043
:104b8400936ea800000000000080fa0000000600f8
:104b94000200fa00000f78001e007800e20f5000b7
:104ba40026003200e20f500005003e000000e00045
:104bb40008003200e10f50001300320046003700b5
:104bc400e30f50002a003200e40f50003500320099
:104bd40041003700b073800066800a0000000000c6
:104be4000004a200614060000080fb0061006000de
:104bf4004600dd00b17380000160a1000100700077
:104c0400b073880034003700b073800077800a00e6
:104c1400000000000004a200614060000080fb006e
:104c2400610060004700dd00b17380000170a100e5
:104c340001007000b073880027003700b073800053
:104c440088800a00000000000004a20061406000a7
:104c54000080fb00610060004800dd00b17380004b
:104c64000180a10001007000b07388001a003700b1
:104c7400b073800099800a00000000000004a200c4
:104c8400614060000080fb00610060004900dd00bd
:104c9400b17380000190a10001007000b07388001e
:104ca4000d00370090748000bb800a0000000000f3
:104cb4000004a200614060000080fb00610060000d
:104cc4004b00dd009174800001b0a1000100700070
:104cd40090748800000000000080fa0000000600c4
:104ce4000200fa00000f78001e007800e20f500066
:104cf40010003200e20f500005003e000000e0000a
:104d040008003200e10f5000080032000f003700a5
:104d1400e30f500009003200e40f50000900320094
:104d24000a00370076cea9000800370076eea90005
:104d340006003700770ea90004003700772ea9007b
:104d440002003700936ea900000000000080fa0002
:104d5400000006000000fa0076cea80076eea80057
:104d6400770ea800772ea800936ea8000080fa00a2
:104d7400000006000000fa0076cea90076eea90035
:104d8400770ea900772ea900936ea9000080fa007f
:104d9400000006000000fa00814a800000022000a2
:104da400008060000000e00009003200304b800009
:104db4008000eb00c001dd0002002000204b8000d9
:104dc4008000eb0000007100818071000200370058
:104dd400204b80008000eb000080fa0000000600f9
:104de4000000fa00814a8000000220000080600078
:104df4000000e00009003200104b80008000eb004e
:104e0400c001dd0002002000004b80008000eb00a8
:104e1400000071008180710002003700004b8000a7
:104e24008000eb000080fa00000006000000fa0099
:104e340000022000804a88005229ef005429ef0024
:104e44005629ef005a29ef005c29ef006029ef0092
:104e54006229ef00f04f2600204b8800d0dc2100af
:104e6400304b88006829ef006c29ef007029ef00af
:104e74007229ef00a07f22004b00070000e8a90080
:104e840020e8a8000080fa00000006000000fa00f4
:104e940051e9a90000e8a90020e8a9005029ef0081
:104ea4005229ef005429ef0000102000b04a880076
:104eb4005a29ef005c29ef006029ef006229ef0016
:104ec4000080eb00204b88000080eb00304b880012
:104ed4006829ef006c29ef007029ef007229ef00b8
:104ee4000080fa00000006000000fa0000e8a900b3
:104ef40020e8a80051e9a8000080fa00000006009c
:104f04000000fa0051e9a90000e8a90020e8a9007e
:104f14000080fa00000006000400fa00008fbe00c2
:104f2400f0ff2f00010020001e01be00800f510081
:104f3400818f5900080036001e007800204b88003d
:104f44001e00be004008de0000007800304b8800e0
:104f540050a9a800030037001e007800204b8800e9
:104f640050a9a9000080fa00000006000200fa001f
:104f7400000f78001e007800004078006740600051
:104f84000080fb00670060004c00dd0012428000de
:104f9400f1ff2800810061000100700010428800c8
:104fa4000080fa00000006000200fa00000f7800fa
:104fb4001e0078000000e000020032009e0078002d
:104fc400418288000080fa00000006000200fa0016
:104fd400000f78001e0078000000e000020032009c
:104fe4001e007800408288000080fa00000006005d
:104ff4000000fa000080fa00000006000200fa0037
:10500400000f78009e007800214b880050a9a90069
:105014000080fa00000006000000fa00e14d800064
:1050240000022000008060000000e000090032005f
:10503400904e80008000eb00c001dd0002002000e3
:10504400804e80008000eb000000710081807100c0
:1050540002003700804e80008000eb000080fa00e0
:10506400000006000000fa00e14d8000000220006c
:10507400008060000000e00009003200704e8000f3
:105084008000eb00c001dd0002002000604e8000c3
:105094008000eb0000007100818071000200370085
:1050a400604e80008000eb000080fa0000000600e3
:1050b4000000fa0000042000e04d8800be29ef0043
:1050c400c029ef00c229ef00c629ef00c829ef006c
:1050d400cc29ef00ce29ef00701a2600804e8800fc
:1050e400d229ef00d429ef00d829ef00dc29ef0002
:1050f400de29ef00c09322004c0007000528a90018
:105104002528a800bde9a8000080fa0000000600d8
:105114000000fa00bde9a9000528a9002528a90076
:10512400bc29ef00be29ef00c029ef0000102000c9
:10513400104e8800c629ef00c829ef00cc29ef00e3
:10514400ce29ef000080eb00804e88000080eb0049
:10515400904e8800d429ef00d829ef00dc29ef0015
:10516400de29ef000080fa00000006000000fa00cb
:105174000528a9002528a800bde9a8000080fa0098
:10518400000006000000fa00bde9a9000528a900f6
:105194002528a9000080fa00000006000400fa0097
:1051a400008fbe00f0ff2f00010020001e01be0092
:1051b400800f5100818f5900080036001e007800ce
:1051c400804e88001e00be004008de00000078000b
:1051d400904e8800bca9a800030037001e00780088
:1051e400804e8800bca9a9000080fa0000000600d7
:1051f4000200fa00000f78001e00780000407800da
:10520400674060000080fb00670060004400dd0030
:10521400a2428000f1f82f008100610001007000bb
:10522400a04288000080fa00000006000200fa0094
:10523400000f78001e0078000000e0000200320039
:105244009e007800518288000080fa000000060069
:105254000200fa00000f78001e0078000000e00051
:10526400020032001e007800508288000080fa009c
:10527400000006000000fa000080fa0000000600aa
:105284000200fa00000f78009e007800814e88002a
:10529400bca9a9000080fa00000006000000fa0082
:1052a40085fd070019fe0700a00507005a06070040
:1052b4000080fa00000006000000fa000400070065
:1052c4004b0007004f0007000080fa0000000600b2
:1052d4000000fa007b06070057060700e20f5000a3
:1052e40013003200e20f500005003e000000e00011
:1052f40037003200e10f5000080032003a00370056
:10530400e40f50001a003200e40f50000f0039007f
:10531400e50f5000210032003300370095fe0700ee
:105324000000eb00fdfd07004430ef002e003700c5
:1053340090fe07000000eb00f8fd070010002000bd
:10534400f6fd07004430ef002700370089fe070010
:105354000000eb00f1fd070010002000effd070046
:1053640020002000edfd07004430ef001e00370050
:1053740080fe07000000eb00e8fd0700100020009d
:10538400e6fd070020002000e4fd070030002000b7
:10539400e2fd07004430ef001300370075fe0700fc
:1053a4000000eb00ddfd070010002000dbfd07001e
:1053b40020002000d9fd070030002000d7fd0700a1
:1053c40040002000d5fd07004430ef000600370000
:1053d400208280000000e00002003a0065fe070021
:1053e40001003700000000000080fa000000060001
:1053f4000400fa0067050700008fbe000080fa0071
:10540400000006000200fa0033fd0700bbfd0700a0
