:020000040000fa
:080000000002040000000000f2
:020000040000fa
:04000800800500006f
:020000040000fa
:04000c00d604000016
:020000040000fa
:04001000f6040000f2
:020000040000fa
:04001400c005000023
:020000040000fa
:04001800a00500003f
:020000040000fa
:04001c0028060000b2
:020000040000fa
:0400200016050000c1
:020000040000fa
:0400240028060000aa
:020000040000fa
:0400280028060000a6
:020000040000fa
:04002c00e2050000e9
:020000040000fa
:04003000280600009e
:020000040000fa
:04003400280600009a
:020000040000fa
:040038002806000096
:020000040000fa
:04003c002806000092
:020000040000fa
:04004000280600008e
:020000040000fa
:0400440002060000b0
:020000040000fa
:040048002806000086
:020000040000fa
:04004c002806000082
:020000040000fa
:04005000280600007e
:020000040000fa
:04005400280600007a
:020000040000fa
:040058002806000076
:020000040000fa
:04005c002806000072
:020000040000fa
:04006000280600006e
:020000040000fa
:04006400280600006a
:020000040000fa
:040068002806000066
:020000040000fa
:04006c002806000062
:020000040000fa
:04007000280600005e
:020000040000fa
:04007400280600005a
:020000040000fa
:040078002806000056
:020000040000fa
:04007c002806000052
:020000040000fa
:04008000280600004e
:020000040000fa
:04008400280600004a
:020000040000fa
:040088002806000046
:020000040000fa
:04008c002806000042
:020000040000fa
:04009000280600003e
:020000040000fa
:04009400280600003a
:020000040000fa
:040098002806000036
:020000040000fa
:04009c002806000032
:020000040000fa
:0400a000280600002e
:020000040000fa
:0400a400280600002a
:020000040000fa
:0400a8002806000026
:020000040000fa
:0400ac002806000022
:020000040000fa
:0400b000280600001e
:020000040000fa
:0400b400280600001a
:020000040000fa
:0400b8002806000016
:020000040000fa
:0400bc002806000012
:020000040000fa
:0400c000280600000e
:020000040000fa
:0400c400280600000a
:020000040000fa
:0400c8002806000006
:020000040000fa
:0400cc002806000002
:020000040000fa
:0400d00028060000fe
:020000040000fa
:0400d40028060000fa
:020000040000fa
:0400d80028060000f6
:020000040000fa
:0400dc00b00400006c
:020000040000fa
:0400e00028060000ee
:020000040000fa
:0400e40028060000ea
:020000040000fa
:0400e80028060000e6
:020000040000fa
:0400ec0028060000e2
:020000040000fa
:0400f00028060000de
:020000040000fa
:0400f40028060000da
:020000040000fa
:0400f80028060000d6
:020000040000fa
:0400fc0028060000d2
:020000040000fa
:0401000028060000cd
:020000040000fa
:0401040028060000c9
:020000040000fa
:0401080028060000c5
:020000040000fa
:04010c0028060000c1
:020000040000fa
:0401100028060000bd
:020000040000fa
:0401140028060000b9
:020000040000fa
:0401180028060000b5
:020000040000fa
:04011c0028060000b1
:020000040000fa
:0401200028060000ad
:020000040000fa
:0401240028060000a9
:020000040000fa
:0401280028060000a5
:020000040000fa
:04012c0028060000a1
:020000040000fa
:04013000280600009d
:020000040000fa
:040134002806000099
:020000040000fa
:040138002806000095
:020000040000fa
:04013c002806000091
:020000040000fa
:04014000280600008d
:020000040000fa
:040144002806000089
:020000040000fa
:040148002806000085
:020000040000fa
:04014c002806000081
:020000040000fa
:04015000280600007d
:020000040000fa
:040154002806000079
:020000040000fa
:040158002806000075
:020000040000fa
:04015c002806000071
:020000040000fa
:04016000280600006d
:020000040000fa
:040164002806000069
:020000040000fa
:040168002806000065
:020000040000fa
:04016c002806000061
:020000040000fa
:04017000280600005d
:020000040000fa
:040174002806000059
:020000040000fa
:040178002806000055
:020000040000fa
:04017c002806000051
:020000040000fa
:04018000280600004d
:020000040000fa
:040184002806000049
:020000040000fa
:040188002806000045
:020000040000fa
:04018c002806000041
:020000040000fa
:040190001e04000049
:020000040000fa
:0401940072040000f1
:020000040000fa
:040198002806000035
:020000040000fa
:04019c002806000031
:020000040000fa
:0401a000280600002d
:020000040000fa
:0401a4002806000029
:020000040000fa
:0401a8002806000025
:020000040000fa
:0401ac002806000021
:020000040000fa
:0401b000280600001d
:020000040000fa
:0401b4002806000019
:020000040000fa
:0401b8002806000015
:020000040000fa
:0401bc002806000011
:020000040000fa
:0401c000280600000d
:020000040000fa
:0401c4002806000009
:020000040000fa
:0401c8002806000005
:020000040000fa
:0401cc002806000001
:020000040000fa
:0401d00028060000fd
:020000040000fa
:0401d40028060000f9
:020000040000fa
:0401d80028060000f5
:020000040000fa
:0401dc0028060000f1
:020000040000fa
:0401e00028060000ed
:020000040000fa
:0401e40028060000e9
:020000040000fa
:0401e80028060000e5
:020000040000fa
:0401ec0028060000e1
:020000040000fa
:0401f00028060000dd
:020000040000fa
:0401f40028060000d9
:020000040000fa
:0401f80028060000d5
:020000040000fa
:0401fc0028060000d1
:020000040000fa
:0402000028060000cc
:020000040000fa
:0402040028060000c8
:020000040000fa
:0402080028060000c4
:020000040000fa
:04020c0028060000c0
:020000040000fa
:0402100028060000bc
:020000040000fa
:0402140028060000b8
:020000040000fa
:0402180028060000b4
:020000040000fa
:04021c0028060000b0
:020000040000fa
:0402200028060000ac
:020000040000fa
:0402240028060000a8
:020000040000fa
:0402280028060000a4
:020000040000fa
:04022c0028060000a0
:020000040000fa
:04023000280600009c
:020000040000fa
:040234002806000098
:020000040000fa
:040238002806000094
:020000040000fa
:04023c002806000090
:020000040000fa
:04024000280600008c
:020000040000fa
:040244002806000088
:020000040000fa
:040248002806000084
:020000040000fa
:04024c002806000080
:020000040000fa
:04025000280600007c
:020000040000fa
:040254002806000078
:020000040000fa
:040258002806000074
:020000040000fa
:04025c002806000070
:020000040000fa
:04026000280600006c
:020000040000fa
:040264002806000068
:020000040000fa
:040268002806000064
:020000040000fa
:04026c002806000060
:020000040000fa
:04027000280600005c
:020000040000fa
:040274002806000058
:020000040000fa
:040278002806000054
:020000040000fa
:04027c002806000050
:020000040000fa
:04028000280600004c
:020000040000fa
:040284002806000048
:020000040000fa
:040288002806000044
:020000040000fa
:04028c002806000040
:020000040000fa
:04029000280600003c
:020000040000fa
:040294002806000038
:020000040000fa
:040298002806000034
:020000040000fa
:04029c002806000030
:020000040000fa
:0402a000280600002c
:020000040000fa
:0402a4002806000028
:020000040000fa
:0402a8002806000024
:020000040000fa
:0402ac002806000020
:020000040000fa
:0402b000280600001c
:020000040000fa
:0402b4002806000018
:020000040000fa
:0402b8002806000014
:020000040000fa
:0402bc002806000010
:020000040000fa
:0402c000280600000c
:020000040000fa
:0402c4002806000008
:020000040000fa
:0402c8002806000004
:020000040000fa
:0402cc002806000000
:020000040000fa
:0402d00028060000fc
:020000040000fa
:0402d40028060000f8
:020000040000fa
:0402d80028060000f4
:020000040000fa
:0402dc0028060000f0
:020000040000fa
:0402e00028060000ec
:020000040000fa
:0402e40028060000e8
:020000040000fa
:0402e80028060000e4
:020000040000fa
:0402ec0028060000e0
:020000040000fa
:0402f00028060000dc
:020000040000fa
:0402f40028060000d8
:020000040000fa
:0402f80028060000d4
:020000040000fa
:0402fc0028060000d0
:020000040000fa
:0403000028060000cb
:020000040000fa
:0403040028060000c7
:020000040000fa
:0403080028060000c3
:020000040000fa
:04030c0028060000bf
:020000040000fa
:0403100028060000bb
:020000040000fa
:0403140028060000b7
:020000040000fa
:0403180028060000b3
:020000040000fa
:04031c0028060000af
:020000040000fa
:0403200028060000ab
:020000040000fa
:0403240028060000a7
:020000040000fa
:0403280028060000a3
:020000040000fa
:04032c00280600009f
:020000040000fa
:04033000280600009b
:020000040000fa
:040334002806000097
:020000040000fa
:100400004f1d21000eff27000e0188000000000094
:10041000000020000000e000020032000001200087
:1004200020028800140007000b0207000000e00013
:1004300003003a00c0c22200010020000200370081
:100440000000200001002000810f70000100320038
:100450000f000700000020000000e0000200320052
:100460000000020000000000803d020000000000cb
:100470000040da000000fe00801020000000e000d4
:1004800002003200002020009001880000000600d9
:10049000a1028800800478000000eb001f003700f4
:1004a000e284440054a0b4009905ba00e2844400f8
:1004b00054a0b4009906ba00e284440054a0b400e9
:1004c0000006eb00476fde00fd07b200ae018800ba
:1004d000636ce10003003a000ad801000000eb0061
:1004e0000e003700606ce10008003a00004deb00a0
:1004f0000a05e800020039003420ec000af0a000f0
:100500008b05e900f9ff3e00040037006168e10057
:10051000010032000086eb000b00070019c7ba008b
:100520001905ba000e04e00003003a000a00e000da
:10053000dbff3a0000000600fe07b200ae028800b2
:100540008a047800f5ff37000cd0a300e20f4d00bd
:100550001c003b0089027800354dba000a05e8000e
:10056000020039003420ec000af0a0008b05e900fd
:100570000f003200254dba000a05e80002003900dc
:100580003420ec000af0a0008b05e90008003200de
:100590000c00e0000600320015cdba000a05e800a4
:1005a000020039003420ec000af0a0008b05e900bd
:1005b0008984e80054a0b4000b00e000e2ff3a0098
:1005c000000006009902ba00055d78008b05e9007d
:1005d000f7ff3200c82ade00055d78008b05e900d0
:1005e000f3ff32000c00e000f1ff320019ddba0029
:1005f000eeff3700ae24040000000000a215040046
:10060000000000005412040000000000ac120400be
:100610000000000042120400000000009a120400d2
:10062000000000006012040000000000ec0d040057
:1006300000000000040e0400000000001c0e040076
:1006400000000000320e04000000000056100400fc
:10065000000000007a10040000000000ce11040029
:1006600000000000620e0400000000006c0f040097
:1006700000000000080d040000000000100d040040
:1006800000000000180d040000000000200d040010
:1006900000000000280d040000000000300d0400e0
:1006a00000000000500d0400000000007e0d04005a
:1006b00000000000b20d040000000000ba0d0400ac
:1006c00000000000c20d040000000000ca0d04007c
:1006d000000000000e1204000000000026120400ba
:1006e00000000000362e04000000000086310400e7
:1006f0000000000012310400000000002631040058
:10070000000000003431040000000000403104000b
:10071000000000008c310400000000004a31040099
:1007200000000000fe30040000000000083104005a
:100730000000000056310400000000007431040085
:100740000000000076280400000000009427040048
:1007500000000000c427040000000000f22704008d
:1007600000000000fe270400000000007c280400b8
:10077000000000000a2804000000000048270400d0
:10078000000000006e270400000000003428040070
:100790000000000052280400000000005413040070
:1007a000000000003a14040000000000aa15040034
:1007b00000000000ca15040000000000e01504005d
:1007c00000000000fe1504000000000014160400e4
:1007d0000000000028160400000000004816040075
:1007e000000000006a1604000000000072160400f9
:1007f000000000007a16040000000000a0160400ab
:1008000000000000b8160400000000007817040083
:10081000000000008e17040000000000aa1704006a
:10082000000000000c18040000000000d0160400b6
:100830000000000060300400000000003600f800f6
:10084000809fbe00829fbe00849fbe00869fbe0028
:100850003200f8003400f80010002000a0018800e9
:100860000020200000d0fe000200fa00408480003a
:100870000000e0000200320040848000000001001f
:100880005140800000802000008060000000e000f7
:100890000a00320061608000010f780050848000ff
:1008a0000000e00004003200528480009e007800c6
:1008b0000000eb00020001000b68a9000b48a90032
:1008c0000080fa003400f9003200f9004f03be0046
:1008d0004f02be004f01be004f00be003600f900bf
:1008e000004006003600f800809fbe00829fbe00d8
:1008f000849fbe00869fbe003200f8003400f800de
:1009000010002000a00188000020200000d0fe0080
:100910000200fa0061608000010f780050848000be
:100920000000e00004003200528480009e00780045
:100930000000eb00020001000b68a9000080fa0033
:100940003400f9003200f9004f03be004f02be0030
:100950004f01be004f00be003600f9000040060007
:100960003600f800809fbe00829fbe00849fbe00bc
:10097000869fbe000000fa00008480000000e000b6
:1009800002003200008480000000010005a8a900d8
:100990000080fa004f03be004f02be004f01be00b0
:1009a0004f00be003600f900004006003600f80097
:1009b000809fbe00829fbe00849fbe00869fbe00b7
:1009c0000000fa00c068a90020002000261c0700d3
:1009d0000080fa004f03be004f02be004f01be0070
:1009e0004f00be003600f900004006003600f80057
:1009f000809fbe00829fbe00849fbe00869fbe0077
:100a00000000fa00c608a90070002000161c0700ac
:100a10000080fa004f03be004f02be004f01be002f
:100a20004f00be003600f900004006003600f80016
:100a3000809fbe00829fbe00849fbe00869fbe0036
:100a40000000fa0020468000700060000000e00016
:100a500003003200c488a900a0002000021c070087
:100a60002146800000042000008060000000e000bb
:100a700003003200c4c8a900e0002000fa1b0700f0
:100a80002146800000022000008060000000e0009d
:100a900003003200c4a8a90090002000f21b070048
:100aa0002146800000102000008060000000e0006f
:100ab00003003200c508a900c0002000ea1b07009f
:100ac0002146800000202000008060000000e0003f
:100ad00003003200c528a900d0002000e21b070057
:100ae00020468000610060000000e000030032004a
:100af000c408a900b0002000db1b0700ffff37007f
:100b00003600f800809fbe00829fbe00849fbe001a
:100b1000869fbe000000fa00c028a9000000eb007c
:100b2000d11b07000080fa004f03be004f02be0039
:100b30004f01be004f00be003600f9000040060025
:100b40003600f800809fbe00829fbe00849fbe00da
:100b5000869fbe000000fa00c088a9003000200077
:100b6000c11b07000080fa004f03be004f02be0009
:100b70004f01be004f00be003600f90000400600e5
:100b80003600f800809fbe00829fbe00849fbe009a
:100b9000869fbe000000fa00ba1b0700c048a900eb
:100ba00010002000b01b07000080fa004f03be00b9
:100bb0004f02be004f01be004f00be003600f900dc
:100bc000004006003600f800809fbe00829fbe00f5
:100bd000849fbe00869fbe000000fa00b0848000a3
:100be000000001000028a9000080fa004f03be00a9
:100bf0004f02be004f01be004f00be003600f9009c
:100c0000004006003600f800809fbe00829fbe00b4
:100c1000849fbe00869fbe000000fa00c084800052
:100c20000000e00002003200c084800000000100eb
:100c300000e8a9000080fa004f03be004f02be008a
:100c40004f01be004f00be003600f9000040060014
:100c50000040da000000fe00000005006011b8004e
:100c60007d0237006022b800060220000000d0009c
:100c70008180d2000482d2008582d2000000a000d0
:100c80000202520083825a00030031000202420035
:100c900083824a000000a1000603e900f3ff3a0046
:100ca00000000600020ab900001bb9000200b800eb
:100cb000810042008100430000000600889fbe00c2
:100cc0008a9fbe008c9fbe001b0020000202be0057
:100cd0000586680006002800060666004709de0053
:100ce000f20fb200820032000243e80080003200be
:100cf000c729de00f30fb2007d0032000343e80095
:100d00007b003200f107b2000170a000f507b200cd
:100d10000570a000c708dd004903de008680700072
:100d20004700dd00c72add004923de00868272000d
:100d30004722dd000305510004035000858358005d
:100d40000300310000004000818048000a05e900ee
:100d50008c1f78008a9fbe000400500085805800d8
:100d60000402420085824a00000040008180480061
:100d70000005eb000004be006033b8000406be00ae
:100d80000d48e10056003100050009004dccd800a7
:100d90000c01b8000d02b8008481410060824a0055
:100da0008283530003045c0084845c0060055d0062
:100db0000a00e00025003a00800578000d40e100bf
:100dc000490031008800780007007800050009001c
:100dd0004d88d8000c01b8000d02b8008481410094
:100de00060824a006003110083835b0004045c009e
:100df000e0845c000900e00021003a004f01be00e1
:100e00000300e0002b003200e301600007067300de
:100e10008c81710001003200640070004200de002d
:100e20004e5edd000c007000c258de0001e0a00044
:100e300083010700cf017800818071004f06be005a
:100e40004f05be004f04be00000006008c83430027
:100e50000d044c00e0844c0060054d000000e900ea
:100e60000a00e000d4ff32008c8343000d044c00e4
:100e7000e0844c0060054d000000e900ceff370023
:100e80000c0343008d834b0060044c00e0844c0055
:100e90000000e9000900e000d8ff32000c03430025
:100ea0008d834b0060044c00e0844c000000e9009e
:100eb000d2ff37004200de004e5edd000c00700005
:100ec000c258de0001e0a000cf0178000300e0007e
:100ed000daff320060001000e0801800d7ff370012
:100ee000f0ff2f00aaff3700f0ff2f00b9ff3700f7
:100ef0000404be002f010700870678000004fd00ef
:100f00008104fd002b010700078366000678a3001b
:100f1000030032000960a7000800be002c00370063
:100f20000d78a300020032000800be002800370040
:100f30000778a30026003a0001f0a10009f0a10003
:100f40000668a30003003200f1ff2700f0ff2f0026
:100f5000baff37000d68a300030032000800be008e
:100f60008c807000b5ff37000768a30007003a00c7
:100f70000648a30003003200f1ff2700f0ff2f0016
:100f8000aeff37000d48a300030032006000b80038
:100f90008c807000a9ff37000748a30004003200ce
:100fa00001f82700000020008c807000a3ff3700ac
:100fb000760107000004fd008104fd0002057800b1
:100fc000720107000802be008a01780059ff37004d
:100fd0000160a000120220001285880097ff3700f0
:100fe0000100e000120032000500e00010003200b5
:100ff000889fbe008a9fbe008c9fbe000006eb004b
:1010000001f8a3000300320060001000e080180027
:101010000cf0a00005f8a3000300320060021200eb
:10102000e0821a000cf0a2008005eb0041ff3700bf
:101030006000b80002000500038368000700280074
:1010400007036300470ade000480a100c71ade0020
:101050000580a100f70f20000720e10042003200c8
:101060000728e10040003200889fbe008a9fbe0032
:101070008c1f7800f107b200f307b2000400e00013
:10108000640032000170a0000500e000680032003a
:101090000370a00085054200eb07b1000204b80010
:1010a0000302b8008484440060854a00020ab80044
:1010b000848444000a854a00030ab80004054500f8
:1010c000040033000804d0008984d2000a85d200cd
:1010d0008b05e9006158e1003d0035000210200059
:1010e000090161000308200089816100f7072000e1
:1010f0008783640008867300c84cde00c853dd0097
:10110000878474004855de000300e00006003200ca
:1011100082037600040032008904e80060054d0077
:101120000a88a3000c003a00f70f20000758e100de
:1011300044003d000a70a100c75ddd000a8575000e
:101140008a007300090078004f0678004f05be0042
:101150004f04be00000006000a05d1008984d300b8
:101160008b05e800f0ff3700881f78000604780040
:1011700090000700070278000001fd008101fd00da
:101180008c00070087027800850372000778a300af
:10119000050032000001fd008101fd009f000700f5
:1011a0004f04780000000600850372000748a30082
:1011b00003003200f0ff2f00f1ff2700f8ff370097
:1011c0000000200001f8270088807000f4ff37003d
:1011d000880178004848dd00808171004848de00c1
:1011e000c850dd0001007000c850de000604780021
:1011f0000b0178001600070088807000d2ff3700ce
:101200000500e00005003200170020003a0007004a
:101210009dff370081037000f9ff3a0086007800d7
:101220004f0678004f05be004f04be0000000500c9
:1012300083037100f9ff3200270020002e00070011
:1012400094ff370001f8270086807000f4ff370014
:101250000100e00026003200610111007810e10079
:1012600023003c006022b8007010e100040035004b
:1012700080027800010078008000eb0070015100ce
:101280000200e0000900340070031100062add00ae
:10129000822ade008603dd00878272000200de0003
:1012a000860bdd00070070008208de00848171007b
:1012b000f4ff27000482620084817100040028008a
:1012c000848262006102600005f0a6000000060052
:1012d00004827100070032000000e800e08048004e
:1012e000000006000002be006000b800efff3700fb
:1012f0006000b80000000600889fbe000004eb00fc
:101300006138e10016003a000100e00008003a00f0
:10131000c800de004800dd00880020000100e00079
:1013200003003a00c800de004800dd006804440005
:101330008184cf00e9845400060034008908dd0070
:10134000f08314008703de00878070000900dd0051
:1013500009044400610214004f04be0000000600ae
:101360000300e00008003a00c811de004811dd006b
:10137000880020000300e00003003a00c811de00ee
:101380004811dd00680444008384cf00e9845400e0
:10139000060034008919dd00f08314008713de0095
:1013a000878171000911dd0009044400e102140085
:1013b000e9ff37002700200001f0a70017002000f8
:1013c000470bde00f60fb200040032000643e800cf
:1013d0000a0032004702b300000006000103780053
:1013e000f607b2000603700002003a000703b300dc
:1013f000000006008702b300000006000103780029
:10140000f607b20006037000020032000770a00069
:10141000000006000760a000000006000478a3009a
:10142000040032000578a300030032000168a30025
:1014300001003a000200be000160a00000000600aa
:1014400081017000270032008002eb0001f8a30048
:101450000300320060001000e0801800150020003a
:10146000f40720000202420020003400f7032000ad
:1014700087036000060420000003630002082000c8
:10148000000161004700de00c909dd000080710035
:10149000c708de000600e000080032008703710084
:1014a000060032001000b0000180b0000188a300e7
:1014b00002003200c108de000402e800f107b200b9
:1014c000f30f20000320e10003003d004722dd0070
:1014d000810072002900370001f827000000eb00ae
:1014e000260037006000b800000006006802120005
:1014f0007f20e100020034006000b8001f003700c8
:101500006011b8007020e10004003500800178000f
:10151000010078008000eb00700252000400e0003f
:1015200009003400f00312000719dd008419de0001
:101530000703dd00868171000400de00070bdd007b
:10154000060070008408de00f7ff27008383630035
:1015500087037100060028000303630007003200c0
:101560000700e00003003a0061016000028173009f
:10157000020032001000b0000180b0000500a6009b
:101580000000060001f0a000000006004f0ade0087
:101590004709de00f107b200f20fb2000b00320083
:1015a000f207b1000170a000c708dd00c901de002c
:1015b000838070004700dd000400a60000000600e4
:1015c00060001000e080180000000600810f70002d
:1015d00001003a00000006008182cf000500e00013
:1015e00010003e008082cf00ee8242007028e100b1
:1015f0000400390007003e00800078000000eb0086
:101600000e003700708312008600de000500dd004a
:101610000a003700708352008600dd000000eb00f6
:1016200006003700e28252008508dd007083120058
:101630000603de00868070000500dd007507b0003f
:101640000501ea000400a60000000600600010008a
:10165000e080180000000600889fbe008a9fbe0040
:1016600000827000040271000482710026003200c2
:101670000004be000200be006011b8006b0920002b
:10168000950220000182cf000a0039000541b10017
:101690000082cf00070039000541b1000982cf0068
:1016a000040039000541b1000882cf000100390073
:1016b0000541b10005425200120032000a003b0011
:1016c00082817100610164008100d1000080d3003b
:1016d0008984d3000884d3008b05e8000442e80025
:1016e000f7ff3a00070037000804440089844c00e3
:1016f00000004800818048008b05e9000442e900b1
:10170000f9ff3a00030007004f05be004f04be007a
:101710000000060081002000618055000b003d00a4
:101720000b00200061fe2f000100e1001d003400cd
:1017300082817100610164008904d1000884d300b2
:101740000000e800faff3a00710020006100640028
:1017500003007000020060000900320061044400d0
:10176000e0844c000988a500050032008b05e800e4
:101770006808e10002003a008904d1000884d3001f
:10178000f20f20000258e10005003d00c75ddd00ba
:10179000f907b20089807500080078000000060093
:1017a0000bf827008b007800000005008001eb009b
:1017b0000200e0001000320000027800010378000f
:1017c000b44178000304e00008003200b142780020
:1017d0000504e0000500320082034000848f5300be
:1017e0000200320085cf5100f4ff32008381fb00fc
:1017f0001680fb0080815100030078000000060085
:020000040000fa
:101800004c45000044310000204f00004e00000015
:101810004c45000044320000204f00004e00000004
:101820004c45000044330000204f00004e000000f3
:101830004c45000044340000204f00004e000000e2
:101840004c45000044350000204f00004e000000d1
:101850004c45000044310000204f00004646000087
:10186000004c000045440000322000004f460000bc
:10187000460000004c45000044330000204f0000ab
:1018800046460000004c00004544000034200000a3
:101890004f460000460000004c4500004435000063
:1018a000204f0000464600000000000042120000e9
:1018b0009a1200006012000000000000ec0d000011
:1018c000040e00001c0e0000320e00005610000036
:1018d0007a100000ce110000620e00006c0f0000b4
:1018e000080d0000100d0000180d0000200d000074
:1018f000280d0000300d0000500d00007e0d00008e
:10190000b20d0000ba0d0000c20d0000ca0d0000ab
:101910000e12000026120000568c0000aa150000ce
:10192000ca150000e0150000fe15000014160000a6
:1019300028160000481600006a1600007216000003
:101940007a160000a0160000b816000078170000f4
:101950008e170000aa1700000c180000d016000017
:101960000000000000000000000000000000000077
:101970000000000000000000000000000300000064
:10198000320000006400000096000000c800000063
:10199000fa0000002c0100005e0100009001000030
:1019a000c2010000f40100002602000058020000fd
:1019b0008a020000bc020000123100002631000043
:1019c00034310000403100008c3100004a31000009
:1019d000fe30000008310000563100007431000074
:1019e0000000000094270000c4270000f227000038
:1019f000fe2700007c2800000a280000482700007d
:101a00006e2700003428000052280000000000006b
:020000040000fa
:101a10000000fa0001eba8000080fa0000000600b8
:101a20000000fa0001eba9000080fa0000000600a7
:101a30000000fa0008cba8000080fa0000000600b1
:101a40000000fa0008cba9000080fa0000000600a0
:101a50000200fa00000f78000080fa000000060083
:101a60000400fa008e80e800800878000000eb0097
:101a7000000f78000e80e800100078000000e00001
:101a800003003a0061608000010f78000100370018
:101a9000000000001e0078000080fa000000060030
:101aa0000400fa008e80e800800878000040eb0017
:101ab000004f78000e80e800100078000000e00081
:101ac0000a003a008059800000800a0000000000ef
:101ad0000080fb0000f0a7000000ea000000ea0020
:101ae0004f00de00004f78000100370000000000ca
:101af0001e4078000080fa00000006000200fa0094
:101b0000000f78001e0078000040780063406000fd
:101b10000080fb00630060004800dd00b25e8000d2
:101b2000f1cf2f008100610001007000b05e8800dd
:101b30001e00780000407800634060000080fb00d9
:101b4000630060004500dd0012588000f1f92f00ad
:101b50008100610001007000105888000080fa00c8
:101b6000000006000000fa002b48a8000080fa00e0
:101b7000000006000000fa002b48a9000080fa00cf
:101b8000000006000000fa000b48a9000080fa00df
:101b9000000006000200fa00000f78001e00780026
:101ba0000040780067406000674060006740600068
:101bb0000080fb00670060004800dd006243800099
:101bc000f18f2f00810061000100700060438800e8
:101bd0000080fa00000006000200fa00000f780002
:101be0001e0078000000e00004003a002b68a80006
:101bf000200ba800000000000100370000000000da
:101c00000080fa00000006000200fa00000f7800d1
:101c10001e0078000000e00004003a002b68a900d4
:101c2000200ba900000000000100370000000000a8
:101c30000080fa00000006000200fa00000f7800a1
:101c40001e0078000000e00003003a000b68a900c5
:101c50000000000001003700000000000080fa00d2
:101c6000000006000400fa00000f78000e80e80073
:101c7000010878001e0078000000e0000e003a0025
:101c80000e80e80010007800004078006740600097
:101c90000080fb00670060004c00dd0062438000b4
:101ca000f1ff28008100610001007000604388009e
:101cb0000000000001003700000000000080fa0072
:101cc000000006000000fa00002bef0000062000d4
:101cd00010588800042bef00062bef00082bef00b4
:101ce0000a2bef000c2bef000e2bef00102bef0058
:101cf000122bef00142bef00162bef00202bef0020
:101d0000222bef00302bef00322bef00382bef00af
:101d1000402bef00482bef00502bef003a2bef0049
:101d2000422bef004a2bef00522bef003c2bef0031
:101d3000442bef004c2bef00542bef003e2bef0019
:101d4000462bef004e2bef00562bef00682bef00d9
:101d50006c2bef00702bef00742bef000040200085
:101d6000505b880000402000705b8800004020002d
:101d7000905b880000402000b05b8800a02bef0043
:101d8000a42bef00a82bef00ac2bef00d02bef0023
:101d9000d22bef00d42bef00d82bef00dc2bef0081
:101da000e02bef0000302000b05e88000030200003
:101db000d05e880000302000f05e880000302000f7
:101dc000105f8800f02bef00f22bef00f82bef00f4
:101dd000fa2bef00022cef000c2cef000e2cef0082
:101de000102cef00122cef00142cef00162cef003b
:101df000182cef001a2cef001c2cef001e2cef000b
:101e0000202cef00222cef00242cef00262cef00da
:101e1000282cef002a2cef002c2cef002e2cef00aa
:101e2000302cef00322cef00342cef00362cef007a
:101e3000382cef003a2cef003c2cef003e2cef004a
:101e4000402cef00422cef00442cef00462cef001a
:101e5000482cef004a2cef00205a21006f010700a8
:101e60004025210087010700c02a2100b101070099
:101e70001160800000f020000100700010608800f8
:101e800001eba8000000eb00880007001000200014
:101e9000005c8800822bef00842bef00862bef0084
:101ea000882bef008a2bef008c2bef008e2bef009e
:101eb000902bef00922bef00942bef00962bef006e
:101ec000982bef009a2bef009c2bef009e2bef003e
:101ed0000080fa00000006000000fa0001eba900f3
:101ee000002bef000006200010588800042bef00a4
:101ef000062bef00082bef000a2bef000c2bef0056
:101f00000e2bef00102bef00122bef00142bef0025
:101f1000162bef00202bef00222bef00302bef00d1
:101f2000322bef00382bef00402bef00482bef0057
:101f3000502bef003a2bef00422bef004a2bef0023
:101f4000522bef003c2bef00442bef004c2bef000b
:101f5000542bef003e2bef00462bef004e2bef00f3
:101f6000562bef00682bef006c2bef00702bef006f
:101f7000742bef006a2bef006e2bef00722bef003b
:101f8000762bef00802bef00822bef00842bef00ed
:101f9000862bef00882bef008a2bef008c2bef00b5
:101fa0008e2bef00902bef00922bef00942bef0085
:101fb000962bef00982bef009a2bef009c2bef0055
:101fc0009e2bef00a02bef00a42bef00a82bef001f
:101fd000ac2bef00d02bef00d22bef00d42bef0077
:101fe000d82bef00dc2bef00e02bef0000302000bf
:101ff000b05e880000302000d05e880000302000f5
:10200000f05e880000302000105f8800f02bef00a9
:10201000f22bef00f82bef00fa2bef00002cef0073
:10202000022cef000c2cef000e2cef00102cef0018
:10203000122cef00142cef00162cef00182cef00e0
:102040001a2cef001c2cef001e2cef00202cef00b0
:10205000222cef00242cef00262cef00282cef0080
:102060002a2cef002c2cef002e2cef00302cef0050
:10207000322cef00342cef00362cef00382cef0020
:102080003a2cef003c2cef003e2cef00402cef00f0
:10209000422cef00442cef00462cef00482cef00c0
:1020a0004a2cef000080fa00000006000200fa004f
:1020b000000f78001e0078000000e0000a003a00df
:1020c000000ca8000000000001608000001020004b
:1020d000008060000000e000fbff32000a0ba80057
:1020e0000000000001003700000000000080fa003e
:1020f000000006000000fa0000eca800000000004c
:102100000160800000002800008060000000e00006
:10211000fbff32000aeba8000080fa000000060076
:102120000600fa000e81e80000097800640047000c
:10213000010878000000eb00000f78000e80e80036
:1021400010007800e40f50003c003200e40f500013
:1021500007003e00e20f50001c003200e20f50006a
:1021600028003e00e10f50000a00320088003700ce
:10217000e60f50004d003200e60f50003d003900e0
:10218000e70f500057003200e80f500063003200a4
:102190007f0037006400470010007800e10f500016
:1021a00003003a0040002000000f7800780037005c
:1021b0006400470010007800e20f500065003a000c
:1021c00050002000000f78007100370064004700c5
:1021d00010007800e10f500003003a00600020007a
:1021e000000f78006a003700640047001000780094
:1021f000e20f500059003a0070002000000f7800f4
:10220000630037006400470010007800e10f5000c1
:1022100003003a0080002000000f78005c003700c7
:102220006400470010007800e20f50004d003a00b3
:1022300090002000000f7800550037006400470030
:1022400010007800e10f500003003a00a0002000c9
:10225000000f78004e00370064004700100078003f
:10226000e20f500041003a00b0002000000f78005b
:10227000470037006400470010007800e10f50006d
:1022800003003a00c0002000000f78004000370033
:102290006400470010007800e20f500035003a005b
:1022a000d0002000000f780039003700640047009c
:1022b00010007800e10f500003003a00e000200019
:1022c000000f7800320037006400470010007800eb
:1022d000e20f500029003a00f0002000000f7800c3
:1022e0002b0037006400470010007800e10f500019
:1022f00003003a0000012000000f7800240037009e
:102300006400470010007800e20f50001d003a0002
:1023100010012000000f78001d0037006400470006
:1023200010007800e10f500003003a002001200067
:10233000000f780016003700640047001000780096
:10234000e20f500011003a0030012000000f780029
:102350000f003700000000000d00370000000000f3
:102360000b003700000000000900370000000000eb
:1023700007003700000000000500370000000000e3
:1023800003003700000000000100370000000000db
:102390001e0078000080fa00000006000800fa0025
:1023a0008e81e80080097800640047000108780009
:1023b0006600470002087800660047009000780039
:1023c000640047001000780055ff0700000f7800f8
:1023d0000e80e800100078000000e0000c003a00d9
:1023e0001e007800004078007f4060000080fb0005
:1023f0007f006000025c800001fe2f008100610010
:1024000001007000005c880000000000010037003f
:10241000000000000080fa00000006000200fa0040
:10242000000f78001e0078000000e000020032007b
:102430009e007800418488000080fa0000000600b9
:102440000000fa000080fa00000006000000fa0018
:102450005140800000402000008060000000e0004b
:1024600006003200408480000000e00002003200dc
:1024700040848000000001000b48a9000080fa00a1
:10248000000006000200fa00000f78001e0078002d
:102490000000e000020032009e00780051848800b5
:1024a0000080fa00000006000400fa00000f780027
:1024b0000e80e800010878000080fa0000000600a5
:1024c0000400fa008e80e800800878000e80e800a2
:1024d000100078000000e0000f003a0080598000f2
:1024e000610060000000e0000d00320061608000cb
:1024f000010f7800508480000000e0000a003200e4
:10250000528480009e0078000e80e8001000780061
:102510000200010005003700000000000300370042
:102520000000000001003700000000000080fa00f9
:10253000000006000200fa00000f78001e0078007c
:102540000000e000020032009e00780061848800f4
:102550000080fa00000006000200fa00000f780078
:102560000080fa00000006000400fa008000eb0082
:102570000e80e800010878000001210062120700c7
:10258000800078000e80e800010878000e80e800e6
:10259000100078000000e0000300320000c8b30023
:1025a0004a0007003c0037000001eb008000eb0010
:1025b000600f210043150700800078000e80e800be
:1025c000010878000000eb00000f780011003700d0
:1025d0009e00780000012100141507008e80e8009d
:1025e00091007800810070000e80e80001087800fa
:1025f0009e00780000012100461507008e80e8004b
:1026000091007800810070000e80e80001087800d9
:102610001e0fe8001e007800e20f5000ecff3600ad
:102620000000eb00000f7800110037001e0078005a
:10263000e600b90080007800c00f210080804000d3
:102640001e0078000040780001017800804078008a
:10265000400221009f1407008e80e800910078005e
:10266000810070000e80e800010878001e0fe8006d
:102670001e007800e20f5000ecff3600000321003e
:10268000581307008e80e8009100780081007000e8
:102690000e80e800010878000e80e8001000780045
:1026a0000080fa00000006000000fa0010c0b3002d
:1026b0006ef0b7000080fa00000006000000fa008b
:1026c000370607000080fa00000006000200fa004a
:1026d000004f78006f70ef001e4078000004e000ab
:1026e00003003d0010c0b3006ff0b70009003700d1
:1026f0009e80fb0000042000008060000000e000dd
:10270000040032009e4078006fc0600000c0e80006
:102710006ff0b700220607000080fa0000000600f4
:102720000200fa00004f78000080fa000000060066
:102730000000fa005d0007008bff07000f0607008e
:102740000080fa00000006000200fa000000eb0022
:10275000000f78006dd0bf00e14f50000b003a0031
:102760004135210000012100380f0700000f7800db
:102770001e0078000000e00002003a006d70ef00db
:102780000200370010c8b300d0ff07006ed0bf00b2
:10279000e14f500035003a006e70ef00091207005b
:1027a000000f78001e0078000000e00022003a00d0
:1027b000000221006a0f0700000f78001e00780059
:1027c0000000e0000200320010c4b300bfff0700a9
:1027d0008086800010407800d9140700000f780030
:1027e0001e0078000000e0000200320010c4b300b8
:1027f000b6ff07004002210098030700000f780091
:102800001e0078000000e0000200320020c4b30087
:10281000aeff070000032100e3060700000f780069
:102820001e0078000000e0000500320030c0b30058
:10283000a6ff07000200370000c4b300a3ff070093
:102840004002210010007800104078000004e000f1
:1028500003003d0010c0b3006df0b7000200370068
:1028600010c0b3006cf0b70094ff07000080fa00be
:10287000000006000000fa0079d0bf000040e80028
:1028800079f0b70079d0bf00f34f50000500360053
:102890007970ef0010c0b3006df0b7004001200068
:1028a000b01407000080fa00000006000000fa00e3
:1028b000106784000000010071678400a0432100bc
:1028c0000100010000678400000001000080fa00a0
:1028d000000006000200fa00000f78001e007800d9
:1028e000e600b9008080e800c00f210000804000b1
:1028f000100078000080fa00000006000400fa00d2
:10290000000f78000e80e800010878001e007800b3
:10291000e600b90080007800e00f21000080400050
:102920008e80e800110878000080fa0000000600a0
:102930000200fa00000f78001e007800e600b900df
:10294000e4004000401221000080400010007800a8
:102950000080fa00000006000400fa00000f780072
:102960000e80e800010878001e007800e600b9003b
:102970008000780080122100008040008e80e800f6
:10298000110878000080fa00000006000200fa003a
:10299000000f78001e007800e600b900e400400057
:1029a000c00f210000804000100078000080fa0075
:1029b000000006000400fa00000f78000e80e80016
:1029c000010878001e007800e600b9008000780059
:1029d00000102100008040008e80e800110878007f
:1029e0000080fa00000006000200fa00000f7800e4
:1029f0001e007800e600b900800078004012210037
:102a000000804000104078000080fa0000000600be
:102a10000200fa00000f78001e007800e300b90001
:102a2000210e210000804000104078000080fa0054
:102a3000000006000400fa00000f78000e80e80095
:102a400001487800400221006400400090007800b6
:102a50001e007800e600b900008040008e80e8008b
:102a6000114878000080fa00000006000200fa0019
:102a7000000f78009e007800000121002514070057
:102a80001e007800e600b90080007800c00f210029
:102a9000808040001e00780000407800010178002e
:102aa00080407800400221008a1307000080fa006d
:102ab000000006000000fa008086800010407800c8
:102ac0000080fa00000006000200fa00004f7800c3
:102ad000918680001e80fb0000804000104078003e
:102ae0000080fa00000006000200fa00000f7800e3
:102af0000003210064004000900078001e00780070
:102b0000ea00b90000804000104078000080fa0020
:102b1000000006000200fa00000f78000003210008
:102b200064004000900078001e007800ea00b900c0
:102b30000080400066004000100078000080fa002d
:102b4000000006000000fa00ff0307000080fa0002
:102b5000000006000000fa003825ef000080200089
:102b6000d029880000082000e0298800e002200029
:102b7000f0298800101a2000002a88004225ef0062
:102b800039e5a80038a5a8003885a8000080fa001b
:102b9000000006000000fa003825ef003a25ef009b
:102ba00000082000e0298800e0022000f0298800c9
:102bb0004025ef004225ef000080fa0000000600eb
:102bc0000000fa0000000000f029800062006000b0
:102bd0000000e000fcff3a00e02980006200600095
:102be0000000e000010032003c25a900202a8000fe
:102bf000004078000080fa00000006000200fa00a1
:102c0000004f780000000000f02980007000600094
:102c10000000e000fcff3a001e80fb00402a880014
:102c20000080fa00000006000000fa00f029800091
:102c30006200600000f0a7000000ea000000e90068
:102c40004f00de00004078000080fa00000006001f
:102c50000000fa00f0298000700060000000e00031
:102c600007003a00c12980000002200000806000b7
:102c70000000e000020032001000200001003700d8
:102c80000000eb00004078000080fa000000060021
:102c90000000fa00e12980000008200000806000a8
:102ca0000000e00007003200f1298000000220004f
:102cb000008060000000e0000200320010002000f0
:102cc000010037000000eb00004078000080fa00af
:102cd000000006000000fa0038a5a8000080fa00f5
:102ce000000006000000fa0038a5a9000080fa00e4
:102cf000000006000200fa00004f78005cc5a90041
:102d00001e80fb00610060004200dd00e12a8000bf
:102d10000120a10001007000e02a88001e80fb0055
:102d2000610060004600dd00c12980000160a10053
:102d300001007000c02988000080fa000000060031
:102d40000000fa00c029800066800a000000000030
:102d50000080fb0000f0a7000000ea000000ea008d
:102d60004f00de00004078000080fa0000000600fe
:102d70000000fa00e02a800022800a000000000023
:102d80000080fb0000f0a7000000ea000000ea005d
:102d90004f00de00004078000080fa0000000600ce
:102da0000000fa009c30ef00e0298000680060001d
:102db0000000e0000a003200e0848000004078005b
:102dc0000004a000614060000080fb006100600022
:102dd000e18480000100a10001007000e08488000f
:102de000e129800000042000008060000000e00075
:102df0000b003200e0848000004078000014a00046
:102e0000614060000080fb00610060000000400045
:102e1000e18480000110a10001007000e0848800be
:102e2000e0298000620060000000e0000c00320039
:102e3000e0848000004078000024a0006140600031
:102e40000080fb00610060004200dd00e184800042
:102e50000120a10001007000e08488003c25a90049
:102e6000e0298000610060000000e0000c003200fa
:102e7000e0848000004078000034a00061406000e1
:102e80000080fb00610060004300dd00e184800001
:102e90000130a10001007000e08488003c05a90019
:102ea000e129800000022000008060000000e000b6
:102eb0000c003200e0848000004078000044a00054
:102ec000614060000080fb00610060004400dd00a4
:102ed000e18480000140a10001007000e0848800ce
:102ee0003ca5a900e08480000080fa0000000600f4
:102ef0000400fa00008fbe001e007800002a88003f
:102f00001e00be004008de00000078006f00600078
:102f1000102a88000080fa00000006000400fa0071
:102f2000102a80008000eb00008fbe001e00be0053
:102f3000c001dd0002002000002a80008000eb00bc
:102f4000001f7100019771001e00be000080fa0092
:102f5000000006000800fa00640147000089be0076
:102f6000640047001001be00300020000100200076
:102f7000800f5100818f59000e0036006400470019
:102f80001000be00e00f5000e08f58000900320032
:102f90003b65a80038e5a900640047001001be00a9
:102fa00000902000d10320002ef70700008fbe0004
:102fb000100037003b65a90038e5a8006400470011
:102fc0001001be004218dd00ce10de00810070004e
:102fd0004210dd000001be0000902000d10320005f
:102fe00020f707000081eb008081eb00021f40000a
:102ff000039748001e007800002a88001e00be00cb
:103000004008de00000078006f006000102a880091
:103010000080fa00000006000800fa00bfff070069
:10302000640147000089be00d12980000080200093
:10303000008060000000e0000c00320064004700e7
:103040001000be00e00f5000e08f58000700320073
:10305000640047001001be0000902000d103200052
:1030600000f70700008fbe0020003700c129800054
:1030700000082000008060000000e0000e00320028
:10308000640047001000be0061014000e08148007c
:103090004218dd00ce10de00810070004210dd001d
:1030a0000001be0000902000d1032000edf60700d3
:1030b000008fbe000d003700640047001000be0006
:1030c00061014000e08148004418dd00cc10de00c2
:1030d000810070004410dd000001be00009020005f
:1030e000d1032000dff60700008fbe001e00be00e7
:0830f0000080fa000000060058
:020000040000fa
:1030f8001000fa00889fbe008a9fbe008c9fbe0009
:103108000006780060c0b30060f0b70000c2b300ea
:1031180061f0b7003c00900010019000a001900001
:1031280010027800b00090000100e0002500320095
:10313800e18f500027003200e28f50000a003a0069
:1031480075c2b300201b21000548780035c0b300c4
:10315800301b2100054878004ac0b30008ff2f0043
:10316800f9cf200026003700e38f50001d00320001
:10317800e48f50001f00320020002000e58f50002f
:1031880025013a0075c4b300f019210005487800fc
:1031980015c0b300801a21000548780045c2b30065
:1031a800901a21000548780065c4b300b01a2100c0
:1031b800054878000045eb00f8ff2f00f97c2c004b
:1031c8000f0037002ac0b300c8ff2f007900200085
:1031d8000b0037002ac0b300c8ff2f00f90f2000ea
:1031e800070037004ac0b30008ff2f00f97f2c0002
:1031f800030037000045eb00f8ff2f00090020000e
:103208000aeba800f0f92f00020bb6000060a0003e
:103218001058880000f82f00040bb6000000a0002a
:10322800205888000000eb0090200a00060b0000e0
:10323800092ba800f00f2f00020cb6000030b300d5
:103248001060880020002000e00f5100e08f590036
:10325800f1003200e30f52001e003a003b7c800070
:10326800fb03b200447c800001003a001b002000f0
:103278000400e00001003a00140020002d588000ee
:10328800608d0a000d000000f60f200007002000e6
:10329800870078000600620080f607006159b800d0
:1032a8006ef607004e09dd004200de0000007100e6
:1032b800c208de008d86fb000d8146008001eb0010
:1032c80066f607000002be0000002c000a2bb700bb
:1032d800d6003700e40f520018003a00e48050008e
:1032e800e18f5000cb003e003b7c8000fb03b20026
:1032f800447c800001003a001b0020000400e0002c
:1033080001003a00140020002d588000608d0a004a
:103318000d000000f60f200007002000870078004d
:10332800060062005df607006159b8004bf6070019
:10333800320020000300200015003700e20f520081
:103348001e003a00e38f5000b2003e007b7c8000f4
:10335800fb03b200847c800001003a001b002000bf
:103368000400e00001003a00140020002d588000fd
:10337800608d0a000d000000f60f200007002000f5
:10338800870078000600620044f607006159b8001b
:1033980032f607008d86fb000d8146008001eb00a8
:1033a8002ef607000002be00f0ff23000a0bb6004d
:1033b80000f0a000505888009c003700e10f520030
:1033c80004003a00f0ff2300e58f50000e003a0099
:1033d800050037000400e00006003a00e48f5000c2
:1033e8008d003e00f0ff23000a2bb6000202be004b
:1033f8008e003700e50f520086003a00e58f500036
:1034080085003a00f0ff23000a0bb60000e0a00098
:10341800505888000202be0084003700812d7800d1
:10342800821b7800032b78000040e800fc804000f5
:103438007c014100fc8141008d4f5000f7ff3a00ac
:103448001c007800900578006033b80086bf9f00a4
:1034580097bf9f000040eb0011003700ec09b9004e
:10346800820078009c039000818043002101900035
:10347800b101900031037100a1837100a6b79f00cc
:10348800b7b79f000fb997009fb997000601710061
:103498008781710082bf9f0093bf9f000040e800b2
:1034a8008080fb008b8f5000ecff3900250037002f
:1034b8000a407800c4b79f00d5b79f00761107006f
:1034c8008a80fb000fbb97009fbb97008100e90033
:1034d800030033008703d1000683d300fbff3700c6
:1034e8004fb29700dfb297000608a300140032001d
:1034f80075860a000000000006034300011621003b
:1035080086804000910078006f006000170020005e
:103518000038dd008085ea009188650047152100a4
:103528008683430097037800978b650091087000a5
:10353800c1162100068340009600780091087000ab
:103548000a45e80013062100934178008acf51000c
:10355800d7ff3e008040eb00030037008140e800c1
:103568008502d1000482d30006082f00a72f20006f
:10357800860f5200878f5a00f8ff3e000884ea0041
:103588008984ea001fb89700808364000fb9970008
:103598000203640020002000e00f5300e08f5b006e
:1035a8001d003a00f103b200c808dd00f00f2c003e
:1035b8000a0bb600008070005058880002482800a6
:1035c800e30120000400be00a4f50700e0828800a3
:1035d8000000e00002003a0010002000e0828800ad
:1035e800e082800052002000050009000280d80017
:1035f800c08288004d110700f08f2f006c08b600bc
:103608000080a000604388002b48a8000000eb0061
:1036180001003700200020004f06be004f05be0005
:103628004f04be000080fa00000006000d062100cd
:103638009d4678002b15210007162100a6162100ab
:1036480003e0200022e0200061e020000040eb00c1
:0436580079ff3700bf
:020000040000fa
:10365c00889fbe008a9fbe008c9fbe008e1f780084
:10366c0080047800b00020000900e0002e01320038
:10367c008006eb000d0778008045eb000b467800c8
:10368c0006013700e675b9006480440090004500df
:10369c0011019000124178007e416100020032005d
:1036ac0013c0b3008348780010044500984078009c
:1036bc00e4cf50006700320006003e00e2cf50001d
:1036cc001600320030003e00e1cf5000f1003a000d
:1036dc000900370052c8b30082cf50007b00320083
:1036ec0063c8b30083cf50009f003200e7cf500077
:1036fc00e8003a00c5003700014678000204e000fb
:10370c00e4003a0021c0b300014c780010054500dc
:10371c0080c0b30010459800de00370018409000c0
:10372c000004e000150032008880e80064044400c6
:10373c00e44f5000030036001180e800100c7800b4
:10374c0009003700180078009180e800910078009b
:10375c00810f50000400320002003600000ce9001a
:10376c0001003700000ce800290090000a05400019
:10377c005a40e900004d78002000370030c0b300fb
:10378c00004c7800c3003700a8009000180190008e
:10379c0012019000828f5000be00320066824400fd
:1037ac00828f50001700360089017800d302780010
:1037bc0082805000148146001281fb00554290001b
:1037cc000482fb000492de000482fb00848f500014
:1037dc00b0003900c54090000104e000ad0032009b
:1037ec0071c0b300014c78001005450093017800be
:1037fc006480410010407800104598001cc0b30054
:10380c00a400370014804600810051009081fb0019
:10381c00838f50009f003900204090000004e0008e
:10382c00050032008e00780009007800810d070039
:10383c000004e00097003a0040c0b300004c780050
:10384c00290090000a0540001900900020409000cb
:10385c00e9ff37002801900098009000910190003a
:10386c00830f510086003e00b90090008d8040000f
:10387c00028151001182fb00840f51008000360040
:10388c00214090000004e000050032008e0078001a
:10389c0009007800670d07000004e0007d003a0085
:1038ac0008007800d04078000104e00002003200eb
:1038bc000148e900d1ff370050c8b300004c780034
:1038cc00290090000a05400040003700890078006c
:1038dc00990178006481410051027800e8014200ae
:1038ec001349780010014500a2029000920190004b
:1038fc0013039000868f52000700360063c8b30094
:10390c0003497800100545001180e800104078004c
:10391c00104598003a003700b90190008d814100a4
:10392c00334278008483fb009381fb008301e80021
:10393c0083b9de0085025300034252000482fb006f
:10394c001bc0b300848f520052003e0063c8b3000a
:10395c0003497800100545001180e80010407800fc
:10396c00104598002700370028029000980090001e
:10397c0091029000850f5200060036000800780076
:10398c00d04078000104e000180032000148e90042
:10399c0018003700b90090008d804000b1417800cc
:1039ac000383fb009180fb008100e80081b0de0006
:1039bc000482520081c151008381fb00830f5200ad
:1039cc0006003600024c78001005450019009000e6
:1039dc003040900010459800060037000800780031
:1039ec00d04078000104e00004003a0030c0b3007d
:1039fc00004c78001bc0b300260037000148e900da
:103a0c001bc0b3000b467800220037002801900041
:103a1c009800900091009000810f51001800360022
:103a2c0081005100390190000d0141001281fb0011
:103a3c0099019000d34190008381fb008391de00bb
:103a4c008381fb00838f50000d00390088007800c3
:103a5c00514178000204e00007003a0011c0b300a5
:103a6c00014c7800100545001a00900031c0b300dd
:103a7c0001487800070037008248e9005fff3700f3
:103a8c0031c0b300014c7800100545000a05e80070
:103a9c00004deb000e07e800e3864600190090008d
:103aac00900f5700f7fe3900190078001004e00061
:103abc0004003d0009007800fe0e07001900780094
:103acc001074a1000c04e0000e0032000900780014
:103adc0050017800e90041001104e00009003200b7
:103aec00990078001174a000100078006900400063
:103afc0013c0b30090cf110002003a000900780007
:103b0c00d40a0700190078000b04e00002003a0008
:103b1c001004a1000100370010c8750009007800de
:103b2c00de0207000000eb004f0778004f06be00d6
:0c3b3c004f05be004f04be000000060054
:020000040000fa
:103b480002042100124178000280fb0000004000be
:103b5800c1c02000010040000281fb008001eb0091
:103b6800ff0f5100e08f590000013e0002060100de
:103b78001f003700250037002b00370031003700c1
:103b8800370037003d003700430037004900370051
:103b98004f003700550037005b00370061003700e1
:103ba800670037006d003700730037007900370071
:103bb8007f003700850037008b0037009100370001
:103bc800970037009d003700a3003700a900370091
:103bd800af003700b5003700bb003700c100370021
:103be800c7003700cd003700d3003700d9003700b1
:103bf800300bab0003003200100078001182800007
:103c0800010001000b68a900d8003700302bab0079
:103c180003003200100078001182800001000100ca
:103c28000b88a900d1003700304bab0003003200ed
:103c38001000780011828000010001000ba8a90083
:103c4800ca003700306bab00030032001000780068
:103c580011828000010001000bc8a900c3003700d1
:103c6800308bab0003003200100078001182800016
:103c7800010001000be8a900bc00370030abab0025
:103c8800030032001000780011828000010001005a
:103c98000c08a900b500370030cbab000300320098
:103ca8001000780011828000010001000c28a90092
:103cb800ae00370030ebab00030032001000780094
:103cc80011828000010001000c48a900a7003700fc
:103cd800310bab0003003200100078001182800025
:103ce800010001000c68a900a0003700312bab00cf
:103cf80003003200100078001182800001000100ea
:103d08000c88a90099003700314bab000300320042
:103d18001000780011828000010001000ca8a900a1
:103d280092003700316bab000300320010007800be
:103d380011828000010001000cc8a9008b00370027
:103d4800318bab0003003200100078001182800034
:103d5800010001000ce8a9008400370031abab007a
:103d68000300320010007800118280000100010079
:103d78000d08a9007d00370031cbab0003003200ed
:103d88001000780011828000010001000d28a900b0
:103d980076003700300be20003003d001000780089
:103da80011828000010001000d48a9006f00370052
:103db800320bab0003003200100078001182800043
:103dc800010001000d68a90068003700322bab0024
:103dd8000300320010007800118280000100010009
:103de8000d88a90061003700324bab000300320098
:103df8001000780011828000010001000da8a900c0
:103e08005a003700326bab00030032001000780014
:103e180011828000010001000dc8a900530037007d
:103e2800328bab0003003200100078001182800052
:103e3800010001000de8a9004c00370032abab00cf
:103e48000300320010007800118280000100010098
:103e58000e08a9004500370032cbab000300320042
:103e68001000780011828000010001000e28a900ce
:103e78003e00370032ebab00030032001000780040
:103e880011828000010001000e48a90037003700a8
:103e9800330bab0003003200100078001182800061
:103ea800010001001808a90030003700332bab00cf
:103eb8000300320010007800118280000100010028
:103ec8001828a90029003700334bab000300320043
:103ed80010007800118280000100010012e8a9009a
:103ee80022003700336bab0003003200100078006b
:103ef80011828000010001001228a9001b00370070
:103f0800338bab0003003200100078001182800070
:103f1800010001001248a9001400370033abab00c0
:103f280003003200100078001182800001000100b7
:103f38001268a9000d00370032cbab000300320035
:103f48001000780011828000010001001288a90089
:103f580006003700320be20003003d001000780035
:103f6800118280000100010011a8a9000b48a900d6
:043f7800000006003f
:020000040000fa
:103f7c000000fa000080fa00000006000200fa00bf
:103f8c00004f78001e40780019fb07000080fa00f3
:103f9c00000006001000fa00881f78009ad0bf00bd
:103fac00ef40600063004700014878006300470061
:103fbc00104078000004e0000b003a000000eb0019
:103fcc00000f780005003700801b21001e00400008
:103fdc0010407800e9ff07001e0fe8001e00780073
:103fec00f20f5000f8ff360050c5b300e3ff070096
:103ffc009ad0bf00e1ff07008000eb006e00470085
:10400c00010878005f0037006e0047001000780050
:10401c002dfa070080007800640047000108780042
:10402c00640047001000780000407800d3ff0700c0
:10403c0064004700100078004800de000040780063
:10404c00ceff07006e0047001000780035fa07001d
:10405c008000780064004700010878006400470085
:10406c001000780000407800c4ff0700640047008f
:10407c00100078004800de0000407800bfff070009
:10408c006e004700100078000ffa070080007800df
:10409c0066004700010878006600470010047800ad
:1040ac006e004700100078001efa070080005400d4
:1040bc00660047000108780064004700e6004700ee
:1040cc001108780064004700100078000040780068
:1040dc00aaff070064004700100078004800de00cb
:1040ec0000407800a5ff07008000eb00640047004b
:1040fc000108780064004700100078000040780048
:10410c009eff070064004700100078004800de00a6
:10411c000040780099ff07006e00470010007800ff
:10412c002efa0700e8004700804878006800470036
:10413c00104078000004e00003003d0010c0b30004
:10414c008eff0700020037000040eb008bff0700da
:10415c006e004700100078002afa0700e8004700bc
:10416c0080487800680047001040780083ff070003
:10417c006e004700100078008000e8006e004700d9
:10418c00010878006e00470010007800e20f500024
:10419c009dff36008000eb006e00470001087800a0
:1041ac004b0037006e004700100078004bfa0700f8
:1041bc00e80047008048780068004700104078000d
:1041cc000080fb0061006000004078000004e0000b
:1041dc000300320010c0b30068ff07000200370074
:1041ec000040eb0065ff0700000321006400400065
:1041fc00900078006e00470010007800ea00b900cb
:10420c008080400064004700e8804000110878007e
:10421c0064004700100078000040780057ff07004a
:10422c0064004700100078004800de000040780071
:10423c0052ff070000032100660040009000780048
:10424c006e00470010007800ea00b9008080400042
:10425c0064004700e88040001108780064004700c3
:10426c00100078000040780044ff0700640047000d
:10427c00100078004800de00004078003fff070087
:10428c006e004700100078001ffa070080007800cd
:10429c0064004700010878006400470010007800b3
:1042ac000040780035ff07006400470010007800dc
:1042bc004800de000040780030ff07006e00470029
:1042cc00100078008000e8006e00470001087800bc
:1042dc006e004700100078000000e000b1ff3200d3
:1042ec00f1f9070025ff07008040eb000e80e80085
:1042fc0001487800090037000e80e8001040780073
:10430c00eef907001dff07000e80e8001040780052
:10431c008040e8000e80e800014878000e80e8003c
:10432c0010407800e24f5000f3ff36000040eb00e5
:10433c0012ff0700a20a07006a0147000089be00ad
:10434c006a004700104078000cff07006b00470024
:10435c001040780009ff07006c00470010407800ff
:10436c0006ff07006d0047001040780003ff0700b0
:10437c009ad0bf00804078000040e8009af0b70067
:10438c0001407800fdfe0700a0cab300fbfe070049
:0c439c004f0478000080fa0000000600ca
:020000040000fa
:1043a800ec874700889fbe008a9fbe008c9fbe0096
:1043b8008e1f78008004780039009000d0b79f00e5
:1043c800a9009000c1b79f001900900090057800df
:1043d800bc0020000100e000aa003200dfb6970010
:1043e8000d00e000a70032000b00e000a50032003d
:1043f8000006eb000040eb00e0ef9f00f0ef9f00ad
:10440800980037007fe89700a2c0b3000440bc00c2
:10441800dfb09700028440001800900048429000e6
:104428000482fb0080034200800078008041eb009a
:1044380008003700e60bb9000683450055c8b300ed
:1044480096cf120002003a008700780013c0b3002c
:104458008100e800878f5000f6ff39000007e90067
:1044680004024700e622b90004874500e602b900c5
:10447800848045008180e800000378008042eb00da
:104488000002eb002600370001057800ba86e80034
:104498009d0678001a8556008006eb00edb79f0050
:1044a8004240a90001003400eab79f00800f530082
:1044b80008003a000005eb001dc0b30098cf1600b5
:1044c8000c003a001e0590001a059000ae069000f8
:1044d8000300370051bd97001a059000e1be970010
:1044e8008d0655000005eb004240a900010034008c
:1044f8000d057800efb697000d054500c806900039
:104508008d0f550004003900840f55000100360056
:104518000a02780015c0b3000603e800e6804000f0
:10452800870f5300d8ff39000504e00001003a0066
:104538008041eb004fb09700020540009a80fb00d5
:10454800648044000108a3000b0032009000410081
:10455800e88040001100780000034000000043009c
:10456800040240004222de00840878000504e000ce
:1045780004003a000400370010004100440098008d
:104588000100370013c0b30018427800e14f520011
:1045980029003e0058479000f0ccb300804f5700e8
:1045a80025003e000304e00005003a0029009000c1
:1045b80002014000680141000009eb001f003700bc
:1045c8008b0078000800780084bf9f006e03070006
:1045d800800678001a80fb000fba97000008a30035
:1045e800060032008d0178002a0190008e40780084
:1045f80004407800ba0b0700010037000d0078006e
:104608002d059800000178008a00780008007800dd
:10461800500b0700660145008040eb00920f100028
:10462800020032000009780021c0b30010c8b300ae
:1046380000c07000020037002c0020000040eb0092
:10464800004d780011c8b30001406000efe8970002
:1046580081407000e1ef9f00ffee97008d46e80073
:10466800fdef9f001900900020409000ffe89700a0
:1046780080cf500063ff390019007800efee9700f3
:104688000d4878000c0078004f0778004f06be00f0
:104698004f05be004f04be00cf00b1000000060069
:020000040000fa
:1046a800881f7800028580009080e80091017800da
:1046b800810c200083804000810f510002003600e9
:1046c800830051009e0037008000eb00830f5100eb
:1046d8009b0031008380ea0082804000820c200029
:1046e800828f500096003e008000eb009400370057
:1046f800810cb1001001780082017800850c20003f
:104708005382420084097800e40141001342780092
:104718000404e0004e003a0065014100924178002f
:104728000304e000010032000349e9009001780029
:1047380066814100924178000304e00001003200e4
:104748000349e90090019000634190000204e000f1
:104758001d00320010027800650142001204e000da
:1047680019003a00930378000001eb0010003700ad
:10477800e612b900a0029000048242009442780038
:10478800e3cf520002003200e8cf520007003a009f
:10479800e40242001503780014029000140290000d
:1047a800840f530001003100860ae8000201e80086
:1047b800870f5100eeff39009002780065814200b2
:1047c800e341900003497800900190007341900004
:1047d8000204e0001f003200100278006601420067
:1047e8001204e0001b003a00930378000001eb007c
:1047f80010003700e612b900a002900004824200bf
:1048080094427800e3cf520002003200e8cf520011
:1048180007003a00e40242001503780014029000f1
:1048280014029000840f530001003600860ae90044
:104838000201e800870f5100eeff3900900278006e
:1048480066814200f3419000034978000100370077
:104858008449e90010019000324190000204e00010
:10486800370032000001eb0032003700e613b900d0
:10487800e40240009501430054c8b300934f12006e
:104888002b003a0003027800d44378000704e000c4
:1048980002003200074ae9002500370014c0b300bf
:1048a80084497800150343009601900034c0b30092
:1048b80084497800b0019000e312b9008481410076
:1048c800234290008001eb000404e00015003a0048
:1048d80017003700b0029000e31bb900868242003f
:1048e800a5429000854f52000d003a00e61bb90022
:1048f800e402400095034300170490001884fb006d
:104908000808a3000600320018c0b300884b7800de
:10491800150343009602900036c0b300864a78001b
:104928008301e80090029000958f5100e9ff39005b
:104938000201e80090019000930f5100cbff39006d
:10494800820c2000828f500069ff3e004f047800df
:044958000000060055
:020000040000fa
:10495c000000fa00c0678400000001008f70ef00b7
:10496c00020007000080fa00000006000200fa00b6
:10497c000040eb00004f7800060037001e80fb0063
:10498c00c11c2100008040008040eb0001487800f1
:10499c001e4fe8001e407800e74f5000f7ff36002e
:1049ac000080fa00000006000000fa002168840074
:1049bc00e04a220001000100706484000000010044
:1049cc000080fa00000006000200fa00b0648400c7
:1049dc00000001000004e000170032009064840025
:1049ec0000000100004f78001e407800ed4f500091
:1049fc000e0032008fd0bf00e84f50000b003e007d
:104a0c00b0678400000001008fd0bf000080fb0065
:104a1c00c11c2100008040001e4878008fd0bf00d0
:104a2c000040e8008ff0b700030037008f70ef00f4
:104a3c0010c0b3008ef0b7008ed0bf000004e000b1
:104a4c005f0032008e70ef00c01c2100720020004d
:104a5c0001c0280052f307000000e00003003a00f8
:104a6c00200020008084880053003700c01c2100e7
:104a7c007200200081c0280049f307000000e0000c
:104a8c0003003a0040002000808488004a00370070
:104a9c00c01c21007200200001c1280040f3070057
:104aac000000e00003003a006000200080848800d1
:104abc0041003700c01c21007200200081c1280079
:104acc0037f307000000e00003003a0080002000ec
:104adc008084880038003700c01c21007200200040
:104aec0001c228002ef307000000e00003003a008a
:104afc00a0002000808488002f003700c01c2100fb
:104b0c008200200081c2280025f307000000e0008d
:104b1c0003003a0030002000808488002600370013
:104b2c00c01c21008200200011c328001cf30700c8
:104b3c000000e00003003a00500020008084880050
:104b4c001d003700c01c210082002000a1c32800da
:104b5c0013f307000000e00003003a00700020008f
:104b6c008084880014003700c01c210082002000c3
:104b7c0031c428000af307000000e00003003a00eb
:104b8c0090002000808488000b003700c01c21009e
:104b9c0082002000c1c4280001f307000000e000df
:104bac0003003a00b0002000808488000200370027
:104bbc0010002000808488006cff07000100370083
:104bcc009030ef000080fa00000006000000fa00b0
:104bdc008fd0bf000080fb000000ea004f00de0019
:104bec00004078000080fa00000006000000fa0087
:104bfc00808480000080fa00000006000000fa00ab
:104c0c00980007000080fa00000006000200fa007d
:104c1c00000f78001e007800e20f500010003200e8
:104c2c00e20f500005003e000000e00008003200da
:104c3c00e10f5000080032000f003700e30f500066
:104c4c0009003200e40f5000090032000a0037005e
:104c5c0076cea8000800370076eea80006003700d4
:104c6c00770ea80004003700772ea800020037004a
:104c7c00936ea800000000000080fa0000000600ff
:104c8c000200fa00000f78001e007800e20f5000be
:104c9c0026003200e20f500005003e000000e0004c
:104cac0008003200e10f50001300320046003700bc
:104cbc00e30f50002a003200e40f500035003200a0
:104ccc0041003700b073800066800a0000000000cd
:104cdc000004a200614060000080fb0061006000e5
:104cec004600dd00b17380000160a100010070007e
:104cfc00b073880034003700b073800077800a00ee
:104d0c00000000000004a200614060000080fb0075
:104d1c00610060004700dd00b17380000170a100ec
:104d2c0001007000b073880027003700b07380005a
:104d3c0088800a00000000000004a20061406000ae
:104d4c000080fb00610060004800dd00b173800052
:104d5c000180a10001007000b07388001a003700b8
:104d6c00b073800099800a00000000000004a200cb
:104d7c00614060000080fb00610060004900dd00c4
:104d8c00b17380000190a10001007000b073880025
:104d9c000d00370090748000bb800a0000000000fa
:104dac000004a200614060000080fb006100600014
:104dbc004b00dd009174800001b0a1000100700077
:104dcc0090748800000000000080fa0000000600cb
:104ddc000200fa00000f78001e007800e20f50006d
:104dec0010003200e20f500005003e000000e00011
:104dfc0008003200e10f5000080032000f003700ad
:104e0c00e30f500009003200e40f5000090032009b
:104e1c000a00370076cea9000800370076eea9000c
:104e2c0006003700770ea90004003700772ea90082
:104e3c0002003700936ea900000000000080fa0009
:104e4c00000006000000fa0076cea80076eea8005e
:104e5c00770ea800772ea800936ea8000080fa00a9
:104e6c00000006000000fa0076cea90076eea9003c
:104e7c00770ea900772ea900936ea9000080fa0086
:104e8c00000006000000fa00814a800000022000a9
:104e9c00008060000000e00009003200304b800010
:104eac008000eb00c001dd0002002000204b8000e0
:104ebc008000eb000000710081807100020037005f
:104ecc00204b80008000eb000080fa000000060000
:104edc000000fa00814a800000022000008060007f
:104eec000000e00009003200104b80008000eb0055
:104efc00c001dd0002002000004b80008000eb00b0
:104f0c00000071008180710002003700004b8000ae
:104f1c008000eb000080fa00000006000000fa00a0
:104f2c0000022000804a88005229ef005429ef002b
:104f3c005629ef005a29ef005c29ef006029ef0099
:104f4c006229ef00f0cf2200204b880010132000c4
:104f5c00304b88006829ef006c29ef007029ef00b6
:104f6c007229ef00608722004b00070000e8a900bf
:104f7c0020e8a8000080fa00000006000000fa00fb
:104f8c0051e9a90000e8a90020e8a9005029ef0088
:104f9c005229ef005429ef0000102000b04a88007d
:104fac005a29ef005c29ef006029ef006229ef001d
:104fbc000080eb00204b88000080eb00304b880019
:104fcc006829ef006c29ef007029ef007229ef00bf
:104fdc000080fa00000006000000fa0000e8a900ba
:104fec0020e8a80051e9a8000080fa0000000600a3
:104ffc000000fa0051e9a90000e8a90020e8a90086
:10500c000080fa00000006000400fa00008fbe00c9
:10501c00f0ff2f00010020001e01be00800f510088
:10502c00818f5900080036001e007800204b880044
:10503c001e00be004008de0000007800304b8800e7
:10504c0050a9a800030037001e007800204b8800f0
:10505c0050a9a9000080fa00000006000200fa0026
:10506c00000f78001e007800004078006740600058
:10507c000080fb00670060004c00dd0012428000e5
:10508c00f1ff2800810061000100700010428800cf
:10509c000080fa00000006000200fa00000f780001
:1050ac001e0078000000e000020032009e00780034
:1050bc00c18488000080fa00000006000200fa009b
:1050cc00000f78001e0078000000e00002003200a3
:1050dc001e007800c08488000080fa0000000600e2
:1050ec000000fa000080fa00000006000200fa003e
:1050fc00000f78009e007800214b880050a9a90071
:10510c000080fa00000006000000fa0026fe0700ee
:10511c00bafe070014070700de0607000080fa003d
:10512c00000006000000fa00040007004b00070016
:10513c004f0007000080fa00000006000000fa0093
:10514c00ff060700db060700e20f500013003200d9
:10515c00e20f500005003e000000e0003700320076
:10516c00e10f5000080032003a003700e40f500005
:10517c001a003200e40f50000f003900e50f500008
:10518c00210032003300370036ff07000000eb002f
:10519c009efe07009230ef002e00370031ff070013
:1051ac000000eb0099fe07001000200097fe07009e
:1051bc009230ef00270037002aff07000000eb00b9
:1051cc0092fe07001000200090fe07002000200037
:1051dc008efe07009230ef001e00370021ff070003
:1051ec000000eb0089fe07001000200087fe07007e
:1051fc002000200085fe07003000200083fe070001
:10520c009230ef001300370016ff07000000eb0090
:10521c007efe0700100020007cfe0700200020000e
:10522c007afe07003000200078fe070040002000c6
:10523c0076fe07009230ef00060037009084800065
:10524c000000e00002003a0006ff070001003700f2
:10525c00000000000080fa00000006000400fa00c4
:10526c00d7060700008fbe000080fa000000060081
:10527c000200fa00d4fd07005cfe0700000f780066
:10528c001e007800e10f5000050032001e0078006f
:10529c000000e00002003200100020009084880022
:1052ac001e0078006101b800e0ff2f00f1ff2f0015
:1052bc000200400083804800920020000300200080
:1052cc00820f5000838f580029003e000006010019
:1052dc0009003700170037000a00370018003700a4
:1052ec000b003700190037000c0037001a0037008c
:1052fc000d0037001b0037000000eb0043fe0700d9
:10530c001c0037001000200040fe07001900370079
:10531c00200020003dfe0700160037003000200062
:10532c003afe0700130037004000200037fe07004c
:10533c00100037000000eb00a5fe07000d00370041
:10534c0010002000a2fe07000a00370020002000f9
:10535c009ffe070007003700300020009cfe07006e
:10536c00040037004000200099fe070001003700c0
:10537c00000000000000eb00000f78000080fa0035
:04538c000000060017
:020000040000fa
:10539000889fbe008a9fbe008c9fbe008e1f780033
:1053a000000478000101780098029000c845900040
:1053b0005846900074800a000c0000000007780036
:1053c000e628b900800141000383e8000500780069
:1053d0008000eb00010278000c00370086037800a3
:1053e000b784e80099047800978354004240a900ec
:1053f00004003400818f53000200340087007800dd
:10540000000278000000e800660343008b84fb0084
